:10000000F8C0000027C1000025C1000023C1000086
:1000100021C100001FC100001DC100001BC1000064
:1000200019C1000017C1000015C1000013C1000074
:1000300011C100000FC100000DC100000BC1000084
:1000400009C1000007C1000005C1000003C1000094
:1000500001C10000FFC00000FDC000000C9474232B
:10006000F9C000000C9480260C94B626F3C0000062
:10007000F1C00000EFC00000EDC00000EBC00000C8
:10008000E9C00000E7C00000E5C00000E3C00000D8
:100090000C940C270C944227DDC00000DBC000004C
:1000A000D9C00000D7C00000D5C00000D3C00000F8
:1000B000D1C00000CFC00000CDC00000CBC0000008
:1000C000C9C00000C7C00000C5C000000C9498273C
:1000D0000C94CE27BFC000000C9424280C945A28FE
:1000E000B9C0000000000A0B02090C0D0E0807033E
:1000F00004010000000000000000000000000000FB
:1001000000000000000000000000000000000000EF
:1001100012111000000000000000000000000000AC
:100120000000000000000000000001021020200874
:100130000810204010204080020102010804020142
:1001400001020408102040808040201008040201B1
:10015000800402018040201008040201080402010A
:100160000102040810204080010204081020408091
:1001700005050505070508080808020202020A0A23
:100180000808040404040101010101010101030341
:10019000030303030303040707070C0C0C0C0C0CEC
:1001A0000C0C0202020206060606060606060B0BE9
:1001B0000B0B0B0B0B0B00002200250028002B0063
:1001C0002E003100340002010000050108010B017E
:1001D00000002100240027002A002D0030003300F9
:1001E00001010000040107010A01DF266B27F72740
:1001F000832811241FBECFEFD1E2DEBFCDBF00E0C8
:100200000CBF12E0A0E0B2E0E4E0F3E500E00BBFD9
:1002100002C007900D92AA3FB107D9F727E1AAEFD4
:10022000B2E001C01D92A730B207E1F710E0C9EFBC
:10023000D0E000E006C021970109802FFE010E9456
:100240006829C53FD10780E00807A9F70E94CF20A1
:100250000C948029D5CE611102C00C94ED2461303C
:10026000E1F362E0FACF662319F061E00C942925EE
:1002700060E0FCCFAB01BC0182E494E10C9409295D
:10028000AB01BC018FED94E10C940929AB01BC01D9
:100290008CE795E10C940929AB01BC0189E196E159
:1002A0000C9409298F929F92AF92BF92CF92DF92C6
:1002B000EF92FF920F931F93CF93DF93CDB7DEB7EB
:1002C0007B014A015901CDB6DEB69B01220F331FD7
:1002D0004DB75EB7421B530B0FB6F8945EBF0FBE0F
:1002E0004DBF0DB71EB70F5F1F4FE82FF0E0EE0FA9
:1002F000FF1FE85FFD4F0190F081E02DC8011995C7
:10030000F801D401E00EF11EEE15FF0519F0819100
:100310008D93FACF81E0F50180830FB6F894DEBEAD
:100320000FBECDBEDF91CF911F910F91FF90EF9047
:10033000DF90CF90BF90AF909F908F9008959F9245
:10034000AF92BF92CF92DF92EF92FF920F931F93E3
:10035000CF93DF93CDB7DEB7C054D1090FB6F89471
:10036000DEBF0FBECDBFB82E8B01942EA52E690126
:10037000E82EF12CEE0CFF1CF701E050FE4F01902F
:10038000F081E02D199580179107C9F49601492D48
:100390005A2DBC018B2D86DFC05CDF4F0FB6F89461
:1003A000DEBF0FBECDBFDF91CF911F910F91FF90A8
:1003B000EF90DF90CF90BF90AF909F9008958017FF
:1003C000910748F4E92DFA2D0E0F1F1FE017F107D2
:1003D00019F11192FBCF9801220F331F281739070B
:1003E00028F09601492D5A2DB801D4CFB8010E94AA
:1003F0003229CB010197809FB001819F700D909FA2
:10040000700D1124F701E85FFD4F0190F081E02DA0
:10041000CE0101961995E5CFF6011082BDCF82E499
:1004200094E10C9456258FED94E10C9456258CE7BD
:1004300095E10C94562589E196E10C945625882384
:10044000E1F0823061F0833089F08130B1F440E036
:1004500052EC61E070E081E090E00C94C21F40E05B
:1004600052EC61E070E082E090E0F7CF40E052ECC7
:1004700061E070E083E090E0F0CF0895CF93DF93E8
:100480004115510509F450C0EA01DC011296ED91C5
:10049000FC9180819181A281B381809367039093C5
:1004A0006803A0936903B0936A0384819581A68150
:1004B000B7818093630390936403A0936503B09323
:1004C000660380859185A285B38580935F039093B1
:1004D0006003A0936103B093620384859585A6852C
:1004E000B78580935B0390935C03A0935D03B09307
:1004F0005E03109257031092580310925903109202
:100500005A0380916C03811103C08881882379F09C
:1005100080913C0290913D02049731F083E090E09D
:1005200090933D0280933C02DF91CF9108956AE061
:1005300070E080E090E00E94EF2380E0B6D48091EC
:100540006B038883DECFCF93DF934115510561F0B4
:1005500080913C0290913D02049731F0EA0180E0E5
:10056000A4D480916B038883DF91CF910895CF92BB
:10057000DF92EF92FF921F93CF93DF938F3F91050E
:1005800009F0E8F46A017B01EC010E94740D11E0AE
:10059000029719F4CE016DD5182FAE01C701B6012F
:1005A00036D4AB01BC01112351F0CE01DF91CF91C4
:1005B0001F91FF90EF90DF90CF900C946D0DDF9125
:1005C000CF911F91FF90EF90DF90CF900895089505
:1005D00008952AD53ED4892B21F081E090E00C9437
:1005E00080290895BBD40C942B0BCF93DF93EC019F
:1005F000609138027091390280913A0290913B02E9
:1006000020E030E040E050EC0E94CF21882361F0F0
:100610008091380290913902A0913A02B0913B0248
:1006200088839983AA83BB83DF91CF910895DDCF1F
:10063000089508958F929F92AF92BF92CF92DF92CA
:10064000EF92FF92CF93DF93809104178150823015
:1006500008F046C083E08093041780914503811120
:1006600045C0C0901002D0901102E0901202F090AC
:100670001302A70196016091C8167091C916809166
:10068000CA169091CB160E94CF21882341F0C092C8
:10069000C816D092C916E092CA16F092CB16609195
:1006A000CC167091CD162EEB36E14CEB56E183E083
:1006B00046DE8091BE168823C9F08091BC169091C9
:1006C000BD169093BB168093BA16809104178823A9
:1006D00049F0833009F4FCC1082E000C990B04C0CA
:1006E00080E0B9CF82E090E08093041780914803C6
:1006F00081114AC0C090FE16D090FF16E0900017FE
:10070000F0900117C701B6010E9401224B015C0164
:1007100020911C0230911D0240911E0250911F0237
:100720000E94CF2187FFD7C1F7FCD5C18091140269
:1007300090911502A0911602B09117028093B616FF
:100740009093B716A093B816B093B91620E030E096
:1007500040E85FE3609118027091190280911A02DB
:1007600090911B020E946A219B01AC01C501B4015A
:100770000E940D2387FDB3C11092FE161092FF1642
:10078000109200171092011780914703811145C004
:10079000C091BA16D091BB16D0930317C09302171D
:1007A00020E030E0A9016091B6167091B7168091F3
:1007B000B8169091B9160E94CF2181119EC1CE0129
:1007C00023E0969587952A95E1F78095909581701D
:1007D00099276C2F6170811101C060E06093BF1692
:1007E00020E0882321F09E013695279521702093E3
:1007F000C016882309F484C1D695C795D695C795A8
:10080000C170C093C11681E32EDD6091C11685E3EE
:100810002ADD6091C01683E326DD85E090E0D8DE16
:10082000409128035091290360912A0370912B0372
:1008300090E080E09CDE80914503811115C06091BD
:1008400034037091350380913603909137030E94F1
:10085000FF212AE037ED43E25CE30E941123AB0164
:10086000BC0181E090E083DE80914603811115C0D8
:10087000609138037091390380913A0390913B0362
:100880000E94FF2129E838E848E05DE30E94112337
:10089000AB01BC0182E090E06ADE809147038111E8
:1008A00015C060913C0370913D0380913E0390918F
:1008B0003F030E94FF212DEC3CEC4CEC5DE30E94D9
:1008C0001123AB01BC0183E090E051DE809148032D
:1008D000811115C0609140037091410380914203E2
:1008E000909143030E94FF212DEC3CEC4CEC5EE325
:1008F0000E941123AB01BC0184E090E038DE8090BF
:10090000490390904A03A0904B03B0904C0320E021
:1009100030E040E85FEBC501B4010E94CF2188239D
:1009200031F1C0902803D0902903E0902A03F09081
:100930002B03A7019601C501B4010E946A214B0156
:100940005C0120E030E040E054E3C701B6010E94C2
:1009500011239B01AC01C501B4010E940D2318169F
:1009600034F085EC92E0909313038093120380910E
:100970004D03882331F085EC92E09093130380932C
:10098000120360912C0370912D0380912E0390919E
:100990002F036F5F7F4F8F4F9F4F60932C03709398
:1009A0002D0380932E0390932F030E94FF219B0120
:1009B000AC016091300370913103809132039091CA
:1009C00033030E94112360932803709329038093BB
:1009D0002A0390932B0330914503311113C080916A
:1009E000340390913503A0913603B09137030196FB
:1009F000A11DB11D8093340390933503A09336035A
:100A0000B093370320914603211113C0809138031E
:100A100090913903A0913A03B0913B030196A11D37
:100A2000B11D8093380390933903A0933A03B09398
:100A30003B0390914703911114C040913C035091A6
:100A40003D0360913E0370913F034F5F5F4F6F4FD7
:100A50007F4F40933C0350933D0360933E0370935C
:100A60003F0380914803811114C04091400350918D
:100A7000410360914203709143034F5F5F4F6F4F9B
:100A80007F4F409340035093410360934203709320
:100A900043033F5F3330B0F5309345032F5F2A3077
:100AA000A0F5209346039F5F9E3190F590934703F6
:100AB0008F5F883780F580934803DF91CF91FF9057
:100AC000EF90DF90CF90BF90AF909F908F90089560
:100AD00081E090E009CE80E090E0DC012FCE8FEF46
:100AE000C81AD80AE80AF80AC092FE16D092FF1671
:100AF000E0920017F092011747CE81E090E069CEB6
:100B0000C0E07FCE10924503C9CF10924603CBCFF1
:100B100010924703CDCF10924803CFCFCF92DF92F0
:100B2000EF92FF921F93CF93DF93E2E1F3E08CE328
:100B3000DF011D928A95E9F780E090E0A0E8BFEB25
:100B400087AB90AFA1AFB2AF8EE094E7AAE5BBE36D
:100B5000868F978FA0A3B1A38BEE9BE8A5E3B9EF97
:100B600084839583A683B78386EA93E5AEE2BBE7E9
:100B700080879187A287B3878FE096EBA9EEB6E5D1
:100B800084879587A687B78785E199EEADEDBDEBA4
:100B9000808B918BA28BB38BA6E0B3E0B383A2834F
:100BA000EAEFF2E01196FC93EE9389ED92E09183E7
:100BB00080839383828395838483978386839187BD
:100BC000808784E097E19387828786E293E0159699
:100BD0009C938E93149786E193E013969C938E9347
:100BE000129788E293E017969C938E931697A6EB44
:100BF000B6E18CE0FD0111928A95E9F7C2ECD6E1ED
:100C000083E4FE0111928A95E9F7E0E1F2E086A122
:100C100097A1909303178093021784A195A115962D
:100C20009C938E93149780819181A281B3818E834E
:100C30009F83A887B987C12CD12C7601C394C98220
:100C4000DA82EB82FC8282E090E09D878C879B8732
:100C50008A8783E0F4DB11E01D8318A2C9A2DAA21F
:100C6000EBA2FCA261E081E3F6DA1DA3188EC98E27
:100C7000DA8EEB8EFC8E61E085E3EDDA1D8F188A4B
:100C8000C98ADA8AEB8AFC8A61E083E3E4DA1D8BA5
:100C9000DF91CF911F91FF90EF90DF90CF9008955B
:100CA0008091C216811103C081E08093C2168091A9
:100CB000E216811103C081E08093E2168091DA167A
:100CC000811103C081E08093DA168091D2168111E0
:100CD00003C081E08093D21608954F925F926F9285
:100CE0007F928F929F92AF92BF92CF92DF92EF92BC
:100CF000FF92452B09F07AC06B017C0120E030E0C7
:100D00004AE754E40E9411234B015C0120E030E0EB
:100D100040E85FE40E9443220E94D3212B013C0162
:100D200020E030E040E85FE4C501B4010E940D23FB
:100D300018160CF068C020E030E040E85FE2C50122
:100D4000B4010E9411230E94D32140924E0350927D
:100D50004F0360925003709251036093520370935B
:100D6000530380935403909355036091380270911C
:100D7000390280913A0290913B0220E030E040E855
:100D80005FEB0E94CF21882389F160913802709136
:100D9000390280913A0290913B0220E030E040E03D
:100DA00050EC0E94CF21882309F1609138027091A4
:100DB000390280913A0290913B02A70196010E946C
:100DC0006A214B015C0120E030E040E054E3C701C0
:100DD000B6010E9411239B01AC01C501B4010E9420
:100DE000CF21881F8827881F80935603FF90EF909C
:100DF000DF90CF90BF90AF909F908F907F906F903B
:100E00005F904F90089560E070E0CB019ECFCF924D
:100E1000DF92EF92FF926B017C015FDF20E034E212
:100E200044E759E4C701B6010E94112320E030E0F5
:100E300040E05FE30E946B2120E030E040E85FE4A7
:100E40000E9443220E94D321FF90EF90DF90CF9029
:100E50000895CF93DF9300D01F92CDB7DEB71C82E9
:100E60001B821A821982BE016F5F7F4FCE010396EB
:100E70000E94AE1F69817A818B819C810E946C19CE
:100E8000009761F4BE016F5F7F4FCE0103960E9411
:100E9000BA1F69817A818B819C81CDD40F900F908C
:100EA0000F900F90DF91CF910895FF920F931F93B2
:100EB000CF93DF93082F60E070E0CB010E94EF2317
:100EC000FF24F3940E945718EC01892B89F010E05D
:100ED000CE3F8FEFD80769F0002361F160E070E04A
:100EE000CB010E94EF2381E090E0892B59F322C0CF
:100EF00011E0C4D4EC01892B21F0CE3F8FEFD8074D
:100F000059F711111EC011E0229609F410E00E9459
:100F10000918EC01892B21F0CE3F8FEFD807E1F6BD
:100F2000111111C011E0CE3F8FEFD80709F410E086
:100F300001110BC0CE01DF91CF911F910F91FF9056
:100F4000089511E0E4CF11E0F3CF60E070E0CB0151
:100F50000E94EF231F25812F90E0C7CFCF93DF930F
:100F600081E090E090933D0280933C02BDD5D0E0BB
:100F7000C0E0892B71F06AE070E080E090E00E94B0
:100F8000EF2381E092DFB0D52196C03D27E0D20764
:100F900081F7AFD50E94C01910926C0310926B03B9
:100FA00010923D0210923C02109267031092680367
:100FB0001092690310926A03109263031092640303
:100FC000109265031092660310925F031092600303
:100FD000109261031092620310925B0310925C0303
:100FE00010925D0310925E03109257031092580303
:100FF0001092590310925A0340E050E060E070EC08
:10100000409338025093390260933A0270933B0246
:1010100010925603EEE4F3E028E0DF011D922A95DA
:10102000E9F7DF91CF91089510927603109277033C
:1010300010927803109279031092750380917E03C9
:1010400090917F03909374038093730310927203C3
:101050001092710310926D0310926E0310926F0341
:101060001092700310927B0310927A0390E080E05C
:101070000895CF92DF92EF92FF920F931F93CF9339
:101080008C01892B09F055C020917E0330917F039C
:10109000809173039091740340917E0350917F037C
:1010A00050937403409373032817390781F010920B
:1010B00072031092710310926D0310926E031092DE
:1010C0006F031092700310927B0310927A03809149
:1010D0007E0390917F03019761F580917A0390914F
:1010E0007B03892B21F480913E02811112C08091F3
:1010F0007A0390917B030197E1F480916D039091C5
:101100006E03A0916F03B09170030197A105B10523
:1011100081F410926D0310926E0310926F0310927F
:10112000700310923E0282E090E090937B038093E4
:101130007A0380917E0390917F03019709F01CC18F
:1011400080919403909195038017910709F014C141
:101150008091900390919103A0919203B091930399
:10116000009709F409C120918F0321110DC040910E
:101170009003509191036091920370919303452BDA
:10118000462B472B09F4F8C020917A0330917B035A
:101190002230310509F0F0C0209171032111ECC01B
:1011A000FC01C080D180E280F380809175038823A8
:1011B00009F4D3C08091810390918203892B09F4B3
:1011C000FDC0209181033091820381E022303105FE
:1011D00009F080E02091810330918203C1E0213049
:1011E000310549F02091810330918203C1E0223022
:1011F000310509F0C0E0882309F456C020918B0323
:1012000030918C0340918D0350918E03C701B6013C
:101210000E940D2387FD14C020918B0330918C0315
:1012200040918D0350918E03609176037091770306
:1012300080917803909179030E94CF2187FD22C08D
:1012400020918B0330918C0340918D0350918E033C
:10125000C701B6010E940D23181634F520918B03A7
:1012600030918C0340918D0350918E0360917603F1
:101270007091770380917803909179030E94CF2138
:10128000811112C08091830390918403A091850302
:10129000B0918603892B8A2B8B2B19F481E08093E4
:1012A000720381E080937103CC2309F456C020912E
:1012B0008B0330918C0340918D0350918E03C701B5
:1012C000B6010E94CF2187FF14C020918B0330917B
:1012D0008C0340918D0350918E0360917603709141
:1012E000770380917803909179030E940D2387FF03
:1012F00022C020918B0330918C0340918D0350913B
:101300008E03C701B6010E94CF21811126C0209112
:101310008B0330918C0340918D0350918E0360912B
:1013200076037091770380917803909179030E94FE
:101330000D23181694F48091830390918403A09157
:101340008503B0918603892B8A2B8B2B19F481E0BE
:101350008093720381E08093710381E09091710327
:10136000911180E080937503C0927603D092770349
:10137000E0927803F0927903012B09F09BC08091F1
:101380007A0390917B03892BD9F4109280031092F9
:10139000710380913E02882379F082E090E090937F
:1013A0007B0380937A0310923E0220917E0330915A
:1013B0007F0381E0232BE9F080E01BC081E00ACFAE
:1013C00010923E0280918003882349F010927203AC
:1013D00010927B0310927A0310928003EDCF8091DC
:1013E0007E0390917F03892BE1F08091710310922D
:1013F000710320917A0330917B032230310509F487
:1014000063C088F42115310509F448C02130310545
:1014100009F4F8C0109272031092710310928003C5
:1014200038C081E0E6CF2330310509F4B6C024305E
:10143000310581F740916D0350916E0360916F0308
:1014400070917003411551056105710561F04150BE
:1014500051096109710940936D0350936E036093C4
:101460006F037093700340916D0350916E03609110
:101470006F0370917003452B462B472BD9F42091B5
:101480007C0330917D032130310509F04BC010926F
:10149000720310927B0310927A030CC080913E027B
:1014A000882341F082E090E090937B0380937A035D
:1014B00010923E0280917203CF911F910F91FF9085
:1014C000EF90DF90CF9008958823A1F3809183035C
:1014D00090918403A0918503B09186031816190694
:1014E0001A061B060CF07DC080917E0390917F034D
:1014F000019709F076C08091830390918403A091B5
:101500008503B091860380936D0390936E03A0933F
:101510006F03B093700383E090E090937B0380931C
:101520007A03C8CF40918703509188036091890363
:1015300070918A03452B462B472BA9F0109272031A
:101540008091870390918803A0918903B0918A03C9
:1015500080936D0390936E03A0936F03B093700319
:1015600081E090E0DACF882399F080913F0290915A
:101570004002A0914102B091420280936D0390938A
:101580006E03A0936F03B093700384E090E0C5CF27
:101590001092720382E090E0C0CF80916D03909131
:1015A0006E03A0916F03B09170030097A105B10580
:1015B00059F00197A109B10980936D0390936E03CF
:1015C000A0936F03B093700380916D0390916E03AD
:1015D000A0916F03B0917003892B8A2B8B2B09F09C
:1015E00069CF80913F0290914002A0914102B09159
:1015F0004202892B8A2B8B2B09F449CF81E08093FF
:101600007203B3CF40916D0350916E0360916F03ED
:1016100070917003411551056105710561F04150EC
:1016200051096109710940936D0350936E036093F2
:101630006F037093700340916D0350916E0360913E
:101640006F0370917003452B462B472B09F032CF67
:101650008111C7CF9FCF109276031092770310921B
:101660007803109279031092750310927B03109205
:101670007A031092740310927303109295031092E0
:101680009403109272031092710310926D031092E2
:101690006E0310926F0310927003109290031092D9
:1016A0009103109292031092930310928F03109261
:1016B0008B0310928C0310928D0310928E0388EE90
:1016C00093E0A0E0B0E080933F0290934002A093AB
:1016D0004102B09342021092870310928803109245
:1016E000890310928A03109283031092840310924C
:1016F000850310928603109282031092810381E089
:1017000080933E021092800310927F0310927E031A
:1017100010927D0310927C0390E080E0089582E0B7
:1017200090E0FA01918380838FEF9FEF0895CF932C
:10173000DF93EA01009711F00E94CB1A19821882F8
:1017400090E080E0DF91CF910895DB01009719F4DC
:101750008FEF8C9308952EEF2C93FC013C96EB3089
:10176000F105C8F48827E854F44F8F4F0C9468298A
:10177000DC0BDA0BD60BD80BD40BD20BD00BCD0B6A
:10178000C70BC30BC90B80E311968C93089589E2B4
:10179000FBCF82E2F9CF80E2F7CF11961C92089539
:1017A00083E2F2CF81E2F0CF81E1EECF87E2ECCFAE
:1017B0008AE2EACF80E1E8CF84E2E6CF8091A2031B
:1017C0009091A30308959093A3038093A203089597
:1017D0008091A10308959091A103892B8093A10387
:1017E0000895982F90958091A10389238093A10358
:1017F00008958091A003089580919E0390919F0386
:1018000008956115710559F0FB0130E020E070E0AA
:1018100060E02417350719F06115710511F0CB014F
:101820000895A081B181A817B90709F4BF012F5FFE
:101830003F4F3696EECF8091A40381111CC027D272
:101840002DD290939703809396030E94AC140E942C
:10185000BE1490939B0380939A030E9476170E9474
:101860007D17909399038093980381E08093A4035C
:1018700090E080E0089584EF9FEF08958F929F920B
:10188000AF92BF92CF92DF92EF92FF920F931F938E
:10189000CF93DF9300D000D000D01F92CDB7DEB73A
:1018A0001A86198618861F821E821D821C821B8240
:1018B0001A8219828091A40307EF1FEF882309F48D
:1018C00089C08E010D5F1F4F9E012B5F3F4FAE0100
:1018D000495F5F4FBE01675F7F4F90E080E00E94ED
:1018E000F1188C01009721F00596029708F0C5C009
:1018F00089859A85009709F4EDC0ED80FE802B81E3
:101900003C812E0D3F1D4F8158854217530708F427
:10191000E1C0E80EF91ED7014C912091A20330914D
:10192000A303232B09F492C0413F08F067C08CE168
:10193000840F8D3008F481C08DE2840F803108F46B
:101940007FC088E3840F8B3008F47DC095EAC92EF0
:101950009BE0D92EEFE8FBE06D817E81AE014F5F09
:101960005F4F89859A8519955C01C114D10491F165
:1019700089809A808114910469F18B819C818815FA
:10198000990508F482C010E000E04B815C8170E0B2
:1019900060E0C7010E94792901151105D9F4498138
:1019A0005A8169857A858D819E81680F791FC5016D
:1019B000F601199509811A812D813E814F81588543
:1019C00069857A8581E090E00E948E188C01892BD0
:1019D00009F053C0C8012A960FB6F894DEBF0FBEB7
:1019E000CDBFDF91CF911F910F91FF90EF90DF90CE
:1019F000CF90BF90AF909F908F90089530E020E0FF
:101A0000220F331FF901EA56FC4F0190F081E02DBF
:101A1000309709F49BCF842F90E01995009709F433
:101A200095CFDC011296ED91FC9113971496CD9011
:101A3000DC90309709F090CF1EC021E030E0E0CF7D
:101A400022E030E0DDCF23E030E0DACFD12CC12C32
:101A5000E7E9FBE04F3F09F07FCFE0919603F0917B
:101A60009703309719F404EF1FEF0CC08FEF90E04D
:101A700019950097B1F604EF1FEF89859A850097B5
:101A800009F4A8CF0E94CB1AA5CF0E94BB198C01E4
:101A900089859A850E94CB1A70E060E0C4010E949B
:101AA000541998878F830E948B189E838D836F8132
:101AB00078856115710559F0C8010E94FE1B9A874F
:101AC000898706EF1FEF892B09F05DCF5ECF08EF06
:101AD0001FEF5BCF08EF1FEFD0CF2091A4032111A0
:101AE00052C787EF9FEF08958091A2039091A303BF
:101AF00008950E9482170E94EF16D5D0E6E9F3E020
:101B000088E0DF011D928A95E9F71092A40390E026
:101B100080E0089586E090E0FA019183808390E070
:101B200080E0089547E050E063E472E06ACEFF92FF
:101B30000F931F93CF93DF938A01EC01C60FD71F3A
:101B4000F9800E94A319F816190668F082E090E067
:101B5000F801918380838EEF9FEFDF91CF911F91EA
:101B60000F91FF90089589818093A70390E00196DB
:101B7000F8019183808390E080E0EFCFCF93DF93F3
:101B8000EA010E94B01982E090E0998388838BEF8C
:101B90009FEFDF91CF910895CF93DF93EB0186E024
:101BA000FB0111928A95E9F78FEF888311DE898313
:101BB00020DE8A8321DE9D838C83DF91CF9108957F
:101BC000CF93DF93EA010E941616811109C082E0CB
:101BD00090E09983888385EF9FEFDF91CF910895FF
:101BE00090E080E0F0DD81E090E09983888390E0F0
:101BF00080E0F3CF0F931F93CF93DF93EA018C0123
:101C0000060F171F0E94161681110BC082E090E08C
:101C10009983888385EF9FEFDF91CF911F910F917B
:101C20000895F8018181823038F082E090E0998354
:101C300088838EEF9FEFF0CF81E090E0C4DD88E0F5
:101C400090E09983888390E080E0E6CFCF93DF93A4
:101C50000097D1F4EB01FB01329686E0DF011D9283
:101C60008A95E9F78FEF888385E089831A820E943D
:101C7000A3198B830E94A2199D838C8381E08E839C
:101C80008F83DF91CF910895DF91CF915ECD82E96F
:101C90009DE09093A6038093A50308958091A503EA
:101CA0009091A60308951092A6031092A50308959B
:101CB0008091A8039091A9030895411105C0611571
:101CC00071058105910561F06093A8037093A903E4
:101CD0008093AA039093AB034093AC0381E00895F3
:101CE00080E00895FF920F931F93CF93DF938A01B3
:101CF000EC01C60FD71FF9800E94A319F816190628
:101D000068F082E090E0F801918380838EEF9FEF8E
:101D1000DF91CF911F910F91FF9008956C817D818C
:101D20008E819F814B81C9DF811108C082E090E0E4
:101D3000F8019183808384EF9FEFEACF89818093BC
:101D4000A70390E00196F8019183808390E080E002
:101D5000DFCFCF93DF93EA01FC01E60FF71F648129
:101D60007581868197814381A8DF811109C082E056
:101D700090E09983888384EF9FEFDF91CF9108955E
:101D800081E090E09983888390E080E0F6CFE8EAF4
:101D9000F3E04081518162817381480F511D611DC3
:101DA000711D40835183628373830895CF93209183
:101DB000A8033091A9034FEFFC01408321153105A1
:101DC00089F0C091A7034C2F50E0FA013196E61735
:101DD000F70741F4B90101960E9470298C2FD7DFD3
:101DE0001092A703CF9108959B01009719F4BA01AF
:101DF000C901DCCFAACC9B01009719F4BA01C90133
:101E0000D5CFA3CC2DE0AC01249FC001259F900D20
:101E10001124E091B103F091B203E80FF91F23817F
:101E200034812250310981E02230310508F080E010
:101E300008950F931F93CF93DF930091B3031091F5
:101E4000B403D0E0C0E080E00C171D0749F491E036
:101E5000811190E0892FDF91CF911F910F9108950B
:101E60008111F5CFCE01CEDF2196EECFA091B10347
:101E7000B091B203109729F12091B3033091B403CC
:101E800082179307F0F45DE0589F9001599F300D41
:101E90001124A20FB31FED91FC911197309789F097
:101EA00012968C91681768F485E0689FE00DF11D2B
:101EB000112480819181892B21F081E09281491741
:101EC00008F080E00895EF92FF920F931F93CF9355
:101ED000DF93EA01FC01E60FF71F02811381E48022
:101EE000F5804F2D6E2DC801C1DF81110DC082E03C
:101EF00090E0998388838EEF9FEFDF91CF911F91C0
:101F00000F91FF90EF900895C8017CDF882339F08E
:101F100082E090E09983888388EF9FEFEECF109363
:101F2000B0020093AF02E092B102F092B20281E0FF
:101F300090E09983888390E080E0DFCFCF92DF92BA
:101F4000EF92FF920F931F93CF93DF937A01EC01EF
:101F5000C60FD71FC090AF02D090B0020091B1025F
:101F60001091B202412F602FC60180DF811110C095
:101F700082E090E0F701918380838AEF9FEFDF9109
:101F8000CF911F910F91FF90EF90DF90CF90089528
:101F9000C60138DF882341F082E090E0F7019183A9
:101FA000808388EF9FEFEBCF4C815D816E817F81D5
:101FB0009A8189818F3F41F082E090E0F70191831F
:101FC00080838EEF9FEFDBCFEDE0EC9D9001ED9DE8
:101FD000300D1124E091B103F091B203E20FF31F31
:101FE0000190F081E02D25E0029FE00DF11D11240C
:101FF0000190F081E02D27E0129FE00DF11D1124EA
:10200000808391838B81828343835483658376832A
:102010001F5F1093B20281E090E0F701918380830B
:1020200090E080E0ACCFEF92FF920F931F93CF939D
:10203000DF937A018C01060F171FC091B103D09175
:10204000B203209781F021E030E0F8018281938192
:102050004091B3035091B4038417950710F030E01A
:1020600020E0232B71F482E090E0F70191838083DC
:102070008EEF9FEFDF91CF911F910F91FF90EF9027
:1020800008954DE0489F9001499F300D1124C20FE3
:10209000D31FB8DE882341F082E090E0F7019183FE
:1020A000808388EF9FEFE6CFF801248135812038C7
:1020B0003105C8F687818111D6CF4181842F90E008
:1020C0008F7E009741F082E090E0F701918380835A
:1020D00086EF9FEFCFCF4F833E832D8326812887C6
:1020E0001986223010F421E0288721E030E0F70142
:1020F00031832083BFCF88E090E0FA019183808311
:1021000090E080E00895FB018FEF808381E181837F
:102110008FEF9FEF9383828380E890E095838483A1
:10212000168217820895FB018FEF808391E09183DF
:1021300082839383848384E3858381E090E0978323
:10214000868308954BE050E06DE672E05ACB8F92A3
:102150009F92BF92CF92DF92EF92FF920F931F93C5
:10216000CF93DF93EA01FC01E60FF71F8281938191
:102170000481B580E091B103F091B203309791F4FE
:1021800082E090E0998388838CEF9FEFDF91CF917D
:102190001F910F91FF90EF90DF90CF90BF909F9095
:1021A0008F9008952091B3033091B4038217930761
:1021B00038F082E090E0998388838EEF9FEFE6CF3E
:1021C0002DE0289F6001299FD00C1124EC0DFD1DEE
:1021D000E080F180E114F10499F28281081748F758
:1021E00085E0089F80011124E00EF11EF701808137
:1021F0009181892B29F6F7E0BF9E40011124C4018B
:102200000E947E1AF70191838083E091B103F091DF
:10221000B203EC0DFD1D0190F081E02DE00FF11FE8
:1022200080819181009739F482E090E099838883DE
:102230008DEF9FEFABCFA40170E060E00E947929A1
:102240008091B1039091B203C80ED91EF60180812E
:102250009181080F191FF801B28281E090E0998303
:10226000888390E080E092CFBF92CF92DF92EF928E
:10227000FF920F931F93CF93DF93EA01FC01E60FC8
:10228000F71F82819381B4800091B1031091B20352
:102290000115110581F482E090E0998388838CEF29
:1022A0009FEFDF91CF911F910F91FF90EF90DF9003
:1022B000CF90BF9008952091B3033091B40382175B
:1022C000930738F082E090E0998388838EEF9FEF48
:1022D000E8CF2DE0289F7001299FF00C11240E0DEE
:1022E0001F1DF80180819181892BA9F6F5E0BF9E21
:1022F00060011124C6010E947E1AF8019183808337
:10230000E091B103F091B203EE0DFF1D8081918148
:10231000009739F482E090E0998388838DEF9FEFF6
:10232000C0CFA60170E060E00E947929E091B1037E
:10233000F091B203EE0DFF1DB28281E090E099832F
:10234000888390E080E0ADCFCF92DF92EF92FF9252
:102350000F931F93CF93DF93860F971FFC01E280AB
:10236000F3808091B1039091B203892B81F082E0D8
:1023700090E0FA01918380838CEF9FEFDF91CF9102
:102380001F910F91FF90EF90DF90CF9008958A01F9
:102390008DE08E9D60018F9DD00C1124C6010E949E
:1023A0007E1AEC01009741F482E090E0F8019183FD
:1023B00080838DEF9FEFE2CFA60170E060E00E9486
:1023C0007929D093B203C093B103F092B403E092A1
:1023D000B30390E080E02FEF3FEF8E159F0541F4AF
:1023E00081E090E0F8019183808390E080E0C6CFA7
:1023F0003C872B8701962D96F0CFCF92DF92EF92FC
:10240000FF920F931F93CF93DF93EC01D12CC12C3C
:1024100010E000E0F12CE12C8A818017110609F010
:10242000BCF4AE01455F5F4F63E070E0C7010E94FE
:10243000E91A009721F02FEF3FEF3C872B87DF91C0
:10244000CF911F910F91FF90EF90DF90CF90089563
:10245000E881F981EC0DFD1D838194810115110541
:1024600071F0019661E070E01FD7E816F90608F4F4
:102470007C010F5F1F4F85E0C80ED11CCDCF0596A4
:10248000F1CF8F929F92AF92BF92CF92DF92EF9255
:10249000FF920F931F93CF93DF93EA01FC01E60FA6
:1024A000F71F8181833098F082E090E099838883E0
:1024B00086EF9FEFDF91CF911F910F91FF90EF90EB
:1024C000DF90CF90BF90AF909F908F9008958091B4
:1024D000B1039091B203892B61F081E090E02091EB
:1024E000B3033091B403232B11F490E080E0892BE7
:1024F00039F482E090E0998388838EEF9FEFDACF02
:10250000F8948091AF039091B003892B09F4A4C093
:10251000789482E090E09983888385EF9FEFCACF1B
:1025200063817481672B11F03483238301963D9678
:1025300048175907A9F781E090E045D980E451D9BF
:1025400083C08091B1039091B203800F911FFC0171
:10255000438154814230510571F4F5E0CF16D10426
:10256000E104F10444F4FC01438554854F3F5F4F7F
:1025700011F443DF9C014FEFC41AD40AE40AF40AB1
:10258000035F1F4F8091B3039091B403B0E0A0E0CC
:10259000C816D906EA06FB06B4F42115310589F2FE
:1025A0007894232B09F451C082E090E099838883CA
:1025B0008DEF9FEF7FCF10E000E030E020E0C12CF6
:1025C000D12C7601DFCF2115310551F710E000E065
:1025D000812C912C540183E0E82EF12C18C0E0915D
:1025E000B103F091B203E00FF11F83819481029750
:1025F00039F4F482E38282E090E0E5D880E4EBD81D
:102600006FEF861A960AA60AB60A035F1F4F8091DB
:10261000B3039091B403B0E0A0E088169906AA062F
:10262000BB06ECF230E020E0BBCF63817481623006
:10263000710511F43483238301963D964817590799
:10264000A1F7F7DB811177CF789481E090E099834F
:10265000888390E080E02ECF8181813009F4ABCF78
:1026600078F0823089F74091B3035091B403E09140
:10267000B103F091B20390E080E021E030E0DECFE2
:102680004091B3035091B403E091B103F091B203D0
:1026900090E080E021E030E04BCF4F925F926F926C
:1026A0007F928F929F92AF92BF92CF92DF92EF92E2
:1026B000FF920F931F93CF93DF933C01660E771E1B
:1026C000F301C280D380C091B103D091B2032097AF
:1026D00041F091E02091B3033091B403C216D306C8
:1026E00008F090E0911118C082E090E0FA01918327
:1026F00080838EEF9FEFDF91CF911F910F91FF901D
:10270000EF90DF90CF90BF90AF909F908F907F9091
:102710006F905F904F9008958DE08C9D90018D9DFE
:10272000300D1124C20FD31FF3018181833040F09B
:1027300082E090E0FA019183808386EF9FEFDBCF08
:102740002A012B813C81232BF1F4288139814F818F
:1027500041FF34C0232B09F48AC03091B6032A818B
:10276000432F420F5527551FBA0141E050E0603812
:10277000710514F050E040E0452B09F478C03A8729
:10278000230F2093B6038150823008F47FC0F89461
:102790008091AF039091B003892B09F07CC0F301C5
:1027A0008181813009F491C008F47EC0823009F043
:1027B00089C082E090E09C838B8384C0232B09F442
:1027C00056C03091B5032A81E32FE20FFF27FF1F88
:1027D00041E050E0E038F10514F050E040E0452BD6
:1027E00009F445C03A87230F2093B503CCCFA881C5
:1027F000B981A00FB11FED91FC9111973097B9F1FC
:1028000021E030E012968C91811102C030E020E08E
:10281000232B69F190E0F12CE12C30E020E0281727
:1028200039076CF14701F5E08F0E911C8BD59C01A7
:1028300091E02815390508F490E0A8014B5F5F4F3F
:1028400028153905A0F028813981020F131FF801DE
:10285000F482E382FFEFAF1ABF0A8A018A818A15E8
:102860001B0409F00CF493CF9111C1CF90CF82E0FB
:1028700090E0F2019183808387EF9FEF3CCF41810D
:10288000E40EF11C2F5F3F4F3796C9CF10E000E0F8
:10289000B12CA12CE3CF789482E090E0F2019183F7
:1028A000808385EF9FEF27CF81E090E09C838B832F
:1028B000C0DA882339F081E090E00E94E30B80E4E5
:1028C0000E94F10B90E080E018C0F5E0CF16D10433
:1028D00060F083E090E09C838B8382E090E00E9434
:1028E000E30B80E40E94EB0BEDCF8B859C8501967A
:1028F00081F7CE0182DD009761F3789422E030E029
:10290000F20131832083892B19F08DEF9FEFF3CEF5
:1029100090E080E0F0CE0097A9F4FB0122813381A2
:102920008FEF80834DE0429FC001439F900D1124A3
:10293000E091B103F091B203E80FF91F8285FB012A
:10294000818308950C94A50B88E090E0FA019183AF
:10295000808390E080E008951092B0031092AF035E
:10296000E1EBF3E086E0DF011D928A95E9F782EA68
:1029700090E19093AE038093AD0308958091AD03F1
:102980009091AE0308952F923F924F925F926F9273
:102990007F928F929F92AF92BF92CF92DF92EF92EF
:1029A000FF920F931F93CF93DF93CDB7DEB72F978F
:1029B0000FB6F894DEBF0FBECDBFF8942091AF03E1
:1029C0003091B0032F5F3F4F3093B0032093AF039C
:1029D00078942091B1033091B2033B832A83232B57
:1029E00009F421C12091B3033091B403232B09F4DE
:1029F0001AC14A875B876C877D87998788878A8118
:102A00009B819F878E87512C412C198210E000E01A
:102A10008091B3039091B4034816590618F4398194
:102A2000332329F1F8948091AF039091B00301977B
:102A30009093B0038093AF037894C8012F960FB69C
:102A4000F894DEBF0FBECDBFDF91CF911F910F91E4
:102A5000FF90EF90DF90CF90BF90AF909F908F90BE
:102A60007F906F905F904F903F902F900895AE852C
:102A7000BF8517968C91179781FD83C013968D9112
:102A80009C911497039709F07CC015968D919C91A9
:102A9000E885F9858E179F0709F073C0312C212C2A
:102AA000F12CE12C62C037D39F838E8310E0E114B8
:102AB000F10431F4AE85BF8517961C911295117003
:102AC000AE85BF85ED91FC91E20DF31D63807480AE
:102AD000111161C0BFEF6B1A7B0A61E070E0C301A6
:102AE000E3D35C01AE85BF851B968D919C918F3F92
:102AF000980709F454C0B50181D66C01009709F418
:102B00008DC0EE81FF81E80FF91FAE85BF851A9653
:102B10008C918E0D8083111145C08F010F5F1F4F67
:102B20001D821C821B821A82AE85BF85ED91FC91AD
:102B3000E20DF31D82812A813B818217130611F079
:102B40000CF03CC083012E813F81A501B60190E0CD
:102B500080E0E4D28C01892B11F0C6011CD58FEFE7
:102B6000E81AF80A95E0290E311CAE85BF85129649
:102B70008C918E151F0429F024F0B981BB2309F430
:102B800092CFEFEF4E1A5E0A2E853F85235F3F4FAF
:102B90003F872E873DCFE5E06E0E711C9ECFC501AD
:102BA000ADD4ABCF8A859B85AC85BD85818392836F
:102BB000A383B4838F010B5F1F4FB2CF80809180BE
:102BC000AC81BD818A0E9B1EF4016381748180817A
:102BD0008F3FF1F021E030E001C0220F8A95EAF743
:102BE000DB018C91822391E009F490E0F80190835D
:102BF000F4018181080F111D2A813B812F5F3F4F16
:102C00003B832A838C819D8107969D838C838CCF07
:102C1000418150E0C8010E947029EACF31E0398338
:102C200006EF1FEF9CCF10E000E0FCCE2F923F920A
:102C30004F925F926F927F929F92AF92BF92CF928C
:102C4000DF92EF92FF920F931F93CF93DF9300D009
:102C500000D0CDB7DEB70091B1031091B203992433
:102C6000939401151105A9F0A090B303B090B4039B
:102C7000F8948091AF039091B003992493940097B6
:102C800009F0912C892B09F472C0789480E40E9499
:102C9000F10B892D26960FB6F894DEBF0FBECDBF7F
:102CA000DF91CF911F910F91FF90EF90DF90CF9028
:102CB000BF90AF909F907F906F905F904F903F90AC
:102CC0002F90089525E0C216D104E104F1046CF4BC
:102CD000AD81BE811B968D919C918F3F980709F025
:102CE00010D5ED81FE8134862386AD81BE818D9124
:102CF0009C91B12CA12C412C512C3201892B31F506
:102D0000BFEFCB1ADB0AEB0AFB0AED81FE813D9691
:102D1000FE83ED8389819A81AB81BC81C816D90677
:102D2000EA06FB067CF2C80136D4B0CF8A0D9B1DA3
:102D3000FC0180819181009709F02DD4FFEF4F1A9B
:102D40005F0A6F0A7F0A25E0A20EB11CAD81BE8129
:102D50008D919C91119712964C9150E070E060E03B
:102D600044165506660677060CF315D4C9CF1092A3
:102D7000B2031092B1031092B4031092B3031092F5
:102D8000B5031092B6037894DFD21E830D83C12C55
:102D9000D12C7601C501B0E0A0E089839A83AB8392
:102DA000BC8322242A94322CB5CFCF93DF93EA013F
:102DB0003DDF811109C082E090E09983888385EF2F
:102DC0009FEFDF91CF91089581E090E00E94E30BA7
:102DD00081E090E09983888390E080E0F2CF26DF65
:102DE0001092AE031092AD03089542E050E063EB01
:102DF00072E00C94010CFF920F931F93CF93DF931B
:102E00008A01EC01C60FD71FF9809DD20897F816EA
:102E1000190671F068F082E090E0F80191838083F8
:102E20008EEF9FEFDF91CF911F910F91FF9008954B
:102E30006C817D818E819F814B810E945D0E81110D
:102E400008C082E090E0F8019183808384EF9FEFD7
:102E5000E9CF0E94580E498150E0BE01685F7F4F64
:102E60000E94702989810E94C70E81E090E0F801DC
:102E70009183808390E080E0D5CFFF920F931F93E2
:102E8000CF93DF938A01EC01C60FD71FF9805BD285
:102E9000FF2059F0029721E030E0F816190619F0EA
:102EA00010F030E020E0232B69F482E090E0F8019C
:102EB000918380838EEF9FEFDF91CF911F910F91D0
:102EC000FF9008950E94580E498150E0BE016E5F48
:102ED0007F4F0E94702989810E94C70E81E090E097
:102EE000F8019183808390E080E0E6CF85EF96E162
:102EF0009093B8038093B70308958091B70390919E
:102F0000B80308950895FC0111821082938382838F
:102F10000895DB011D921C92DC011296ED91FC914B
:102F200013977183608313967C936E931297089521
:102F3000FC0180819181DB018D939C93A081B18103
:102F4000109741F08D919C9191838083892B11F48E
:102F5000F383E2830895FC0180819181DB018D93ED
:102F60009C93892B11F4738362837183608308952A
:102F7000FC0111821082938382830895CF93DF93A3
:102F80001F921F92CDB7DEB71A821982F894BE0144
:102F90006F5F7F4F8EEB93E0CBDF89819A81009743
:102FA00009F0F9D289819A81892B89F7BE016F5F77
:102FB0007F4F82EC93E0BCDF89819A81009709F012
:102FC000EAD289819A81892B89F778940F900F90A2
:102FD000DF91CF910895CF93DF931F921F92CDB7CA
:102FE000DEB71A821982F894BE016F5F7F4F8AEBB9
:102FF00093E09EDF89819A81009709F0CCD2898184
:103000009A81892B89F778940F900F90DF91CF9157
:103010000895EF92FF920F931F93CF93DF931F9228
:103020001F92CDB7DEB71A8219828091B90307EFDC
:103030001FEF882391F1F894BE016F5F7F4F82EC00
:1030400093E076DF89819A81EE24E394F12C892B39
:1030500041F4BE016F5F7F4F8EEB93E069DFF12C8F
:10306000E12C789489819A810EEF1FEF0097A9F0E7
:10307000FC014281538164E070E0A4D58C01892B6E
:1030800061F0F89469817A81C701880F991F880FD0
:10309000991F82549C4F5FDF7894C8010F900F9066
:1030A000DF91CF911F910F91FF90EF9008950F93B3
:1030B0001F93CF93DF9300D01F92CDB7DEB71C8252
:1030C0001B821A8219828091B90307EF1FEF8823B0
:1030D000C1F0AE014D5F5F4F64E070E0CE0101963C
:1030E000E4D58C01892B69F4E981FA818B819C817B
:1030F00093838283F89469817A818AEB93E009DF74
:103100007894C8010F900F900F900F90DF91CF919E
:103110001F910F910895E9D6049608958F929F927A
:10312000AF92BF92CF92DF92EF92FF920F931F93D5
:10313000CF93DF931F921F92CDB7DEB71A82198209
:103140008230910598F0CC24CA94DC2CC6010F90F3
:103150000F90DF91CF911F910F91FF90EF90DF9033
:10316000CF90BF90AF909F908F900895611571059B
:1031700051F3580149016A018B017C01CCDF8815AC
:10318000990509F7A114B104F1F28A0D9B1DC81627
:10319000D906C8F28091B9038823F1F0F894B601FA
:1031A000645071099501AE014F5F5F4FC8010496ED
:1031B00011D66C01892B71F489819A81F80193836E
:1031C0008283C701880F991F880F991FB801825405
:1031D0009C4F9FDE7894BACF87EFC82EDD24DA9417
:1031E000B5CFAF92BF92CF92DF92EF92FF920F9343
:1031F0001F93CF93DF931F921F92CDB7DEB71A8232
:103200001982892B09F047C06115710509F443C083
:103210004115510509F43FC02115310509F43BC0A2
:1032200001151105C1F18091B9038823B9F1790124
:103230006A015B01F894BE016F5F7F4F8AEB93E0F8
:1032400077DE789489819A81009759F1DC01129692
:103250006D917C91A8010496D6D58C01E981FA8103
:10326000D501ED93FC93828193810496F6019183BD
:10327000808351DFD7018D939C93C8010F900F90ED
:10328000DF91CF911F910F91FF90EF90DF90CF9042
:10329000BF90AF9008950FEF1FEFEFCF07EF1FEF35
:1032A000ECCF0EEF1FEFE9CFCF93DF93EC01672B4D
:1032B00071F424D68C179D0760F017D62496C80F9A
:1032C000D91F16D68C0F9D1FDF91CF91089513D66D
:1032D000F1CF90E080E0F8CF0F931F93CF93DF936F
:1032E0002091B90321112BC08B01EC018EEB93E0EF
:1032F0000ADE82EC93E007DE8AEB93E004DE86D000
:103300000097C1F4FBD570E060E0CEDF4FEB52E0F8
:1033100062E070E05ED1009769F48091BF02909105
:10332000C002FED5B801CE0133D4009719F421E0D4
:103330002093B903DF91CF911F910F91089584EFEE
:103340009FEFF8CFD8C5DAC5CF93DF93DAD5EC017C
:10335000892B11F413DE3FDECE01DF91CF9108956A
:10336000CF93DF93CED5EC01892B09F407DECE0194
:10337000DF91CF9108958091BF029091C00208958E
:10338000CF93DF938091B903D0E0C0E08823D1F0E0
:10339000CCD5EC01892BB1F4F1DD1DDE8091BF02AB
:1033A0009091C002AED164D2EC01892B59F48EEB1E
:1033B00093E0DEDD82EC93E0DBDD8AEB93E0D8DDA9
:1033C0001092B903CE01DF91CF910895CF93DF938F
:1033D0000097A1F4DF91CF910895EC011A82198230
:1033E000A883309711F0928381832F5F3F4FFC01B8
:1033F000860F971F4217530781F7ECCF30E020E08C
:10340000F0E0E0E0AFEF6F5F7F4FF4CFAF92BF929D
:10341000CF92DF92EF92FF920F931F93CF93DF93A0
:1034200080E49CE07C012CEFE2228CEDC82E82E04F
:10343000D82E92EEA92E92E0B92ECBECD3E18E01DC
:10344000D6014D915D916D01F501619171915F0121
:10345000D8011196FC92EE9215965C934E931497B8
:1034600013965C934E93129717967C936E931697D0
:103470009B012F5F3F4F249FC001259F900D349FDC
:10348000900D112419969C938E931897C7019EDF77
:10349000F80180859185E80EF91E065F1F4FF2EE58
:1034A000CF16F2E0DF0661F6E8ECF3E085E798E09E
:1034B000DF019C011D9221503040E1F71092C703BB
:1034C0001092C6031F8E1E8E1BA21AA219A218A24A
:1034D0001DA21CA21FA21EA22A9634E1C730D30748
:1034E00089F790E080E0DF91CF911F910F91FF90DD
:1034F000EF90DF90CF90BF90AF900895F894813215
:10350000910550F48091CD139091CE13892B39F011
:1035100020E090E080E019C0813A910550F480915C
:10352000D7139091D813892B39F021E081E090E0F6
:103530000CC081349140A8F48091E1139091E21382
:10354000892B79F022E082E090E0EAE0E89FD00168
:10355000E99FB00D1124A553BC4E8D919C9100970D
:1035600021F4789490E080E00895E29FF001112426
:10357000E553FC4EDC0111964D915C9151834083E3
:10358000428153814150510953834283FC0121936D
:10359000CF01789408950097D9F0DC01EE91E930DD
:1035A000B8F4F8948FEF8C938AE0E89FF00111242F
:1035B000E553FC4E8081918112969C938E931197D6
:1035C000B183A083828193810196938382837894CF
:1035D0000895CF92DF92EF92FF920F931F93CF93B4
:1035E000DF939C018BEC93E08C7F4115510509F42E
:1035F00085C02115310509F481C06115710509F4F3
:103600007DC08A01AB01B9016D5F7F4F6C7F9B016B
:103610002F5F3F4F249F7001259FF00C349FF00CCB
:103620001124F894EBECF3E123E030E0E901A6A1EA
:10363000B7A1C68CD78CCD2809F054C0109709F0DB
:103640003CC0C090C603D090C70322E738E02C19D5
:103650003D092E153F0530F47894CFEFDFEF86EF6C
:103660009FEF1FC02AE02C9FF0012D9FF00D112429
:10367000E553FC4E91838083558344835383428377
:1036800077836683F186E086A1DEEC0CFD1CF09268
:10369000C703E092C6037894CF3FDC0701F390E0C4
:1036A00080E0F801D183C083DF91CF911F910F910A
:1036B000FF90EF90DF90CF900895AE15BF0590F08A
:1036C0002AE02C9FF0012D9FF00D1124E553FC4EB4
:1036D00091838083558344835383428377836683B6
:1036E00075DED9CF8A0F9B1F2F5F3F4F3A96293047
:1036F000310509F09BCFCFEFDFEFCDCF8FEF9FEFFD
:10370000D3CFFF920F931F93CF93DF939C0123504E
:1037100031092630310508F057C0F8942AE0289F77
:10372000F001299FF00D1124E553FC4E4085518591
:1037300028E03AE0022F10E080179107ACF12AE070
:10374000F22EF89EE001F99ED00D1124C553DC4EF7
:1037500070E060E0888199810E947929F09EF001F3
:10376000F19EF00D1124E553FC4E8091C60390911B
:10377000C70320853185821B930B9093C7038093E9
:10378000C603198218821D821C821B821A821F8224
:103790001E8219861886789490E080E0DF91CF91A0
:1037A0001F910F91FF900895309FF001319FF00D10
:1037B0001124E553FC4E60817181672B41F4411562
:1037C000510529F42150B6CF8FEF9FEFE7CF2AE0C4
:1037D000289FE001299FD00D1124C553DC4E70E0D5
:1037E00060E0888199810E947929198218821D825E
:1037F0001C821B821A821F821E82CDCF9C01235005
:1038000031092630310510F52AE0289FD001299F83
:10381000B00D1124A553BC4E2D913C911197232B33
:10382000A9F016962D913C9117972617370770F03F
:10383000F89412962D913C9113972115310529F09A
:10384000ED91FC911197309721F47894F0E0E0E04D
:103850000DC04181528111965C934E9321503109E4
:1038600013963C932E93129781937894CF010895E9
:10387000EDE3FCE08EE897E0DF019C011D92215012
:103880003040E1F7E8ECF3E085E798E0DF019C01E8
:103890001D9221503040E1F71092C7031092C603E9
:1038A000EBECF3E18AE5DF011D928A95E9F790E000
:1038B00080E00895CF93DF93C091C102D091C202FE
:1038C000CF3FDC0759F4DFD39093C2028093C1024B
:1038D00097FF09C0D093C202C093C10284EF9FEF4B
:1038E000DF91CF91089590E080E0FACF823091058A
:1038F00028F48093251490E080E008958FEF9FEFE7
:1039000008954F925F926F927F92AF92BF92CF9243
:10391000DF92EF92FF920F931F93CF93DF931F924B
:103920001F92CDB7DEB71A821982009709F478C0CA
:103930006115710509F474C02091C1023091C20271
:1039400007EF1FEF2F3F3F4F09F444C06B015C01AD
:10395000412C512C3201F12CE12C10E000E09E01B1
:103960002F5F3F4FA6014E195F09B5016E0D7F1DF8
:103970008091C1029091C202E4D3892B09F04AC020
:1039800089819A81009741F4E114F10429F420918E
:103990002514222309F441C0E80EF91EEC14FD049D
:1039A000C8F480E8481684E858068EE16806710479
:1039B00018F560E070E0CB0112D72AE0420E511CEE
:1039C000611C711C0A3F4FEF140721F0043F8FEF79
:1039D0001807A1F4C8010F900F90DF91CF911F91AC
:1039E0000F91FF90EF90DF90CF90BF90AF907F90BE
:1039F0006F905F904F90089501EF1FEF81E090E08E
:103A0000013F2FEF120711F090E080E0892B09F4BD
:103A1000A6CFE0CF04EF1FEFDDCF0AEF1FEFDACF25
:103A20000FEF1FEFD7CF4F925F926F927F92AF92BF
:103A3000BF92CF92DF92EF92FF920F931F93CF939B
:103A4000DF931F921F92CDB7DEB71A8219820097BB
:103A500009F478C06115710509F474C02091C102A0
:103A60003091C20207EF1FEF2F3F3F4F09F444C0D0
:103A70006B015C01412C512C3201F12CE12C10E046
:103A800000E09E012F5F3F4FA6014E195F09B5016F
:103A90006E0D7F1D8091C1029091C20208D3892BC7
:103AA00009F04AC089819A81009741F4E114F10438
:103AB00029F420912514222309F441C0E80EF91EAF
:103AC000EC14FD04C8F480E8481686E9580688E935
:103AD0006806710418F560E070E0CB0180D62AE03A
:103AE000420E511C611C711C0E3F4FEF140721F058
:103AF000043F8FEF1807A1F4C8010F900F90DF91DA
:103B0000CF911F910F91FF90EF90DF90CF90BF90DA
:103B1000AF907F906F905F904F90089502EF1FEFEE
:103B200081E090E0023F2FEF120711F090E080E07B
:103B3000892B09F4A6CFE0CF04EF1FEFDDCF0EEF06
:103B40001FEFDACF0FEF1FEFD7CF8091C102909117
:103B5000C2028F3F980749F08ED2892B49F48FEF2C
:103B60009FEF9093C2028093C10290E080E008959D
:103B700084EF9FEF0895FC01680F791F90E080E0CB
:103B8000E617F70709F408952191820F911DF8CFE8
:103B900020912614211113C08DDE009791F410920C
:103BA0002C1410922B1410922A1410922914109293
:103BB00028141092271421E020932614089584EFEE
:103BC0009FEF0895AF92BF92CF92DF92EF92FF9254
:103BD0000F931F93CF93DF93009709F460C0463093
:103BE000510508F45CC020912614C7EFDFEF2223B3
:103BF00009F449C08C01060F171FF801C080D1805D
:103C0000C114D10409F44EC096012A5F3F4F4217F8
:103C1000530708F447C07C0180912B1490912C1419
:103C200093838283B6016C5F7F4F5801A60EB71E47
:103C3000C801A1DFF5019183808364E070E0C801D1
:103C400060DEEC01892BF9F481E090E04FDEB601F3
:103C5000C801049656DEEC01892B91F462E070E015
:103C6000C5014FDEEC01892B59F4C70194DC80912A
:103C70002B1490912C14019690932C1480932B1458
:103C800090E080E033DECE01DF91CF911F910F9164
:103C9000FF90EF90DF90CF90BF90AF900895CFEF5F
:103CA000DFEFF1CFC9EFDFEFEECF6F927F928F9210
:103CB0009F92AF92BF92CF92DF92EF92FF920F93BB
:103CC0001F93CF93DF9300D01F92CDB7DEB700973D
:103CD00009F47AC04115510509F476C020912614E3
:103CE00007EF1FEF222309F44DC03A017B015C016D
:103CF00064E070E0CE01019696DE8C01892B09F01C
:103D000041C009811A810115110509F45AC0480101
:103D100086E0880E911CB701680D791D8091C30261
:103D20009091C4026BDD6C01009709F450C0A701AB
:103D300070E060E00E94792989819A81AB81BC8121
:103D4000EC0CFD1CF70181939193A193B1937F013A
:103D500081E090E0CBDDB801C70165DE892B31F54C
:103D600062E070E0C701800F911F5DDE8C01892B3E
:103D7000E9F490E080E0BADDF501D182C082F30180
:103D800091828082C8010F900F900F900F90DF9169
:103D9000CF911F910F91FF90EF90DF90CF90BF9048
:103DA000AF909F908F907F906F90089590E080E00B
:103DB0009DDDF50111821082F30111821082C6018E
:103DC000EADB09EF1FEFDECF0FEF1FEFDBCF06EFD0
:103DD0001FEFD8CF0097A1F04115510589F02115AB
:103DE000310571F0F90136966E177F0748F0DC0156
:103DF0002D933C93DA01ED93FC9390E080E00895DD
:103E00008FEF9FEF0895AF92BF92CF92DF92EF9224
:103E1000FF920F931F93CF93DF93009709F45FC036
:103E20004115510509F45BC06530710508F457C0B0
:103E300020912614C7EFDFEF222391F1DC01CD9012
:103E4000DC9011971296ED91FC9196012A5F3F4FFD
:103E5000C9EFDFEF2617370719F5C0912714D09166
:103E60002814209749F521E030E03093281420935E
:103E700027147A018C01F0932A14E0932914560137
:103E8000B4E0AB0EB11CB50176DE0A0D1B1DF801C6
:103E9000208131818217930729F5D701CD92DC92D9
:103EA000CE01DF91CF911F910F91FF90EF90DF90A6
:103EB000CF90BF90AF9008952091291430912A148B
:103EC0002F5F3F4FCCEFDFEFE217F30790F2CBEF1E
:103ED000DFEF2E173F0768F2D0E0C0E0CACFCFEF88
:103EE000DFEFDECFC3EFDFEFDBCF84E090E00895BC
:103EF00082E090E008958CEF9FEF089580E290E0DB
:103F0000089510922C1410922B1410922A141092CF
:103F10002914109228141092271490E080E008953C
:103F20009093C4028093C30208958091261488233D
:103F300091F00BDE009789F410922C1410922B1440
:103F400010922A14109229141092281410922714F7
:103F500010922614089590E080E00895009749F0AB
:103F60006115710531F0FC0111821082FB01118293
:103F700010820895F3CF40E052EC61E070E090E0F1
:103F800080E000C08130910571F01CF4892B39F07C
:103F900008958230910559F0039769F0089526E05D
:103FA00082E494E14DC626E08FED94E1FBCF26E05C
:103FB0008CE795E1F7CF26E089E196E1F3CF08950C
:103FC00080E00895CF92DF92EF92FF92E3D36B01EE
:103FD0007C01C0922D14D0922E14E0922F14F092F6
:103FE00030148091311490913214A0913314B09117
:103FF0003414A7019601281B390B4A0B5B0BCA012D
:10400000B901FDD124E535E540E555E406D387FD4A
:1040100024C0C0923114D0923214E0923314F09242
:104020003414A3D0B7D3C0903114D0903214E090A0
:104030003314F09034146C197D098E099F09DFD177
:1040400024E535E540E555E4E8D287FD0CC081E084
:1040500090E0909338148093371481E0FF90EF90B4
:10406000DF90CF9008951092381410923714F5CF46
:1040700010923514089568EE73E080E090E0AFD3BD
:1040800090E080E0089526E040E050E16EE070E0CE
:1040900082E494E1D5D582E494E108D5892B21F01E
:1040A00082E494E11DD5F7CF90E080E00895CF92AF
:1040B000DF92EF92FF920F931F93CF93DF936B01E9
:1040C0007A01E9011982188282E494E1EFD4892B04
:1040D00069F18601CC24C39482E0D82E80913514F6
:1040E000811110C082E494E1FBD40297B9F7C09229
:1040F0003514F801D1928F018881998101969983B5
:104100008883ECCF888199818E159F0578F482E4AD
:1041100094E1E6D48F3F9807A9F3F80181938F01CA
:1041200088819981019699838883ECCF90E080E023
:10413000DF91CF911F910F91FF90EF90DF90CF9083
:1041400008950F931F93CF93DF93EA01890182E4CF
:1041500094E10E94B028F801D183C08390E080E010
:10416000DF91CF911F910F9108958091361491E0C6
:10417000980F90933614882349F021E030E0309373
:104180003814209337148093361408950E941A032C
:10419000809136148150809336140C94E702DF929C
:1041A000EF92FF920F931F93CF93DF931F92CDB7A0
:1041B000DEB7109206171092051747D3DCDE009188
:1041C000DA021091DB02F8011182108270E060E0E7
:1041D00090E080E00E9418030E948E05F894789485
:1041E000C801C7960E94170385E090E00E94E9028B
:1041F0001982AE014F5F5F4F65E070E0F801828188
:1042000093810E943E028981882319F081E0F801A0
:1042100083AF0E941903F894D2DEF8018081918166
:10422000892B19F481E093AD911180E080930517FB
:104230000E94DE0B7C017894DD24D39480910517D5
:10424000811112C00E94500685E090E00E94F202A7
:10425000F89490E080E00F90DF91CF911F910F9143
:10426000FF90EF90DF9008951982AE014F5F5F4F8E
:1042700065E070E0F801828193810E94A302898148
:10428000882311F0F801D3AEF80180819181892B48
:10429000F9F481E093AD911101C080E0809306179D
:1042A0009091061781E0911180E08093051780912D
:1042B0000617811185DEEA94EF2829F40E94DE0BAF
:1042C000892B09F4D5DE0E94DE0B7C017BDEB6CFA4
:1042D00081E0E4CF5058BB27AA270ED064C155D146
:1042E00030F05AD120F031F49F3F11F41EF44AC14E
:1042F0000EF4E095E7FB32C1E92F66D180F3BA17DF
:10430000620773078407950718F071F49EF57EC164
:104310000EF4E0950B2EBA2FA02D0B01B9019001E0
:104320000C01CA01A0011124FF27591B99F0593F24
:1043300050F4503E68F11A16F040A22F232F342F6C
:104340004427585FF3CF469537952795A795F040BA
:104350005395C9F77EF41F16BA0B620B730B840BCF
:10436000BAF09150A1F0FF0FBB1F661F771F881F87
:10437000C2F70EC0BA0F621F731F841F48F48795DF
:1043800077956795B795F7959E3F08F0B3CF9395CE
:10439000880F08F09927EE0F979587950895BAD062
:1043A00008F481E0089518D188F09F5790F0B92F54
:1043B0009927B751A0F0D1F0660F771F881F991F7A
:1043C0001AF0BA95C9F712C0B13081F01FD1B1E02F
:1043D00008951CC1672F782F8827B85F39F0B93F3F
:1043E000CCF3869577956795B395D9F73EF490957C
:1043F0008095709561957F4F8F4F9F4F0895E894FA
:1044000009C097FB3EF490958095709561957F4F1C
:104410008F4F9F4F9923A9F0F92F96E9BB279395CA
:10442000F695879577956795B795F111F8CFFAF4DA
:10443000BB0F11F460FF1BC06F5F7F4F8F4F9F4F0B
:1044400016C0882311F096E911C0772321F09EE869
:10445000872F762F05C0662371F096E8862F70E0CF
:1044600060E02AF09A95660F771F881FDAF7880FA9
:104470009695879597F9089588D018F011F08CD00B
:1044800038F480C0C4C0E92F9FD0B0F35523C9F3DE
:10449000E7FB6217730784079507A8F199F3E92FE3
:1044A000FF2788232AF03197660F771F881FDAF7D6
:1044B000952F5527442332F091505040220F331F3F
:1044C000441FD2F7BB27E91BF50B621B730B840B50
:1044D000B109C1F222F4620F731F841FB11D31971D
:1044E0002AF0660F771F881FBB1FEFCF91505040F7
:1044F0005AF041F0882332F0660F771F881F9150E1
:104500005040C1F7939530C08695779567959F5F2A
:10451000D9F7F8CF990F0008550FAA0BE0E8FEEF86
:1045200016161706E807F907C0F012161306E40777
:10453000F50798F0621B730B840B950B39F40A2670
:1045400061F0232B242B252B21F408950A2609F44E
:10455000A140A6958FEF811D811D089597F99F6752
:1045600080E870E060E008959F3F31F0915020F4C2
:10457000879577956795B795880F911D969587953F
:1045800097F908959FEF80EC089500240A94161679
:10459000170618060906089500240A941216130631
:1045A000140605060895092E0394000C11F48823BF
:1045B00052F0BB0F40F4BF2B11F460FF04C06F5FDB
:1045C0007F4F8F4F9F4F089557FD9058440F551FB1
:1045D00059F05F3F71F04795880F97FB991F61F085
:1045E0009F3F79F087950895121613061406551FFC
:1045F000F2CF4695F1DF08C0161617061806991F68
:10460000F1CF86957105610508940895E894BB275C
:1046100066277727CB0197F908957CDF08F48FEFA1
:1046200008950BD0C0CFB1DF28F0B6DF18F0952386
:1046300009F094CFA7CF1124EACFC6DFA0F3959F4E
:10464000D1F3950F50E0551F629FF001729FBB2779
:10465000F00DB11D639FAA27F00DB11DAA1F649F25
:104660006627B00DA11D661F829F2227B00DA11DD8
:10467000621F739FB00DA11D621F839FA00D611D5E
:10468000221F749F3327A00D611D231F849F600D7F
:10469000211D822F762F6A2F11249F5750408AF0B8
:1046A000E1F088234AF0EE0FFF1FBB1F661F771F44
:1046B000881F91505040A9F79E3F510570F04ECF92
:1046C000A6CF5F3FECF3983EDCF386957795679530
:1046D000B795F795E7959F5FC1F7FE2B880F911D62
:1046E0009695879597F908951F920F920FB60F929E
:1046F00011242F933F938F939F93AF93BF938091F8
:104700003A1490913B14A0913C14B0913D14309117
:10471000391423E0230F2D3758F50196A11DB11D43
:104720002093391480933A1490933B14A0933C1433
:10473000B0933D1480913E1490913F14A091401489
:10474000B09141140196A11DB11D80933E14909328
:104750003F14A0934014B0934114BF91AF919F9127
:104760008F913F912F910F900FBE0F901F90189532
:1047700026E8230F0296A11DB11DD2CF2FB7F894C2
:1047800060913A1470913B1480913C1490913D14C7
:104790002FBF08953FB7F89480913E1490913F1435
:1047A000A0914014B091411426B5A89B05C02F3F9D
:1047B00019F00196A11DB11D3FBFBA2FA92F982F47
:1047C0008827BC01CD01620F711D811D911D42E042
:1047D000660F771F881F991F4A95D1F708958F920A
:1047E0009F92AF92BF92CF92DF92EF92FF926B01B6
:1047F0007C01D0DF4B015C01C114D104E104F10460
:10480000D9F02FD5C7DF681979098A099B09683E55
:1048100073408105910580F321E0C21AD108E108B7
:10482000F10888EE880E83E0981EA11CB11CC1140B
:10483000D104E104F10431F7FF90EF90DF90CF90C5
:10484000BF90AF909F908F900895789484B58260C8
:1048500084BD84B5816084BD85B5826085BD85B524
:10486000816085BDEEE6F0E0808181608083E1E8D3
:10487000F0E010828081826080838081816080830B
:10488000E0E8F0E0808181608083E1EBF0E080810E
:1048900084608083E0EBF0E0808181608083E1E9E7
:1048A000F0E0808182608083808181608083E0E9A4
:1048B000F0E0808181608083E1EAF0E080818260C5
:1048C0008083808181608083E0EAF0E08081816084
:1048D0008083E1E2F1E08081826080838081816079
:1048E0008083E0E2F1E0808181608083EAE7F0E0AC
:1048F0008081846080838081826080838081816008
:1049000080838081806880831092C10008958150E7
:10491000823108F059C0E82FF0E08827EE56FB4DB1
:104920008F4FD6C4B224B624A424AA24AE24E424EF
:10493000B924BF24C324C924CD24D124D724DB2403
:10494000E424DF24E524E924809180008F7780939C
:1049500080000895809180008F7DF9CF8091800044
:10496000877FF5CF84B58F7784BD089584B58F7D1B
:10497000FBCF8091B0008F778093B0000895809135
:10498000B0008F7DF9CF809190008F778093900059
:104990000895809190008F7DF9CF80919000877F5E
:1049A000F5CF8091A0008F778093A000089580912B
:1049B000A0008F7DF9CF8091A000877FF5CF8091F7
:1049C00020018F77809320010895809120018F7DB1
:1049D000F9CF80912001877FF5CFCF93DF9390E0CF
:1049E000FC01E65DFE4F249180599E4FFC018491AD
:1049F0008823C9F090E0880F991FFC01E053FE4F17
:104A0000A591B491FC01EA54FE4FC591D491611176
:104A10000DC09FB7F8948C91209582238C93888148
:104A2000282328839FBFDF91CF910895623051F4EE
:104A30009FB7F8943C91822F809583238C93E881D3
:104A40002E2BEFCF8FB7F894EC912E2B2C938FBF9A
:104A5000EACF1F93CF93DF93282F30E0F901EC5179
:104A6000FF4F8491F901E65DFE4FD491F901E059C1
:104A7000FE4FC491CC23A1F0162F811148DFEC2FFB
:104A8000F0E0EE0FFF1FEA54FE4FA591B4918FB7EF
:104A9000F894EC91111108C0D095DE23DC938FBF00
:104AA000DF91CF911F910895DE2BF8CFFC01918DFE
:104AB000228D892F90E0805C9F4F821B91098F731C
:104AC00099270895FC01918D828D981731F0828D80
:104AD000E80FF11D858D90E008958FEF9FEF089509
:104AE000FC01918D828D981761F0A28DAE0FBF2FC2
:104AF000B11D5D968C91928D9F5F9F73928F90E018
:104B000008958FEF9FEF0895FC01538D448D252F5D
:104B100030E0842F90E0821B930B541710F0CF9657
:104B2000089501970895FC01A48DA80FB92FB11D18
:104B3000A35ABF4F2C91848D90E001968F739927D3
:104B4000848FA689B7892C93A089B1898C918370B1
:104B500080648C93938D848D981306C00288F389AA
:104B6000E02D80818F7D80830895CF93DF93EC01CA
:104B7000888D8823B1F0AA89BB89E889F9898C914D
:104B800085FD03C0808186FD0CC00FB607FCF7CF02
:104B90008C9185FFF2CF808185FFEDCFCE01C3DF01
:104BA000EACFDF91CF910895EF92FF920F931F9379
:104BB000CF93DF93EC0181E0888F9B8D8C8D9813D0
:104BC0001AC0E889F989808185FF15C09FB7F894DC
:104BD000EE89FF896083E889F98980818370806428
:104BE00080839FBF81E090E0DF91CF911F910F9173
:104BF000FF90EF900895F62E0B8D10E00F5F1F4F82
:104C00000F731127E02E8C8D8E110BC00FB607FC91
:104C1000FACFE889F989808185FFF5CFCE0183DF5E
:104C2000F2CFEB8DEC0FFD2FF11DE35AFF4FF08219
:104C30009FB7F8940B8FEA89FB8980818062D0CF7F
:104C4000CF92DF92EF92FF921F93CF93DF93EC010D
:104C50006A017B01122FE889F98982E08083C114FF
:104C600081EED806E104F10499F060E079E08DE38B
:104C700090E0A70196010AD3215031094109510959
:104C80005695479537952795211580E1380790F07F
:104C9000E889F989108260E874E88EE190E0A70164
:104CA0009601F4D221503109410951095695479591
:104CB00037952795EC85FD853083EE85FF8520832C
:104CC000188EEC89FD891083EA89FB8980818061D7
:104CD0008083EA89FB89808188608083EA89FB89F7
:104CE000808180688083EA89FB8980818F7D8083D1
:104CF000DF91CF911F91FF90EF90DF90CF900895BB
:104D00001F920F920FB60F9211240BB60F922F9392
:104D10008F939F93EF93FF93E0915214F09153146C
:104D20008081E0915814F091591482FD1DC090814A
:104D300080915B148F5F8F7320915C14821741F018
:104D4000E0915B14F0E0EE5BFB4E958F80935B147B
:104D5000FF91EF919F918F912F910F900BBE0F902C
:104D60000FBE0F901F9018958081F2CF1F920F9267
:104D70000FB60F9211240BB60F922F933F934F93C0
:104D80005F936F937F938F939F93AF93BF93EF93B3
:104D9000FF9382E494E1C7DEFF91EF91BF91AF9161
:104DA0009F918F917F916F915F914F913F912F9143
:104DB0000F900BBE0F900FBE0F901F901895E2E45E
:104DC000F4E11382128288EE93E0A0E0B0E08483E5
:104DD0009583A683B7838CEE92E09183808385ECE4
:104DE00090E09587848784EC90E09787868780ECB5
:104DF00090E0918B808B81EC90E0938B828B82ECA6
:104E000090E0958B848B86EC90E0978B868B118E4F
:104E1000128E138E148E08951F920F920FB60F925A
:104E200011240BB60F922F938F939F93EF93FF93C1
:104E3000E091EF14F091F0148081E091F514F0917D
:104E4000F61482FD1DC090818091F8148F5F8F73DE
:104E50002091F914821741F0E091F814F0E0E1524A
:104E6000FB4E958F8093F814FF91EF919F918F9156
:104E70002F910F900BBE0F900FBE0F901F901895A3
:104E80008081F2CF1F920F920FB60F9211240BB6B2
:104E90000F922F933F934F935F936F937F938F93D3
:104EA0009F93AF93BF93EF93FF938FED94E13BDE1E
:104EB000FF91EF91BF91AF919F918F917F916F91F2
:104EC0005F914F913F912F910F900BBE0F900FBEAE
:104ED0000F901F901895EFEDF4E11382128288EE87
:104EE00093E0A0E0B0E084839583A683B7838CEE43
:104EF00092E0918380838DEC90E0958784878CECA1
:104F000090E09787868788EC90E0918B808B89EC86
:104F100090E0938B828B8AEC90E0958B848B8EEC67
:104F200090E0978B868B118E128E138E148E0895BF
:104F30001F920F920FB60F9211240BB60F922F9360
:104F40008F939F93EF93FF93E0918C15F0918D15C4
:104F50008081E0919215F091931582FD1DC09081A2
:104F6000809195158F5F8F7320919615821741F070
:104F7000E0919515F0E0E458FA4E958F80939515E1
:104F8000FF91EF919F918F912F910F900BBE0F90FA
:104F90000FBE0F901F9018958081F2CF1F920F9235
:104FA0000FB60F9211240BB60F922F933F934F938E
:104FB0005F936F937F938F939F93AF93BF93EF9381
:104FC000FF938CE795E1AFDDFF91EF91BF91AF913A
:104FD0009F918F917F916F915F914F913F912F9111
:104FE0000F900BBE0F900FBE0F901F901895ECE71F
:104FF000F5E11382128288EE93E0A0E0B0E08483B2
:105000009583A683B7838CEE92E09183808385EDB0
:1050100090E09587848784ED90E09787868780ED80
:1050200090E0918B808B81ED90E0938B828B82ED71
:1050300090E0958B848B86ED90E0978B868B118E1C
:10504000128E138E148E08951F920F920FB60F9228
:1050500011240BB60F922F938F939F93EF93FF938F
:10506000E0912916F0912A168081E0912F16F09197
:10507000301682FD1DC09081809132168F5F8F7334
:1050800020913316821741F0E0913216F0E0E75E8E
:10509000F94E958F80933216FF91EF919F918F91EA
:1050A0002F910F900BBE0F900FBE0F901F90189571
:1050B0008081F2CF1F920F920FB60F9211240BB680
:1050C0000F922F933F934F935F936F937F938F93A1
:1050D0009F93AF93BF93EF93FF9389E196E123DD15
:1050E000FF91EF91BF91AF919F918F917F916F91C0
:1050F0005F914F913F912F910F900BBE0F900FBE7C
:105100000F901F901895E9E1F6E11382128288EE64
:1051100093E0A0E0B0E084839583A683B7838CEE10
:1051200092E09183808385E391E09587848784E38F
:1051300091E09787868780E391E0918B808B81E374
:1051400091E0938B828B82E391E0958B848B86E355
:1051500091E0978B868B118E128E138E148E08958C
:10516000AF92BF92CF92DF92EF92FF920F931F9375
:10517000CF93DF936C017B018B01040F151FEB01B3
:105180005E01AE18BF08C017D10759F06991D6016A
:10519000ED91FC910190F081E02DC6011995892BCC
:1051A00079F7C501DF91CF911F910F91FF90EF909B
:1051B000DF90CF90BF90AF9008950F931F93CF9340
:1051C000DF93EC01DBDA688779878A879B87E88140
:1051D000F9810284F385E02DCE01199597FF14C063
:1051E000CDDA088519852A853B85601B710B820BFA
:1051F000930B0C811D812E813F81601771078207FF
:10520000930728F38FEF9FEFDF91CF911F910F91BD
:105210000895AF92BF92CF92DF92EF92FF920F93D9
:105220001F93CF93DF935C017B018B01040F151F4C
:10523000EB016E01CE18DF08C017D10731F0C501B0
:10524000BCDF97FD02C08993F4CFC601DF91CF91F7
:105250001F910F91FF90EF90DF90CF90BF90AF9094
:1052600008950895AA1BBB1B51E107C0AA1FBB1FCD
:10527000A617B70710F0A61BB70B881F991F5A95E2
:10528000A9F780959095BC01CD010895A1E21A2E51
:10529000AA1BBB1BFD010DC0AA1FBB1FEE1FFF1FDA
:1052A000A217B307E407F50720F0A21BB30BE40B2A
:1052B000F50B661F771F881F991F1A9469F7609571
:1052C0007095809590959B01AC01BD01CF0108952B
:1052D000EE0FFF1F881F8BBF0790F691E02D1994EA
:1052E000FB01DC0102C001900D9241505040D8F703
:1052F0000895DC0101C06D9341505040E0F70895DE
:04530000F894FFCF4F
:105304000F02130217021B023A01400146014C012D
:10531400000000000000803F0000A04000000040AA
:10532400000000000000803F00000040000000007A
:105334008988083D00000000000000C0010001E869
:10534400030000FF00FA0D260EFE00E00DA50BFD84
:10535400008A0DCC0DFC00BE0DA50BF600A90EA510
:105364000BF500970DF40EF400720EFB0EDE004DEB
:10537400138B14DD004112A50BDA007B108310D9C6
:1053840000A4149310E200630FA50BE1009E0FA587
:105394000BE0001310A50BD600D516A50BD500A461
:1053A40011A50BD4003411A50BD300A710A50BFF36
:1053B400FFFFFFF0003D17A50BED00FB16A50BFF4B
:1053C400FFFFFFFFFF53696D756C6174696F6E2099
:1053D40066696E6973686564000112030500010063
:1053E40005002000A000400100000000D425B028E2
:0A53F4008425B52556257025622595
:00000001FF
