:1000000014C100000C9470180C949B180C94C61822
:100010000C94F1180C941C190C9447190C94721937
:100020000C949D1933C1000031C100002FC10000A4
:100030002DC100002BC1000029C1000027C1000014
:1000400025C1000023C1000021C100001FC1000024
:100050001DC100001BC1000019C100000C94C8198B
:1000600015C100000C949A1D0C94D01D0FC1000006
:100070000DC100000BC1000009C1000007C1000054
:1000800005C1000003C1000001C10000FFC0000065
:100090000C94261E0C945C1EF9C00000F7C00000F2
:1000A000F5C00000F3C00000F1C00000EFC0000088
:1000B000EDC00000EBC00000E9C00000E7C0000098
:1000C000E5C00000E3C00000E1C000000C94B21ED7
:1000D0000C94E81EDBC000000C943E1F0C94741FAF
:1000E000D5C0000005A84CCDB2D44EB93836A9020F
:1000F0000C50B9918688083CA6AAAA2ABE00000026
:10010000803F00000A0B02090C0D0E0807030401D2
:1001100000000000000000000000000000000000DF
:1001200000000000000000000000000000001211AC
:1001300010000000000000000000000000000000AF
:10014000000000000000000001021020200808103C
:100150002040102040800201020108040201010237
:100160000408102040808040201008040201800410
:10017000020180402010080402010804020101026B
:10018000040810204080010204081020408005056A
:100190000505070508080808020202020A0A0808FD
:1001A000040404040101010101010101030303032B
:1001B00003030303040707070C0C0C0C0C0C0C0CBA
:1001C0000202020206060606060606060B0B0B0BCB
:1001D0000B0B0B0B000020002300260029002C0035
:1001E0002F00320000010000030106010901000098
:1001F0002200250028002B002E00310034000201CF
:100200000000050108010B01000021002400270067
:100210002A002D0030003300010100000401070115
:100220000A01F91D851E111F9D1F11241FBECFEF4E
:10023000D1E2DEBFCDBF00E00CBF13E0A0E0B2E032
:10024000ECE4F1E400E00BBF02C007900D92AA338A
:10025000B107D9F727E0AAE3B3E001C01D92AB30A4
:10026000B207E1F711E0C5E1D1E000E006C0219757
:100270000109802FFE010E948120C131D10780E059
:100280000807A9F70E94F3140C94A420B9CE6111B9
:1002900002C00C94DF1B6130E1F362E0FACF662309
:1002A00019F061E00C941B1C60E0FCCFAB01BC01B9
:1002B00087E793E00C942320AB01BC0184E194E038
:1002C0000C942320AB01BC0181EB94E00C9423201F
:1002D000AB01BC018EE495E00C9423208F929F9299
:1002E000AF92BF92CF92DF92EF92FF920F931F9344
:1002F000CF93DF93CDB7DEB77B014A015901CDB66D
:10030000DEB69B01220F331F4DB75EB7421B530B66
:100310000FB6F8945EBF0FBE4DBF0DB71EB70F5F8F
:100320001F4FE82FF0E0EE0FFF1FE85FFD4F019039
:10033000F081E02DC8011995F801D401E00EF11EFD
:10034000EE15FF0519F081918D93FACF81E0F5014B
:1003500080830FB6F894DEBE0FBECDBEDF91CF9185
:100360001F910F91FF90EF90DF90CF90BF90AF90D3
:100370009F908F9008959F92AF92BF92CF92DF92FD
:10038000EF92FF920F931F93CF93DF93CDB7DEB71A
:10039000C054D1090FB6F894DEBF0FBECDBFB82E42
:1003A0008B01942EA52E6901E82EF12CEE0CFF1C7A
:1003B000F701E050FE4F0190F081E02D1995801774
:1003C0009107C9F49601492D5A2DBC018B2D86DF6A
:1003D000C05CDF4F0FB6F894DEBF0FBECDBFDF911C
:1003E000CF911F910F91FF90EF90DF90CF90BF9032
:1003F000AF909F9008958017910748F4E92DFA2D4A
:100400000E0F1F1FE017F10719F11192FBCF980192
:10041000220F331F2817390728F09601492D5A2D2E
:10042000B801D4CFB8010E944B20CB010197809F27
:10043000B001819F700D909F700D1124F701E85F4E
:10044000FD4F0190F081E02DCE0101961995E5CF89
:10045000F6011082BDCF87E793E00C94701C84E115
:1004600094E00C94701C81EB94E00C94701C8EE46E
:1004700095E00C94701C8823E1F0823061F08330A9
:1004800089F08130B1F440E052EC61E070E081E04D
:1004900090E00C94671440E052EC61E070E082E080
:1004A00090E0F7CF40E052EC61E070E083E090E054
:1004B000F0CF08950895CF92DF92EF92FF92CF93FD
:1004C000882351F16A017B01CFEFC80F20E030E0B3
:1004D000A901CB01B6010E948E1587FF11C0C7018B
:1004E000B60190580E949A159B01AC016C2F70E0E8
:1004F00090E080E0CF91FF90EF90DF90CF90B2C07E
:10050000C701B6010E9495158C2FCF91FF90EF90F7
:10051000DF90CF900C94A51ACF91FF90EF90DF90D1
:10052000CF9008950F931F938B019C0183E0369524
:100530002795179507958A95D1F7065C1C4F462F8E
:10054000477021E030E0F90102C0EE0FFF1F4A952D
:10055000E2F7AF01F80120812423CB01019621119C
:1005600002C090E080E01F910F9108950F931F93B8
:100570008B019C0183E036952795179507958A9501
:10058000D1F7677081E090E001C0880F6A95EAF7C3
:10059000F801E65CFC4F2081452B31F480958223E5
:1005A00080831F910F910895822BFACF2F923F9253
:1005B0004F925F926F927F928F929F92AF92BF9273
:1005C000CF92DF92EF92FF920F931F93CF93DF931F
:1005D000D62EC72E782E692E49015A01280161E0D6
:1005E0008D2D0E94DF1BCD2DDC2D8E010F5F1F4F47
:1005F000A8016D2D7C2D872D962DB8DF20E030E0F1
:10060000A901C201B7010E945217181664F4C20171
:10061000B7010E949A152B01C501B4010E949A15D9
:10062000A201CE0123D0C801DF91CF911F910F917C
:10063000FF90EF90DF90CF90BF90AF909F908F9002
:100640007F906F905F904F903F902F9008958823F8
:1006500041F08150682F70E090E080E050E040E091
:1006600085CF0895862FB9010C94A51A9C01FC0131
:10067000EE5FFE4FE491E150E231E0F4F0E08827D4
:10068000EB5BFC4F8F4F0C94812057035E0361039B
:1006900078038D035A03A203AE03B203C903DE033A
:1006A000F3030A041F045A0334044B04600484B5A2
:1006B000806884BD60E0822F0C941B1C84B580622E
:1006C000F8CF809180008C7F826080938000809141
:1006D0008100807E8061682B609381005093870049
:1006E0004093860080918000806880938000E2CFF4
:1006F000809180008C7F8260809380008091810057
:10070000807E8061682B60938100509387004093C6
:100710008600809180008062E8CF809180008C7F8D
:1007200082608093800080918100807E8061682B50
:1007300060938100509387004093860080918000F1
:100740008860D3CF8091B00080688093B0008091A2
:10075000B100887F682B6093B100ACCF8091B0006E
:100760008062F3CF809190008C7F826080939000B4
:1007700080919100807E8061682B609391005093FE
:10078000970040939600809190008068809390003D
:1007900091CF809190008C7F8260809390008091B7
:1007A0009100807E8061682B609391005093970048
:1007B00040939600809190008062E8CF80919000F5
:1007C0008C7F82608093900080919100807E806118
:1007D000682B60939100509397004093960080910E
:1007E00090008860D3CF8091A0008C7F826080933E
:1007F000A0008091A100807E8061682B6093A100A1
:100800005093A7004093A6008091A0008068809339
:10081000A00050CF8091A0008C7F82608093A000C8
:100820008091A100807E8061682B6093A10050932D
:10083000A7004093A6008091A0008062E8CF80913D
:10084000A0008C7F82608093A0008091A100807EB8
:100850008061682B6093A1005093A7004093A6008D
:100860008091A0008860D3CF809120018C7F82602E
:100870008093200180912101807E8061682B6093AC
:100880002101509327014093260180912001806827
:10089000809320010FCF809120018C7F8260809314
:1008A000200180912101807E8061682B609321016D
:1008B0005093270140932601809120018062E8CF68
:1008C000809120018C7F82608093200180912101A2
:1008D000807E8061682B60932101509327014093B3
:1008E0002601809120018860D3CF8F929F92AF9292
:1008F000BF92CF92DF92EF92FF920F931F93690105
:100900007A010E945F20F0E0E0E0E017F107A9F42F
:10091000672B682B692B21F02F5F3F4F4F4F5F4FA5
:10092000CA01B9011F910F91FF90EF90DF90CF9016
:10093000BF90AF909F908F9008954B015C01660F20
:10094000771F881F991F220F331F441F551FB7FCA5
:1009500005C06C157D058E059F0540F02F5F3F4F4C
:100960004F4F5F4F6C197D098E099F093196CDCF8E
:100970008F929F92AF92BF92CF92DF92EF92FF92AF
:100980000F931F9369017A010E945F20F0E0E0E07D
:10099000E017F10769F4CA01B9011F910F91FF90A7
:1009A000EF90DF90CF90BF90AF909F908F90089581
:1009B0004B015C01660F771F881F991F220F331FA1
:1009C000441F551FB7FC05C06C157D058E059F059E
:1009D00040F02F5F3F4F4F4F5F4F6C197D098E09DD
:1009E0009F093196D5CF8F929F92AF92BF92CF92AF
:1009F000DF92EF92FF920F931F936B017C01DA015C
:100A0000C9010097A105B10559F46FEF7FEF8FEF92
:100A10009FE7F7FE33C060E070E080E090E82EC012
:100A20004B015701F7FE07C08824992454018C1804
:100A30009D08AE08BF089C01AD01B7FF07C0222783
:100A40003327A901281B390B4A0B5B0BCC24F7FC7D
:100A5000C394DD24EE24FF248827B7FD83959927CE
:100A6000AA27BB27C816A9F0C501B4013EDF90959F
:100A70008095709561957F4F8F4F9F4F1F910F917C
:100A8000FF90EF90DF90CF90BF90AF909F908F90AE
:100A90000895C501B4016CDFF1CF4F925F926F9260
:100AA0007F928F929F92AF92BF92CF92DF92EF92FE
:100AB000FF920F931F93CF93DF93CDB7DEB763976A
:100AC0000FB6F894DEBF0FBECDBF80914903909161
:100AD0004A03892B99F5C0904C02D0904D02E090CA
:100AE0004E02F0904F02A70196016091530670915B
:100AF000540680915506909156060E948E158823C3
:100B000041F0C0925306D0925406E0925506F092FE
:100B1000560660915706709158069E012D5F3F4F13
:100B2000AE014F5F5F4F83E026DC8B81882331F07D
:100B300089819A81909348068093470680914F035C
:100B400090915003892B41F480914706909148067B
:100B50009093EE068093ED0600914B0310914C03A9
:100B60000115110501F58091B5069091B606A09189
:100B7000B706B091B8068093EB059093EC05A0936F
:100B8000ED05B093EE058091B9069091BA06A0915B
:100B9000BB06B091BC068093EF059093F005A0933F
:100BA000F105B093F2058091490390914A03892B96
:100BB00081F58091BD069091BE06A091BF06B091CF
:100BC000C0068093F3059093F405A093F505B093C8
:100BD000F6058091C1069091C206A091C306B0911E
:100BE000C4068093F7059093F805A093F905B09398
:100BF000FA058091C5069091C606A091C706B091EE
:100C0000C8068093FB059093FC05A093FD05B09367
:100C1000FE058091470390914803892B09F04CC150
:100C20006091EB057091EC058091ED059091EE05DA
:100C3000C090EF05D090F005E090F105F090F2053E
:100C40002091EF06211117C021E02093EF0625E047
:100C50002093F00660933706709338068093390628
:100C600090933A06C0923B06D0923C06E0923D0635
:100C7000F0923E0663C020914706309148064091AD
:100C8000F0064230A1F180F4413031F122334AE0E4
:100C9000340709F4F7C708F0E4C721333A40D1F626
:100CA00021E02093F0061CC0433061F1443071F71D
:100CB00020333A4061F26093370670933806809390
:100CC000390690933A0622E93AE046E05FE3C7012D
:100CD000B6010E942A152AC020333A4009F4B7CF42
:100CE0002DEC3CEC4CE45DE30E942A15B3CF20339D
:100CF0003A4009F4ACCF2DEC3CEC4CE45DE30E94AF
:100D00002915A8CF20333A4009F4A1CF60933706C4
:100D1000709338068093390690933A0622E93AE0B8
:100D200046E05FE3C701B6010E94291560933B06C8
:100D300070933C0680933D0690933E062091FB0500
:100D40003091FC054091FD055091FE0560913B06F8
:100D500070913C0680913D0690913E060E942915B7
:100D60006B017C012091100230911102409112021E
:100D7000509113020E9456176C877D878E879F873C
:100D80002091300230913102409132025091330271
:100D9000C701B6010E9456172091C9063091CA06B4
:100DA0004091CB065091CC060E942A154B015C0164
:100DB000C0903C02D0903D02E0903E02F0903F0295
:100DC0009B01AC01B601C7010E948E1587FD12C0C0
:100DD000C0902C02D0902D02E0902E02F0902F02B5
:100DE0009401A501B601C7010E945217181614F00C
:100DF000640175018090370690903806A0903906FE
:100E0000B0903A06209164023091650240916602EA
:100E100050916702C501B4010E94561720E030E0EE
:100E2000A9010E942A152B013C0120916C023091EE
:100E30006D0240916E0250916F02B601C7010E948F
:100E400056179B01AC01C301B2010E942A156093A1
:100E5000FF0570930006809301069093020620918F
:100E600068023091690240916A0250916B02C5019B
:100E7000B4010E94561720E030E0A9010E942A1513
:100E80004B015C012091700230917102409172021D
:100E900050917302B601C7010E9456179B01AC0125
:100EA000C501B4010E942A156093030670930406DD
:100EB000809305069093060620910F063091100648
:100EC00040911106509112066091FF057091000645
:100ED00080910106909102060E94291560933B06BD
:100EE00070933C0680933D0690933E06012B09F0DB
:100EF0007EC320911306309114064091150650913F
:100F00001606609103067091040680910506909183
:100F100006060E9429156B017C01AC019B016091C2
:100F200014027091150280911602909117020E948E
:100F3000561760934306709344068093450690933A
:100F4000460620913402309135024091360250918C
:100F50003702C701B6010E9456172091CD06309185
:100F6000CE064091CF065091D0060E942A155B0113
:100F70006C016091440270914502072E000C880BB1
:100F8000990B0E94C8157B018C019501A6010E9456
:100F90008E1587FD14C06091400270914102072EAA
:100FA000000C880B990B0E94C8157B018C019501E0
:100FB000A6010E945217181614F075018601B70198
:100FC000C8010E9403166B017C010E94331281113B
:100FD0005DC620E030E040E857E4C701B6010E945A
:100FE0001D166B017C0120E030E0A9010E948E15E6
:100FF00087FF4FC6C701B60190580E949A15719598
:101000006195710970934A0660934906C0903B064A
:10101000D0903C06E0903D06F0903E06A701960178
:10102000609118027091190280911A0290911B022E
:101030000E94561760933F067093400680934106C6
:1010400090934206209138023091390240913A0241
:1010500050913B02C701B6010E9456172091D1065C
:101060003091D2064091D3065091D4060E942A15A1
:101070005B016C016091460270914702072E000CE3
:10108000880B990B0E94C8157B018C019501A60164
:101090000E948E1587FD14C0609142027091430238
:1010A000072E000C880B990B0E94C8157B018C0140
:1010B0009501A6010E945217181614F075018601B9
:1010C000B701C8010E9403166B017C010E94331214
:1010D0008111E3C520E030E040E857E4C701B601E4
:1010E0000E941D166B017C0120E030E0A9010E94E6
:1010F0008E1587FFD5C5C701B60190580E949A1575
:1011000071956195710970934C0660934B06B2E03E
:10111000AB2EB12C1CECC12E12E0D12E02E0E02E41
:10112000F12C04EC12E022E030E04CEB52E065EDF3
:1011300076E087E096E00E941F13809080029090F6
:101140008102A0908202B0908302C0908402D0906D
:101150008502E0908602F090870220910706309188
:1011600008064091090650910A06C501B4010E9483
:101170005617A70196010E9456176C837D838E83B4
:101180009F8320910B0630910C0640910D065091E3
:101190000E06C501B4010E945617A70196010E94D0
:1011A0005617688779878A879B87809102038823EF
:1011B00009F47AC52091F8023091F902A091E50670
:1011C000B091E6060E9489200E94C81520E030E018
:1011D00040E052E30E94561760930F06709310068A
:1011E00080931106909312062091FC023091FD022B
:1011F000A091E906B091EA060E9489200E94C815D4
:1012000020E030E040E052E30E945617609313065E
:1012100070931406809315069093160661E0209152
:10122000490630914A068091480290914902281758
:10123000390709F460E08AE032D861E020914B067A
:1012400030914C0680914A0290914B022817390741
:1012500009F460E085E023D86091890670918A06E0
:1012600080918B0690918C065DD98C0190938806B5
:10127000809387068091490690914A066091D80232
:101280007091D9026817790744F06091DA02709181
:10129000DB02681779070CF4BC01072E000C880BE1
:1012A000990B0E94C8156B017C0120E030E04FE7EC
:1012B00053E40E948E1587FF1AC5C0923B06D09258
:1012C0003C06E0923D06F0923E0620E030E0A901A7
:1012D00060913B0670913C0680913D0690913E06E0
:1012E0000E945217181644F010923B0610923C06CA
:1012F00010923D0610923E0640913B0650913C06EE
:1013000060913D0670913E06C801D5D860917D067A
:1013100070917E0680917F069091800603D98C01A2
:1013200090937C0680937B068091490690914A06B3
:101330002091DC023091DD022817390744F020911A
:10134000DE023091DF02281739070CF49C01A091CE
:10135000F402B091F5020E948920AFE0959587953F
:1013600077956795AA95D1F770E090E080E00E94AC
:10137000C615AB01BC01C8019ED860917106709181
:1013800072068091730690917406CCD88C0190936C
:10139000700680936F0680914B0690914C06609189
:1013A000E0027091E1026817790744F06091E2026F
:1013B0007091E302681779070CF4BC0177FF03C052
:1013C000719561957109072E000C880B990B0E948D
:1013D000C8156B017C0120E030E04FE753E40E9428
:1013E0008E1587FF91C4C0923B06D0923C06E092D6
:1013F0003D06F0923E0620E030E0A90160913B06F8
:1014000070913C0680913D0690913E060E945217D5
:10141000181644F010923B0610923C0610923D06BE
:1014200010923E0640913B0650913C0660913D066D
:1014300070913E06C8013FD86091650670916606BE
:1014400080916706909168066DD88C019093640630
:101450008093630680914B0690914C066091E40264
:101460007091E5026817790744F06091E602709187
:10147000E702681779070CF4BC01072E000C880BF3
:10148000990B0E94C8156B017C0120E030E04FE70A
:1014900053E40E948E1587FF44C4C0923B06D0924D
:1014A0003C06E0923D06F0923E0620E030E0A901C5
:1014B00060913B0670913C0680913D0690913E06FE
:1014C0000E945217181644F010923B0610923C06E8
:1014D00010923D0610923E0640913B0650913C060C
:1014E00060913D0670913E06C8010E945B024090EB
:1014F0000F065090100660901106709012068090B2
:10150000130690901406A0901506B0901606209130
:1015100088023091890240918A0250918B02C30166
:10152000B2010E94561720E030E0A9010E942A155E
:101530006B017C01209190023091910240919202C6
:1015400050919302C501B4010E9456179B01AC0152
:10155000C701B6010E942A156B017C01C0921706D3
:10156000D0921806E0921906F0921A0620918C0289
:1015700030918D0240918E0250918F02C301B201D1
:101580000E94561720E030E0A9010E942A152B0185
:101590003C01209194023091950240919602509125
:1015A0009702C501B4010E9456179B01AC01C3010B
:1015B000B2010E942A1560931B0670931C0680934B
:1015C0001D0690931E06A7019601609198027091E6
:1015D000990280919A0290919B020E945617609303
:1015E0002306709324068093250690932606809107
:1015F000490390914A03892B01F5C090FB05D090D7
:10160000FC05E090FD05F090FE05C701B6010E94C3
:10161000921560931F067093200680932106909385
:101620002206C701B6010E94B9176093270670937E
:1016300028068093290690932A068091470390916B
:101640004803892BA1F52091270630912806409167
:10165000290650912A0660912306709124068091F4
:101660002506909126060E94561760932B067093CC
:101670002C0680932D0690932E0620911F06309104
:101680002006409121065091220660911706709124
:1016900018068091190690911A060E9456176093B9
:1016A0002F06709330068093310690933206809116
:1016B000510390915203892B09F04AC0C090E10672
:1016C000D090E206E090E306F090E406C701B60190
:1016D0000E94C8154B015C012091A4023091A50223
:1016E0004091A6025091A7020E948E1587FF26C343
:1016F000F7FC24C380919C0290919D02A0919E02D0
:10170000B0919F028093330690933406A0933506E0
:10171000B093360620E030E040E85FE36091A0023D
:101720007091A1028091A2029091A3020E942915BA
:101730009B01AC01C501B4010E94521787FD02C391
:101740001092E1061092E2061092E3061092E4066F
:1017500080914F0390915003892B09F043C0E09092
:10176000ED06F090EE06E1FA882780F98B83870179
:10177000F3E016950795FA95E1F71A83098320E0BF
:1017800030E0A901609133067091340680913506EE
:10179000909136060E948E158111E2C20095109537
:1017A000017011276E2D6170011101C060E081E3AD
:1017B0000E944F0160E0002341F0F694E794F69414
:1017C000E794E0FAEE24E0F86E2D85E30E944F01E5
:1017D000002321F061E08B81811101C060E083E38F
:1017E0000E944F0100914B0310914C03011511050C
:1017F00001F58091370690913806A0913906B09195
:101800003A068093B5069093B606A093B706B093B8
:10181000B8068091FB059091FC05A091FD05B09163
:10182000FE058093B9069093BA06A093BB06B093C9
:10183000BC068091490390914A03892B09F076C038
:101840004090BD065090BE066090BF067090C006E6
:101850008090C1069090C206A090C306B090C406C6
:1018600080923B0690923C06A0923D06B0923E06C6
:101870008091C5069091C606A091C706B091C80692
:10188000888B998BAA8BBB8BC0905802D090590241
:10189000E0905A02F0905B0220912F0630913006C2
:1018A0004091310650913206C701B6010E94561789
:1018B000A30192010E942A156093BD067093BE0693
:1018C0008093BF069093C00620912B0630912C0682
:1018D00040912D0650912E06C701B6010E94561761
:1018E000A50194010E942A156093C1067093C20657
:1018F0008093C3069093C40620911B0630911C066A
:1019000040911D0650911E06C701B6010E94561750
:10191000288939894A895B890E942A156093C506FE
:101920007093C6068093C7069093C80680914703BC
:1019300090914803892B01F520916002309161025A
:1019400040916202509163026C857D858E859F85F2
:101950000E9456172091C9063091CA064091CB06C5
:101960005091CC060E942A156093C9067093CA064E
:101970008093CB069093CC06012B09F00DC12091EA
:1019800043063091440640914506509146066091C9
:1019900078027091790280917A0290917B020E9484
:1019A00056172091CD063091CE064091CF0650912A
:1019B000D0060E942A156093CD067093CE068093C0
:1019C000CF069093D00620913F063091400640917B
:1019D00041065091420660917C0270917D02809197
:1019E0007E0290917F020E9456172091D10630917D
:1019F000D2064091D3065091D4060E942A156093D6
:101A0000D1067093D2068093D3069093D406E090CB
:101A1000E506F090E6068090E8029090E902092C35
:101A2000000CAA08BB0840904B0650904C06052CB1
:101A3000000C660877088EE0440C551C661C771C69
:101A40008A95D1F7A091EA02B091EB0297010E942A
:101A50008920461A570A680A790A2091EC023091C7
:101A6000ED02A091E706B091E8060E948920A3014B
:101A70009201261B370B480B590BCA01B9010EE026
:101A800010E0A50194010E94F304F092E806E092B0
:101A9000E7062EE095958795779567952A95D1F776
:101AA0007093E6066093E506E090E906F090EA069A
:101AB0008090EE029090EF02092C000CAA08BB085F
:101AC0004090490650904A06052C000C660877089D
:101AD0003EE0440C551C661C771C3A95D1F7A0914A
:101AE000F002B091F10297010E948920461A570A2C
:101AF000680A790A2091F2023091F302A091EB0674
:101B0000B091EC060E948920A3019201261B370B9D
:101B1000480B590BCA01B901A50194010E94F304B5
:101B2000F092EC06E092EB064EE09595879577955E
:101B300067954A95D1F77093EA066093E90652E0FB
:101B4000A52EB12C6CECC62E62E0D62E72E0E72EEC
:101B5000F12C04EC12E022E030E04CEB52E065EDB9
:101B600076E087E096E0AED58C819D81AE81BF8125
:101B70008093D9069093DA06A093DB06B093DC0637
:101B8000288539854A855B852093DD063093DE06FE
:101B90004093DF065093E0068091470390914803FD
:101BA00001968330910508F0DEC09093480380933E
:101BB00047038091490390914A030196863091052D
:101BC00008F0D6C090934A038093490380914B0359
:101BD00090914C0301968930910508F0CEC0909306
:101BE0004C0380934B0380914D0390914E030196DB
:101BF0008431910508F0C6C090934E0380934D0345
:101C000080914F039091500301968C33910508F019
:101C1000BEC09093500380934F03809151039091E5
:101C200052030196803F910508F0B6C0909352038D
:101C30008093510363960FB6F894DEBF0FBECDBFFD
:101C4000DF91CF911F910F91FF90EF90DF90CF9098
:101C5000BF90AF909F908F907F906F905F904F90CC
:101C600008952333BAE03B0749F024333A4011F09A
:101C70000C942A0624E02093F0061DC822E020934D
:101C8000F00639C823E02093F00640C8C12CD12CBF
:101C90007601C701B6014ED7B5C9C12CD12C76014A
:101CA000C701B60147D72FCA2091D9063091DA066D
:101CB0004091DB065091DC066C817D818E819F8195
:101CC000C8D660930F067093100680931106909308
:101CD00012062091DD063091DE064091DF0650911C
:101CE000E006688579858A859B85B3D68FCA80E0B2
:101CF00090E0AFE7B3E480933B0690933C06A0935B
:101D00003D06B0933E06E1CA80E090E0AFE7B3E461
:101D100080933B0690933C06A0933D06B0933E060D
:101D20006ACB80E090E0AFE7B3E480933B0690930A
:101D30003C06A0933D06B0933E06B7CB80E090E012
:101D4000DC01E0CC5FEFC51AD50AE50AF50AC092BE
:101D5000E106D092E206E092E306F092E406F8CCC7
:101D600001E010E01FCD109248031092470321CFED
:101D700010924A031092490329CF10924C031092FB
:101D80004B0331CF10924E0310924D0339CF109276
:101D9000500310924F0341CF1092520310925103FF
:101DA00049CF8F929F92AF92BF92DF92EF92FF92B4
:101DB0000F931F93CF93DF9384E090E003D3E3E48A
:101DC000F3E080E1DF011D928A95E9F7ABEEB5E023
:101DD00082E6FD0111928A95E9F7CDE4D6E084EA26
:101DE000FE0111928A95E9F7E0E1F2E080910003AB
:101DF000909101039093EE068093ED06409150027E
:101E00005091510260915202709153024093B50675
:101E10005093B6066093B7067093B806409154028B
:101E20005091550260915602709157024093B90645
:101E30005093BA066093BB067093BC0640915C0257
:101E400050915D0260915E0270915F024093BD0609
:101E50005093BE066093BF067093C0064093C106C0
:101E60005093C2066093C3067093C4064093C506A0
:101E70005093C6066093C7067093C806408951897F
:101E8000628973894093C9065093CA066093CB0652
:101E90007093CC0644895589668977894093CD062D
:101EA0005093CE066093CF067093D006408D518D2F
:101EB000628D738D4093D1065093D2066093D30602
:101EC0007093D4064091740250917502609176022D
:101ED0007091770294964D935D936D937C93979751
:101EE0002091D4023091D5023093E6062093E50686
:101EF0008091D6029091D7029093EA068093E906EA
:101F000098964D935D936D937C939B973093E806E1
:101F10002093E7069093EC068093EB0684859585E5
:101F2000A685B7858093D9069093DA06A093DB0641
:101F3000B093DC068093DD069093DE06A093DF0667
:101F4000B093E0068091FE029091FF0290934806C4
:101F50008093470684AD95ADA6ADB7AD8E839F83C4
:101F6000A887B987812C912C5401839489829A8205
:101F7000AB82BC8282E090E09D878C879B878A87BA
:101F800083E00E943B02DD24D394DD82109295060B
:101F90008092960690929706A0929806B092990623
:101FA00061E08AE00E944701D0929A0610928D0665
:101FB00080928E0690928F06A0929006B092910623
:101FC00061E085E00E944701D09292061CAA8DE054
:101FD00090E0A0E0B0E08CAF9DAFAEAFBFAF19AE68
:101FE0008DAA9EAAAFAAB8AEE12CF12C8701A80158
:101FF00097016DE070E080E090E00E94D6029BAF18
:102000008AAF6CAD7DAD8EAD9FAD0E9492029BAF4D
:102010008AAF0E945A02D9AE18A688E090E0A0E0EC
:10202000B0E088AB99ABAAABBBAB1DA689A69AA6BC
:10203000ABA6BCA6A801970168E070E080E090E044
:102040000E94D6029FA78EA768A979A98AA99BA9F1
:102050000E9492029FA78EA70E945A02DDA61C8EA4
:1020600087E090E0A0E0B0E08CA39DA3AEA3BFA367
:1020700019A28D8E9E8EAF8EB8A2A801970167E03F
:1020800070E080E090E00E94D6029BA38AA36CA13E
:102090007DA18EA19FA10E9492029BA38AA30E9470
:1020A0005A02D9A2188A86E090E0A0E0B0E0888FBA
:1020B000998FAA8FBB8F1D8A898A9A8AAB8ABC8A1C
:1020C000A801970166E070E080E090E00E94D602EF
:1020D0009F8B8E8B688D798D8A8D9B8D0E9492024D
:1020E0009F8B8E8B0E945A02DD8A1092AD068092E1
:1020F000AE069092AF06A092B006B092B10661E033
:1021000081E30E944701D092B2061092A506809208
:10211000A6069092A706A092A806B092A90661E032
:1021200085E30E944701D092AA0610929D068092F4
:102130009E0690929F06A092A006B092A10661E032
:1021400083E30E944701D092A206DF91CF911F91B5
:102150000F91FF90EF90DF90BF90AF909F908F9086
:10216000089580914D06811103C081E080934D0652
:1021700080919506811103C081E08093950680913E
:102180008D06811103C081E080938D0680918106C8
:10219000811136C081E08093810680918206909102
:1021A0008306A0918406B09185060197A105B1052B
:1021B00039F580918606882319F16091890670911E
:1021C0008A0680918B0690918C060E9492029093D1
:1021D00088068093870640E050E0BA010E945B02C7
:1021E0006091890670918A0680918B0690918C0689
:1021F0000E94920290938806809387060E9427038C
:1022000080917506811136C081E0809375068091BA
:10221000760690917706A0917806B091790601979D
:10222000A105B10539F580917A06882319F16091ED
:102230007D0670917E0680917F06909180060E94B7
:10224000920290937C0680937B0640E050E0BA01B6
:102250000E945B0260917D0670917E0680917F06F0
:10226000909180060E94920290937C0680937B0658
:102270000E94270380916906811136C081E0809316
:10228000690680916A0690916B06A0916C06B091E8
:102290006D060197A105B10539F580916E06882379
:1022A00019F1609171067091720680917306909198
:1022B00074060E9492029093700680936F0640E02D
:1022C00050E0BA010E945B02609171067091720643
:1022D00080917306909174060E949202909370060A
:1022E00080936F060E94270380915D06811136C09E
:1022F00081E080935D0680915E0690915F06A091DB
:102300006006B09161060197A105B10539F580918C
:102310006206882319F160916506709166068091C6
:102320006706909168060E949202909364068093DB
:10233000630640E050E0BA010E945B0260916506CE
:102340007091660680916706909168060E949202DD
:1023500090936406809363060E9427038091AD06E4
:10236000811103C081E08093AD068091A5068111A3
:1023700003C081E08093A50680919D06811103C072
:1023800081E080939D06089560E070E080E89FE71B
:10239000089560E070E080E89FE7089560E070E0F5
:1023A00080E89FEF089560E070E080E89FEF089577
:1023B00060E070E080EC9FEF089560E070E080ECFA
:1023C0009FEF0895F5DF6093FD067093FE068093FE
:1023D000FF0690930007F1DF6093F1067093F20619
:1023E0008093F3069093F406CFDF6093F906709321
:1023F000FA068093FB069093FC06CBDF6093F5060C
:102400007093F6068093F7069093F806C7DF609303
:102410000107709302078093030790930407C3DFBB
:10242000609305077093060780930707909308074A
:1024300008950F931F938B019C010027112720788B
:102440003F770115110520483F4749F4AB01BC0116
:102450006F77772781E0452B462B472B09F480E0E7
:102460001F910F910895E5CFCF93DF938091530390
:10247000909154030E94481CEC0180915503909167
:1024800056030E94481C0197C1F480915703909114
:102490005803A0915903B0915A032197C1F40196B2
:1024A000A11DB11D8093570390935803A093590326
:1024B000B0935A03DF91CF91089580915703909183
:1024C0005803A0915903B0915A03CD2B41F30197C2
:1024D000A109B109E7CFCF93DF9380915B0390917E
:1024E0005C030E94481CEC0180915D0390915E03A7
:1024F0000E94481C0197C1F480915F039091600392
:10250000A0916103B09162032197C1F40196A11DCE
:10251000B11D80935F0390936003A0936103B09318
:102520006203DF91CF91089580915F0390916003E2
:10253000A0916103B0916203CD2B41F30197A109F2
:10254000B109E7CFCF93DF9380915D0390915E0354
:102550000E94481CEC0180915B0390915C030E94F7
:10256000481C0197C1F480915F0390916003A09192
:102570006103B0916203CD2BC1F40196A11DB11D81
:1025800080935F0390936003A0936103B093620311
:10259000DF91CF91089580915F0390916003A091A6
:1025A0006103B0916203219741F30197A109B10939
:1025B000E7CFCF93DF9380915503909156030E940C
:1025C000481CEC0180915303909154030E94481CD5
:1025D0000197C1F48091570390915803A09159033A
:1025E000B0915A03CD2BC1F40196A11DB11D80936A
:1025F000570390935803A0935903B0935A03DF9164
:10260000CF9108958091570390915803A091590359
:10261000B0915A03219741F30197A109B109E7CF7E
:1026200002978231910540F48B5E9C4FFC018081C2
:10263000082E000C990B08958FEF9FEF08950F93CC
:102640001F93CF93DF93EC018A0120E030E040E854
:102650005FE3FB0160817181828193815FD281118F
:102660002CC0F80180819181A281B38123E0880F81
:10267000991F2A95E1F78D5A9C4FFC016481758161
:102680008681978185D2688379838A839B83F801C9
:1026900084819581A681B78133E0880F991F3A958F
:1026A000E1F78D5A9C4FFC01648175818681978189
:1026B0006FD26C837D838E839F83DF91CF911F9137
:1026C0000F910895CF92DF92EF92FF920F931F9395
:1026D000CF93DF937B01EA0120E030E040E85FE345
:1026E000DB016D917D918D919C9118D2882309F425
:1026F000DEC088819981AA81BB81F8012081318166
:1027000043E0880F991F4A95E1F7FC01ED5AFC4F11
:1027100031832083D6018D919C91938382834C8158
:102720005D816E817F81D80114962D913C91CA0103
:1027300053E0880F991F5A95E1F78D5A9C4FDC01A1
:1027400011963C932E93D60114962D913C91DC0169
:1027500013963C932E9312978081918160E00E94A2
:10276000DF1B88819981AA81BB8163E0880F991F53
:102770006A95E1F78D5A9C4FFC018281938160E05C
:102780000E94DF1B8C819D81AE81BF8173E0880F29
:10279000991F7A95E1F78D5A9C4FDC018D919C91A0
:1027A00060E00E94DF1B8C819D81AE81BF81E3E0F0
:1027B000880F991FEA95E1F78D5A9C4FFC018281A1
:1027C000938160E0FCD788819981AA81BB81F3E085
:1027D000880F991FFA95E1F78D5A9C4FDC018D9176
:1027E0009C9161E00E941B1C88819981AA81BB8118
:1027F000A3E0880F991FAA95E1F78D5A9C4FFC0121
:102800008281938161E00E941B1C8C819D81AE813D
:10281000BF81B3E0880F991FBA95E1F78D5A9C4F9D
:10282000DC018D919C9161E00E941B1C8C819D813B
:10283000AE81BF81C3E0880F991FCA95E1F78D5A19
:102840009C4FFC018281938161E0F5D78091530315
:1028500090915403E5DE41E050E069ED72E1C6D3AA
:102860008091550390915603DBDE41E050E064E334
:1028700072E1BCD380915B0390915C03D1DE41E0B7
:1028800050E062EA72E1B2D380915D0390915E0301
:10289000C7DE41E050E06BE672E1A8D380E090E053
:1028A000A0E8BFE3F70180839183A283B383DF9124
:1028B000CF911F910F91FF90EF90DF90CF900895EF
:1028C00040E052EC61E070E090E080E000C08130D8
:1028D000910579F01CF4892B39F008958230910527
:1028E00061F0039771F0089526E087E793E00C9478
:1028F0003A1D26E084E194E0FACF26E081EB94E0F3
:10290000F6CF26E08EE495E0F2CF0895CF92DF92E5
:10291000EF92FF9293D56B017C01C0926303D0923A
:102920006403E0926503F0926603809167039091DF
:102930006803A0916903B0916A03A7019601281B5F
:10294000390B4A0B5B0BCA01B90120D128E535E5EB
:1029500040ED54E4A7D287FD24C0C0926703D09213
:102960006803E0926903F0926A0326D067D5C090AD
:102970006703D0906803E0906903F0906A036C19D4
:102980007D098E099F0902D128E535E540ED54E423
:1029900089D287FD0CC081E090E090936D03809315
:1029A0006C0381E0FF90EF90DF90CF90089510923C
:1029B0006D0310926C03F5CF80916B0391E0980F3B
:1029C00090936B03882349F021E030E030936D034E
:1029D00020936C0380936B0308950E944D058091B2
:1029E0006B038150F7CFCF93DF9310920A071092B9
:1029F000090749D565DFC0911303D09114031982EB
:102A00001882CFD9F89481DF81E028813981232B86
:102A100009F080E08093090778948091090781117B
:102A200007C09FDBF89490E080E0DF91CF9108959C
:102A300081E028813981232B09F480E080930A0703
:102A400090910A0781E0911180E0809309075EDF91
:102A5000E4CF5058BB27AA270ED0C2C18BD130F08B
:102A600090D120F031F49F3F11F41EF480C10EF498
:102A7000E095E7FB4DC1E92FD5D180F3BA17620786
:102A800073078407950718F071F49EF504C20EF4DD
:102A9000E0950B2EBA2FA02D0B01B90190010C016E
:102AA000CA01A0011124FF27591B99F0593F50F486
:102AB000503E68F11A16F040A22F232F342F4427DE
:102AC000585FF3CF469537952795A795F0405395D6
:102AD000C9F77EF41F16BA0B620B730B840BBAF0A6
:102AE0009150A1F0FF0FBB1F661F771F881FC2F711
:102AF0000EC0BA0F621F731F841F48F48795779525
:102B00006795B795F7959E3F08F0B3CF9395880FDB
:102B100008F09927EE0F979587950895D5D008F47A
:102B200081E0089536D1E3956CC104D06894B11169
:102B3000B3C108957FD188F09F5790F0B92F99279E
:102B4000B751A0F0D1F0660F771F881F991F1AF0B8
:102B5000BA95C9F712C0B13081F09DD1B1E00895A6
:102B60009AC1672F782F8827B85F39F0B93FCCF327
:102B7000869577956795B395D9F73EF490958095AE
:102B8000709561957F4F8F4F9F4F0895E89409C0CE
:102B900097FB3EF490958095709561957F4F8F4F90
:102BA0009F4F9923A9F0F92F96E9BB279395F695A6
:102BB000879577956795B795F111F8CFFAF4BB0F24
:102BC00011F460FF1BC06F5F7F4F8F4F9F4F16C088
:102BD000882311F096E911C0772321F09EE8872F12
:102BE000762F05C0662371F096E8862F70E060E0CE
:102BF0002AF09A95660F771F881FDAF7880F969547
:102C0000879597F9089530D180F09F3740F491115E
:102C10000EF042C160E070E080E89FEB089526F47A
:102C20001B16611D711D811D79C093C0A3D018F0C2
:102C300011F0A7D038F49BC02FC1E92FF3D0B0F327
:102C40005523C9F3E7FB6217730784079507A8F1BB
:102C500099F3E92FFF2788232AF03197660F771F12
:102C6000881FDAF7952F5527442332F091505040B2
:102C7000220F331F441FD2F7BB27E91BF50B621B42
:102C8000730B840BB109C1F222F4620F731F841F0E
:102C9000B11D31972AF0660F771F881FBB1FEFCF3A
:102CA000915050405AF041F0882332F0660F771F60
:102CB000881F91505040C1F793954BC086957795EA
:102CC00067959F5FD9F7F8CF990F0008550FAA0BAA
:102CD000E0E8FEEF16161706E807F907C0F012162F
:102CE0001306E407F50798F0621B730B840B950B32
:102CF00039F40A2661F0232B242B252B21F4089587
:102D00000A2609F4A140A6958FEF811D811D089523
:102D100097F99F6780E870E060E00895882371F478
:102D2000772321F09850872B762F07C0662311F464
:102D300099270DC09051862B70E060E02AF09A959B
:102D4000660F771F881FDAF7880F9695879597F992
:102D500008959F3F31F0915020F4879577956795BE
:102D6000B795880F911D9695879597F908959FEFD0
:102D700080EC089500240A94161617061806090612
:102D8000089500240A9412161306140605060895E1
:102D9000EECF50D0E8F3E894E0E0BB279F57F0F087
:102DA0002AED3FE049EC06C0EE0FBB0F661F771F10
:102DB000881F28F0B23A62077307840728F0B25AD6
:102DC000620B730B840BE3959A9572F7803830F49D
:102DD0009A95BB0F661F771F881FD2F79048BBCF0D
:102DE000092E0394000C11F4882352F0BB0F40F419
:102DF000BF2B11F460FF04C06F5F7F4F8F4F9F4F59
:102E00000895EF93E0FF06C0A2EA2AED3FE049EC07
:102E10005FEB31DEE5DF0F90039401FC9058E4EEA8
:102E2000F0E0ADC057FD9058440F551F59F05F3F7B
:102E300071F04795880F97FB991F61F09F3F79F0DC
:102E400087950895121613061406551FF2CF46955E
:102E5000F1DF08C0161617061806991FF1CF8695E0
:102E60007105610508940895E5DFA0F0BEE7B91784
:102E700088F4BB279F3860F41616B11D672F782F92
:102E80008827985FF7CF869577956795B11D9395BD
:102E90009639C8F30895E894BB2766277727CB01B6
:102EA00097F9089511DF08F48FEF08950BD098CFAC
:102EB00061DF28F066DF18F0952309F029CF57CF9E
:102EC0001124EACFAFDFA0F3959FD1F3950F50E027
:102ED000551F629FF001729FBB27F00DB11D639FCC
:102EE000AA27F00DB11DAA1F649F6627B00DA11D72
:102EF000661F829F2227B00DA11D621F739FB00D18
:102F0000A11D621F839FA00D611D221F749F332787
:102F1000A00D611D231F849F600D211D822F762F20
:102F20006A2F11249F5750408AF0E1F088234AF01D
:102F3000EE0FFF1FBB1F661F771F881F9150504069
:102F4000A9F79E3F510570F0E3CEA6CF5F3FECF3AB
:102F5000983EDCF3869577956795B795F795E79555
:102F60009F5FC1F7FE2B880F911D9695879597F966
:102F700008959F930EDF0F9007FCEE5F42CF9F9363
:102F80008F937F936F93FF93EF939B01AC018EDF41
:102F9000EF91FF9105D02F913F914F915F9186CF97
:102FA000DF93CF931F930F93FF92EF92DF927B01FA
:102FB0008C01689405C0DA2EEF0184DFFE01E894ED
:102FC000A5912591359145915591AEF3EF0153DDD2
:102FD000FE019701A801DA9479F7DF90EF90FF9056
:102FE0000F911F91CF91DF9108950895883008F0D7
:102FF00076C0E82FF0E0EE0FFF1FED5FFC4F71830E
:1030000060838150873008F03DC0E82FF0E08827CA
:10301000E35FF74E8F4F0C9481204A1814181C1848
:103020002818351856186318809169008C7F482B32
:1030300040936900E89A089580916900837F440F66
:10304000551F440F551F482B40936900E99A089576
:10305000809169008F7C74E0440F551F7A95E1F7E9
:10306000482B40936900EA9A0895809169008F7314
:1030700066E0440F551F6A95E1F7482B40936900BD
:10308000EB9A089580916A008C7F482B40936A00E8
:10309000EC9A089580916A00837F440F551F440F76
:1030A000551F482B40936A00ED9A089580916A005D
:1030B0008F7C24E0440F551F2A95E1F7482B40935D
:1030C0006A00EE9A089580916A008F7396E0440F2B
:1030D000551F9A95E1F7482B40936A00EF9A08959F
:1030E0001F920F920FB60F9211240BB60F922F93CF
:1030F0003F934F935F936F937F938F939F93AF9380
:10310000BF93EF93FF93E0910703F09108031995A4
:10311000FF91EF91BF91AF919F918F917F916F91AF
:103120005F914F913F912F910F900BBE0F900FBE6B
:103130000F901F9018951F920F920FB60F921124A7
:103140000BB60F922F933F934F935F936F937F93A1
:103150008F939F93AF93BF93EF93FF93E0910903F6
:10316000F0910A031995FF91EF91BF91AF919F9153
:103170008F917F916F915F914F913F912F910F9020
:103180000BBE0F900FBE0F901F9018951F920F92BD
:103190000FB60F9211240BB60F922F933F934F93BC
:1031A0005F936F937F938F939F93AF93BF93EF93AF
:1031B000FF93E0910B03F0910C031995FF91EF91B0
:1031C000BF91AF919F918F917F916F915F914F913F
:1031D0003F912F910F900BBE0F900FBE0F901F903D
:1031E00018951F920F920FB60F9211240BB60F92E3
:1031F0002F933F934F935F936F937F938F939F93FF
:10320000AF93BF93EF93FF93E0910D03F0910E0303
:103210001995FF91EF91BF91AF919F918F917F9100
:103220006F915F914F913F912F910F900BBE0F9037
:103230000FBE0F901F9018951F920F920FB60F920E
:1032400011240BB60F922F933F934F935F936F937D
:103250007F938F939F93AF93BF93EF93FF93E091EF
:103260000303F09104031995FF91EF91BF91AF9182
:103270009F918F917F916F915F914F913F912F918E
:103280000F900BBE0F900FBE0F901F9018951F92BE
:103290000F920FB60F9211240BB60F922F933F93FC
:1032A0004F935F936F937F938F939F93AF93BF934E
:1032B000EF93FF93E0910503F09106031995FF91B9
:1032C000EF91BF91AF919F918F917F916F915F919E
:1032D0004F913F912F910F900BBE0F900FBE0F900B
:1032E0001F9018951F920F920FB60F9211240BB6D4
:1032F0000F922F933F934F935F936F937F938F938F
:103300009F93AF93BF93EF93FF93E0910F03F091DF
:1033100010031995FF91EF91BF91AF919F918F91FC
:103320007F916F915F914F913F912F910F900BBEC5
:103330000F900FBE0F901F9018951F920F920FB60F
:103340000F9211240BB60F922F933F934F935F93DD
:103350006F937F938F939F93AF93BF93EF93FF935D
:10336000E0911103F09112031995FF91EF91BF9134
:10337000AF919F918F917F916F915F914F913F910D
:103380002F910F900BBE0F900FBE0F901F901895AE
:103390001F920F920FB60F9211242F933F938F938A
:1033A0009F93AF93BF9380916F0390917003A0910F
:1033B0007103B091720330916E0323E0230F2D3718
:1033C00058F50196A11DB11D20936E0380936F03E4
:1033D00090937003A0937103B09372038091730371
:1033E00090917403A0917503B09176030196A11D8D
:1033F000B11D8093730390937403A0937503B093EE
:103400007603BF91AF919F918F913F912F910F9034
:103410000FBE0F901F90189526E8230F0296A11D4E
:10342000B11DD2CF2FB7F89460916F0370917003E4
:1034300080917103909172032FBF08953FB7F89464
:103440008091730390917403A0917503B0917603FA
:1034500026B5A89B05C02F3F19F00196A11DB11DEF
:103460003FBFBA2FA92F982F8827BC01CD01620F2B
:10347000711D811D911D42E0660F771F881F991FE6
:103480004A95D1F70895789484B5826084BD84B557
:10349000816084BD85B5826085BD85B5816085BD4F
:1034A000EEE6F0E0808181608083E1E8F0E0108268
:1034B000808182608083808181608083E0E8F0E0A9
:1034C000808181608083E1EBF0E080818460808393
:1034D000E0EBF0E0808181608083E1E9F0E08081D1
:1034E00082608083808181608083E0E9F0E0808178
:1034F00081608083E1EAF0E0808182608083808166
:1035000081608083E0EAF0E0808181608083E1E295
:10351000F1E0808182608083808181608083E0E24D
:10352000F1E0808181608083EAE7F0E0808184605F
:1035300080838081826080838081816080838081BC
:10354000806880831092C10008951F93CF93DF930A
:10355000182FEB0161E033D1209731F460E0812F27
:10356000DF91CF911F9167C1CF3FD10511F461E089
:10357000F6CFE12FF0E0EE5FFE4FE491E150E23153
:1035800008F0B2C0F0E08827E853F54E8F4FB9C578
:10359000DA1AE21AE71AF11AFB1A741B051B0D1B43
:1035A000151B1F1B291B331B421B4C1B741B561B5B
:1035B000601B6A1B84B5806884BDC7BDDF91CF9155
:1035C0001F91089584B5806284BDC8BDF7CF8091F6
:1035D0008000806880938000D0938900C093880029
:1035E000EDCF80918000806280938000D0938B002B
:1035F000C0938A00E3CF8091800088608093800030
:10360000D0938D00C0938C00D9CF8091B00080689A
:103610008093B000C093B300D1CF8091B00080629E
:103620008093B000C093B400C9CF809190008068AF
:1036300080939000D0939900C0939800BFCF809161
:103640009000806280939000D0939B00C0939A007A
:10365000B5CF80919000886080939000D0939D00BA
:10366000C0939C00ABCF8091A00080688093A000A5
:103670008091A0008F7B8093A000D093A900C0937D
:10368000A8009CCF8091A00080628093A000D0937E
:10369000AB00C093AA0092CF8091A0008860809375
:1036A000A000D093AD00C093AC0088CF80912001E2
:1036B000806880932001D0932901C09328017ECF98
:1036C00080912001806280932001D0932B01C093D0
:1036D0002A0174CF80912001886080932001D093CB
:1036E0002D01C0932C016ACFC038D1050CF03FCF1B
:1036F00035CF8150823108F059C0E82FF0E088279B
:10370000EC57F44E8F4FFDC4A41BA81B961B9C1BAB
:10371000A01BD61BAB1BB11BB51BBB1BBF1BC31B0D
:10372000C91BCD1BD61BD11BD71BDB1B8091800077
:103730008F77809380000895809180008F7DF9CFEE
:1037400080918000877FF5CF84B58F7784BD089501
:1037500084B58F7DFBCF8091B0008F778093B000D0
:1037600008958091B0008F7DF9CF809190008F7780
:10377000809390000895809190008F7DF9CF809183
:103780009000877FF5CF8091A0008F778093A00075
:1037900008958091A0008F7DF9CF8091A000877F50
:1037A000F5CF809120018F7780932001089580913B
:1037B00020018F7DF9CF80912001877FF5CFCF93B6
:1037C000DF9390E0FC01E85BFE4F249182579E4F0F
:1037D000FC0184918823C9F090E0880F991FFC01B7
:1037E000E85FFD4FA591B491FC01E251FE4FC591F8
:1037F000D49161110DC09FB7F8948C9120958223CC
:103800008C938881282328839FBFDF91CF910895CF
:10381000623051F49FB7F8943C91822F80958323B6
:103820008C93E8812E2BEFCF8FB7F894EC912E2B51
:103830002C938FBFEACF1F93CF93DF93282F30E0D5
:10384000F901EE5FFE4F8491F901E85BFE4FD491E0
:10385000F901E257FE4FC491CC23A1F0162F81113C
:1038600048DFEC2FF0E0EE0FFF1FE251FE4FA59175
:10387000B4918FB7F894EC91111108C0D095DE2364
:10388000DC938FBFDF91CF911F910895DE2BF8CF8E
:10389000CF93DF93282F30E0F901EE5FFE4F849144
:1038A000F901E85BFE4FD491F901E257FE4FC49154
:1038B000CC2399F081111DDFEC2FF0E0EE0FFF1FFC
:1038C000EC52FE4FA591B491EC91ED2381E090E094
:1038D00009F480E0DF91CF91089580E090E0FACF85
:1038E000FC01918D228D892F90E0805C9F4F821B7F
:1038F00091098F7399270895FC01918D828D9817F6
:1039000031F0828DE80FF11D858D90E008958FEFE5
:103910009FEF0895FC01918D828D981761F0A28D23
:10392000AE0FBF2FB11D5D968C91928D9F5F9F73DF
:10393000928F90E008958FEF9FEF0895FC01538DD3
:10394000448D252F30E0842F90E0821B930B541779
:1039500010F0CF96089501970895FC01A48DA80F4B
:10396000B92FB11DA35ABF4F2C91848D90E00196C1
:103970008F739927848FA689B7892C93A089B189E1
:103980008C91837080648C93938D848D981306C082
:103990000288F389E02D80818F7D80830895CF9305
:1039A000DF93EC01888D8823B1F0AA89BB89E8896F
:1039B000F9898C9185FD03C0808186FD0CC00FB60E
:1039C00007FCF7CF8C9185FFF2CF808185FFEDCF8B
:1039D000CE01C3DFEACFDF91CF910895EF92FF923E
:1039E0000F931F93CF93DF93EC0181E0888F9B8D22
:1039F0008C8D98131AC0E889F989808185FF15C0DC
:103A00009FB7F894EE89FF896083E889F9898081FE
:103A10008370806480839FBF81E090E0DF91CF91CD
:103A20001F910F91FF90EF900895F62E0B8D10E0EF
:103A30000F5F1F4F0F731127E02E8C8D8E110BC05F
:103A40000FB607FCFACFE889F989808185FFF5CFA9
:103A5000CE0183DFF2CFEB8DEC0FFD2FF11DE35A8A
:103A6000FF4FF0829FB7F8940B8FEA89FB89808122
:103A70008062D0CFCF92DF92EF92FF921F93CF93CD
:103A8000DF93EC016A017B01122FE889F98982E05A
:103A90008083C11481EED806E104F10499F060E05E
:103AA00079E08DE390E0A701960109D32150310917
:103AB000410951095695479537952795211580E17C
:103AC000380790F0E889F989108260E874E88EE19F
:103AD00090E0A7019601F3D2215031094109510923
:103AE0005695479537952795EC85FD853083EE856E
:103AF000FF852083188EEC89FD891083EA89FB8974
:103B0000808180618083EA89FB89808188608083ED
:103B1000EA89FB89808180688083EA89FB898081CA
:103B20008F7D8083DF91CF911F91FF90EF90DF9089
:103B3000CF9008951F920F920FB60F9211240BB6DB
:103B40000F922F938F939F93EF93FF93E0918703AF
:103B5000F09188038081E0918D03F0918E0382FDC6
:103B60001DC09081809190038F5F8F73209191038E
:103B7000821741F0E0919003F0E0E958FC4F958FF7
:103B800080939003FF91EF919F918F912F910F90D0
:103B90000BBE0F900FBE0F901F9018958081F2CF33
:103BA0001F920F920FB60F9211240BB60F922F9304
:103BB0003F934F935F936F937F938F939F93AF93B5
:103BC000BF93EF93FF9387E793E0C7DEFF91EF91F9
:103BD000BF91AF919F918F917F916F915F914F9125
:103BE0003F912F910F900BBE0F900FBE0F901F9023
:103BF0001895E7E7F3E01382128288EE93E0A0E0E5
:103C0000B0E084839583A683B7838BE293E09183AE
:103C1000808385EC90E09587848784EC90E097879B
:103C2000868780EC90E0918B808B81EC90E0938B89
:103C3000828B82EC90E0958B848B86EC90E0978B66
:103C4000868B118E128E138E148E08951F920F92F2
:103C50000FB60F9211240BB60F922F938F939F9351
:103C6000EF93FF93E0912404F09125048081E0918B
:103C70002A04F0912B0482FD1DC0908180912D04B7
:103C80008F5F8F7320912E04821741F0E0912D04F5
:103C9000F0E0EC5EFB4F958F80932D04FF91EF9148
:103CA0009F918F912F910F900BBE0F900FBE0F9091
:103CB0001F9018958081F2CF1F920F920FB60F922E
:103CC00011240BB60F922F933F934F935F936F93F3
:103CD0007F938F939F93AF93BF93EF93FF9384E171
:103CE00094E03BDEFF91EF91BF91AF919F918F9157
:103CF0007F916F915F914F913F912F910F900BBEEC
:103D00000F900FBE0F901F901895E4E1F4E013821E
:103D1000128288EE93E0A0E0B0E084839583A683CE
:103D2000B7838BE293E0918380838DEC90E095875D
:103D300084878CEC90E09787868788EC90E0918B65
:103D4000808B89EC90E0938B828B8AEC90E0958B52
:103D5000848B8EEC90E0978B868B118E128E138E57
:103D6000148E08951F920F920FB60F9211240BB666
:103D70000F922F938F939F93EF93FF93E091C10442
:103D8000F091C2048081E091C704F091C80482FDE3
:103D90001DC090818091CA048F5F8F732091CB04E6
:103DA000821741F0E091CA04F0E0EF54FB4F958F89
:103DB0008093CA04FF91EF919F918F912F910F9063
:103DC0000BBE0F900FBE0F901F9018958081F2CF01
:103DD0001F920F920FB60F9211240BB60F922F93D2
:103DE0003F934F935F936F937F938F939F93AF9383
:103DF000BF93EF93FF9381EB94E0AFDDFF91EF91E1
:103E0000BF91AF919F918F917F916F915F914F91F2
:103E10003F912F910F900BBE0F900FBE0F901F90F0
:103E20001895E1EBF4E01382128288EE93E0A0E0B3
:103E3000B0E084839583A683B7838BE293E091837C
:103E4000808385ED90E09587848784ED90E0978767
:103E5000868780ED90E0918B808B81ED90E0938B55
:103E6000828B82ED90E0958B848B86ED90E0978B32
:103E7000868B118E128E138E148E08951F920F92C0
:103E80000FB60F9211240BB60F922F938F939F931F
:103E9000EF93FF93E0915E05F0915F058081E091E3
:103EA0006405F091650582FD1DC0908180916705D4
:103EB0008F5F8F7320916805821741F0E09167054D
:103EC000F0E0E25BFA4F958F80936705FF91EF91E9
:103ED0009F918F912F910F900BBE0F900FBE0F905F
:103EE0001F9018958081F2CF1F920F920FB60F92FC
:103EF00011240BB60F922F933F934F935F936F93C1
:103F00007F938F939F93AF93BF93EF93FF938EE431
:103F100095E023DDFF91EF91BF91AF919F918F913C
:103F20007F916F915F914F913F912F910F900BBEB9
:103F30000F900FBE0F901F901895EEE4F5E01382DE
:103F4000128288EE93E0A0E0B0E084839583A6839C
:103F5000B7838BE293E09183808385E391E095873B
:103F6000848784E391E09787868780E391E0918B53
:103F7000808B81E391E0938B828B82E391E0958B40
:103F8000848B86E391E0978B868B118E128E138E35
:103F9000148E0895AF92BF92CF92DF92EF92FF926C
:103FA0000F931F93CF93DF936C017B018B01040F61
:103FB000151FEB015E01AE18BF08C017D10759F0FD
:103FC0006991D601ED91FC910190F081E02DC6013F
:103FD0001995892B79F7C501DF91CF911F910F9129
:103FE000FF90EF90DF90CF90BF90AF9008950F9328
:103FF0001F93CF93DF93EC0115DA688779878A875F
:104000009B87E881F9810284F385E02DCE01199523
:1040100097FF14C007DA088519852A853B85601B40
:10402000710B820B930B0C811D812E813F816017D8
:1040300071078207930728F38FEF9FEFDF91CF91EE
:104040001F910F910895AF92BF92CF92DF92EF929E
:10405000FF920F931F93CF93DF935C017B018B0142
:10406000040F151FEB016E01CE18DF08C017D10732
:1040700031F0C501BCDF97FD02C08993F4CFC601C2
:10408000DF91CF911F910F91FF90EF90DF90CF9034
:10409000BF90AF900895AA1BBB1B51E107C0AA1F98
:1040A000BB1FA617B70710F0A61BB70B881F991FD9
:1040B0005A95A9F780959095BC01CD010895A1E28C
:1040C0001A2EAA1BBB1BFD010DC0AA1FBB1FEE1F92
:1040D000FF1FA217B307E407F50720F0A21BB30BDD
:1040E000E40BF50B661F771F881F991F1A9469F759
:1040F00060957095809590959B01AC01BD01CF01B5
:104100000895EE0FFF1F881F8BBF0790F691E02DDB
:10411000199405D0332312F48A1B9B0B10C0A29F65
:10412000B001B39FC001A39F700D811D1124911D8B
:10413000B29F700D811D1124911D0895F0DFB7FF0E
:0C4140000895821B930B0895F894FFCFA4
:10414C002B022F023302370256015C016201680117
:10415C007466E23B88768444EFBC7A44000000002D
:10416C00000000000000000000000000DB0F49BF51
:10417C0069E6213F3854FE4060B5F040DB0F493F03
:10418C0000000000FF00FF00000000000000000025
:10419C0000000000000000000AD7233C00000000D3
:1041AC000AD7A33B0000803F0000803F5C8FC2BD5C
:1041BC005C8FC23D000000008FC2753C8FC2753C05
:1041CC00882ADFB8555585420000003FCA6BA8C04D
:1041DC000000003FCA6BA8400000803F0000803FF9
:1041EC000000A04000000040000000000000803FE4
:1041FC0000000040000000008988083D000000001D
:10420C00010000000200000012000000030000008A
:10421C001300000000000000FF000000000001FF80
:10422C00000001FFFF0000000040A49E9426004007
:10423C00829FDA2500800000D6460000DF44000093
:10424C00000000F517F517F517F517F517F517F525
:10425C0017F51743030001FFFFFFFFFFFFFFFFFFF1
:10426C00FFFFFFFFFF050400000000EE1CCA1F9EAD
:0A427C001CCF1C701C8A1C7C1C0067
:00000001FF
