:1000000014C100000C94DA360C9405370C94303788
:100010000C945B370C9486370C94B1370C94DC3716
:100020000C94073833C1000031C100002FC100001B
:100030002DC100002BC1000029C1000027C1000014
:1000400025C1000023C1000021C100001FC1000024
:100050001DC100001BC1000019C100000C94323802
:1000600015C100000C943A3C0C94703C0FC1000088
:100070000DC100000BC1000009C1000007C1000054
:1000800005C1000003C1000001C10000FFC0000065
:100090000C94C63C0C94FC3CF9C00000F7C0000076
:1000A000F5C00000F3C00000F1C00000EFC0000088
:1000B000EDC00000EBC00000E9C00000E7C0000098
:1000C000E5C00000E3C00000E1C000000C94523D18
:1000D0000C94883DDBC000000C94DE3D0C94143E73
:1000E000D5C0000005A84CCDB2D44EB93836A9020F
:1000F0000C50B9918688083CA6AAAA2ABE00000026
:10010000803F00000A0B02090C0D0E0807030401D2
:1001100000000000000000000000000000000000DF
:1001200000000000000000000000000000001211AC
:1001300010000000000000000000000000000000AF
:10014000000000000000000001021020200808103C
:100150002040102040800201020108040201010237
:100160000408102040808040201008040201800410
:10017000020180402010080402010804020101026B
:10018000040810204080010204081020408005056A
:100190000505070508080808020202020A0A0808FD
:1001A000040404040101010101010101030303032B
:1001B00003030303040707070C0C0C0C0C0C0C0CBA
:1001C0000202020206060606060606060B0B0B0BCB
:1001D0000B0B0B0B000020002300260029002C0035
:1001E0002F00320000010000030106010901000098
:1001F0002200250028002B002E00310034000201CF
:100200000000050108010B01000021002400270067
:100210002A002D0030003300010100000401070115
:100220000A01993C253DB13D3D3E11241FBECFEF53
:10023000D1E2DEBFCDBF00E00CBF13E0A0E0B2E032
:10024000EEEAFEE700E00BBF02C007900D92A43E6D
:10025000B107D9F72CE1A4EEB3E001C01D92A63599
:10026000B207E1F711E0C5E1D1E000E006C0219757
:100270000109802FFE010E94223FC131D10780E099
:100280000807A9F70E94EA320C94553FB9CE6111D4
:1002900002C00C947F3A6130E1F362E0FACF66234A
:1002A00019F061E00C94BB3A60E0FCCFAB01BC01FB
:1002B00080E898E10C94C33EAB01BC018DE199E16B
:1002C0000C94C33EAB01BC018AEB99E10C94C33E94
:1002D000AB01BC0187E59AE10C94C33E8F929F92DB
:1002E000AF92BF92CF92DF92EF92FF920F931F9344
:1002F000CF93DF93CDB7DEB77B014A015901CDB66D
:10030000DEB69B01220F331F4DB75EB7421B530B66
:100310000FB6F8945EBF0FBE4DBF0DB71EB70F5F8F
:100320001F4FE82FF0E0EE0FFF1FE85FFD4F019039
:10033000F081E02DC8011995F801D401E00EF11EFD
:10034000EE15FF0519F081918D93FACF81E0F5014B
:1003500080830FB6F894DEBE0FBECDBEDF91CF9185
:100360001F910F91FF90EF90DF90CF90BF90AF90D3
:100370009F908F9008959F92AF92BF92CF92DF92FD
:10038000EF92FF920F931F93CF93DF93CDB7DEB71A
:10039000C054D1090FB6F894DEBF0FBECDBFB82E42
:1003A0008B01942EA52E6901E82EF12CEE0CFF1C7A
:1003B000F701E050FE4F0190F081E02D1995801774
:1003C0009107C9F49601492D5A2DBC018B2D86DF6A
:1003D000C05CDF4F0FB6F894DEBF0FBECDBFDF911C
:1003E000CF911F910F91FF90EF90DF90CF90BF9032
:1003F000AF909F9008958017910748F4E92DFA2D4A
:100400000E0F1F1FE017F10719F11192FBCF980192
:10041000220F331F2817390728F09601492D5A2D2E
:10042000B801D4CFB8010E94EC3ECB010197809F68
:10043000B001819F700D909F700D1124F701E85F4E
:10044000FD4F0190F081E02DCE0101961995E5CF89
:10045000F6011082BDCF80E898E10C94103B8DE14D
:1004600099E10C94103B8AEB99E10C94103B87E5E1
:100470009AE10C94103B8823E1F0823061F08330E4
:1004800089F08130B1F440E052EC61E070E081E04D
:1004900090E00C94D63140E052EC61E070E082E0F4
:1004A00090E0F7CF40E052EC61E070E083E090E054
:1004B000F0CF08950895CF92DF92EF92FF92CF93FD
:1004C000882351F16A017B01CFEFC80F20E030E0B3
:1004D000A901CB01B6010E94F83387FF11C0C70103
:1004E000B60190580E9404349B01AC016C2F70E05F
:1004F00090E080E0CF91FF90EF90DF90CF90B2C07E
:10050000C701B6010E94FF338C2FCF91FF90EF906F
:10051000DF90CF900C944539CF91FF90EF90DF9012
:10052000CF9008950F931F938B019C0183E0369524
:100530002795179507958A95D1F70C511C4F462F93
:10054000477021E030E0F90102C0EE0FFF1F4A952D
:10055000E2F7AF01F80120812423CB01019621119C
:1005600002C090E080E01F910F9108950F931F93B8
:100570008B019C0183E036952795179507958A9501
:10058000D1F7677081E090E001C0880F6A95EAF7C3
:10059000F801EC51FC4F2081452B31F480958223EA
:1005A00080831F910F910895822BFACF2F923F9253
:1005B0004F925F926F927F928F929F92AF92BF9273
:1005C000CF92DF92EF92FF920F931F93CF93DF931F
:1005D000D62EC72E782E692E49015A01280161E0D6
:1005E0008D2D0E947F3ACD2DDC2D8E010F5F1F4F88
:1005F000A8016D2D7C2D872D962DB8DF20E030E0F1
:10060000A901C201B7010E94BC35181664F4C201E9
:10061000B7010E9404342B01C501B4010E940434C7
:10062000A201CE0123D0C801DF91CF911F910F917C
:10063000FF90EF90DF90CF90BF90AF909F908F9002
:100640007F906F905F904F903F902F9008958823F8
:1006500041F08150682F70E090E080E050E040E091
:1006600085CF0895862FB9010C9445399C01FC0172
:10067000EE5FFE4FE491E150E231E0F4F0E08827D4
:10068000EB5BFC4F8F4F0C94223F57035E036103DB
:1006900078038D035A03A203AE03B203C903DE033A
:1006A000F3030A041F045A0334044B04600484B5A2
:1006B000806884BD60E0822F0C94BB3A84B5806270
:1006C000F8CF809180008C7F826080938000809141
:1006D0008100807E8061682B609381005093870049
:1006E0004093860080918000806880938000E2CFF4
:1006F000809180008C7F8260809380008091810057
:10070000807E8061682B60938100509387004093C6
:100710008600809180008062E8CF809180008C7F8D
:1007200082608093800080918100807E8061682B50
:1007300060938100509387004093860080918000F1
:100740008860D3CF8091B00080688093B0008091A2
:10075000B100887F682B6093B100ACCF8091B0006E
:100760008062F3CF809190008C7F826080939000B4
:1007700080919100807E8061682B609391005093FE
:10078000970040939600809190008068809390003D
:1007900091CF809190008C7F8260809390008091B7
:1007A0009100807E8061682B609391005093970048
:1007B00040939600809190008062E8CF80919000F5
:1007C0008C7F82608093900080919100807E806118
:1007D000682B60939100509397004093960080910E
:1007E00090008860D3CF8091A0008C7F826080933E
:1007F000A0008091A100807E8061682B6093A100A1
:100800005093A7004093A6008091A0008068809339
:10081000A00050CF8091A0008C7F82608093A000C8
:100820008091A100807E8061682B6093A10050932D
:10083000A7004093A6008091A0008062E8CF80913D
:10084000A0008C7F82608093A0008091A100807EB8
:100850008061682B6093A1005093A7004093A6008D
:100860008091A0008860D3CF809120018C7F82602E
:100870008093200180912101807E8061682B6093AC
:100880002101509327014093260180912001806827
:10089000809320010FCF809120018C7F8260809314
:1008A000200180912101807E8061682B609321016D
:1008B0005093270140932601809120018062E8CF68
:1008C000809120018C7F82608093200180912101A2
:1008D000807E8061682B60932101509327014093B3
:1008E0002601809120018860D3CFCF93DF934115FB
:1008F000510509F450C0EA01DC011296ED91FC911A
:1009000080819181A281B38180937D0490937E0444
:10091000A0937F04B093800484819581A681B781E0
:100920008093790490937A04A0937B04B0937C0421
:1009300080859185A285B385809375049093760414
:10094000A0937704B093780484859585A685B785B0
:100950008093710490937204A0937304B093740411
:1009600010926D0410926E0410926F041092700435
:1009700080918204811103C08881882379F080915D
:10098000030390910403049731F083E090E0909387
:10099000040380930303DF91CF9108956AE070E030
:1009A00080E090E00E94AD3880E00E943A1780918C
:1009B00081048883DDCFCF93DF934115510569F022
:1009C0008091030390910403049739F0EA0180E0D9
:1009D0000E943A17809181048883DF91CF91089516
:1009E000CF92DF92EF92FF921F93CF93DF938F3FCF
:1009F000910509F0F8F46A017B01EC010E94591D90
:100A000011E0029721F4CE010E941E18182FAE01AA
:100A1000C701B6010E94EC16AB01BC01112351F0D5
:100A2000CE01DF91CF911F91FF90EF90DF90CF909B
:100A30000C94521DDF91CF911F91FF90EF90DF90AA
:100A4000CF900895089508950E94F9170E940E17F7
:100A5000892B21F081E090E00C94553F08950E948D
:100A600093170C94101BCF93DF93EC016091FF025E
:100A700070910003809101039091020320E030E027
:100A800040E050EC0E94F833882361F08091FF022F
:100A900090910003A0910103B09102038883998390
:100AA000AA83BB83DF91CF910895DDCF0895089588
:100AB0008F929F92AF92BF92CF92DF92EF92FF926E
:100AC0000F931F9369017A010E94003FF0E0E0E07C
:100AD000E017F107A9F4672B682B692B21F02F5F32
:100AE0003F4F4F4F5F4FCA01B9011F910F91FF90C8
:100AF000EF90DF90CF90BF90AF909F908F90089530
:100B00004B015C01660F771F881F991F220F331F4F
:100B1000441F551FB7FC05C06C157D058E059F054C
:100B200040F02F5F3F4F4F4F5F4F6C197D098E098B
:100B30009F093196CDCF8F929F92AF92BF92CF9265
:100B4000DF92EF92FF920F931F9369017A010E9447
:100B5000003FF0E0E0E0E017F10769F4CA01B901F5
:100B60001F910F91FF90EF90DF90CF90BF90AF90CB
:100B70009F908F9008954B015C01660F771F881F2F
:100B8000991F220F331F441F551FB7FC05C06C155A
:100B90007D058E059F0540F02F5F3F4F4F4F5F4F04
:100BA0006C197D098E099F093196D5CF8F929F923E
:100BB000AF92BF92CF92DF92EF92FF920F931F936B
:100BC0006B017C01DA01C9010097A105B10559F457
:100BD0006FEF7FEF8FEF9FE7F7FE33C060E070E0CD
:100BE00080E090E82EC04B015701F7FE07C0882433
:100BF000992454018C189D08AE08BF089C01AD01D2
:100C0000B7FF07C022273327A901281B390B4A0B3E
:100C10005B0BCC24F7FCC394DD24EE24FF2488274F
:100C2000B7FD83959927AA27BB27C816A9F0C50148
:100C3000B4013EDF90958095709561957F4F8F4F01
:100C40009F4F1F910F91FF90EF90DF90CF90BF903B
:100C5000AF909F908F900895C501B4016CDFF1CFE4
:100C60002F923F924F925F926F927F928F929F92BC
:100C7000AF92BF92CF92DF92EF92FF920F931F93AA
:100C8000CF93DF93CDB7DEB761970FB6F894DEBF91
:100C90000FBECDBF80913A1C8150823008F44CC108
:100CA00080E080933A1C8091550490915604892BE2
:100CB00009F040C0C0904C02D0904D02E0904E022E
:100CC000F0904F02A701960160916E1B70916F1B0F
:100CD0008091701B9091711B0E94F833882341F022
:100CE000C0926E1BD0926F1BE092701BF092711B32
:100CF0006091721B7091731B9E012F5F3F4F42E505
:100D00005BE183E038DB89818823A1F08091521B6D
:100D10009091531B9093511B8093501B80913A1CD0
:100D2000882309F40FC1833009F008C181E090E005
:100D300080933A1C80915D0490915E04892B09F0A8
:100D40004AC0C090281CD090291CE0902A1CF0902A
:100D50002B1CC701B6010E9432344B015C0120916B
:100D600058023091590240915A0250915B020E9400
:100D7000F83387FFEAC0F7FCE8C0809150029091F9
:100D80005102A0915202B09153028093F41A9093B1
:100D9000F51AA093F61AB093F71A20E030E040E875
:100DA0005FE36091540270915502809156029091D8
:100DB00057020E9493339B01AC01C501B4010E940C
:100DC000BC3587FDC6C01092281C1092291C1092B9
:100DD0002A1C10922B1C80915B0490915C04892B3F
:100DE00009F05FC00091501B1091511B1093391CEA
:100DF0000093381CC80196958795282F2170F22EF4
:100E0000298320E030E0A9016091F41A7091F51A6D
:100E10008091F61A9091F71A0E94F8338111A7C0B9
:100E2000C80123E0969587952A95E1F780959095DE
:100E300081709927302F3170E32E60E08111632F8C
:100E40006093631B882319F091E0F11001C090E0DA
:100E50009093641B882309F48DC016950795169509
:100E6000079501700093651B81E319DAE092611B1D
:100E70008091381C81FB992790F99093601B82FB2D
:100E8000992790F990935F1B83FB882780F98093C3
:100E90005E1B6091651B85E302DA6091641B83E34E
:100EA000FED900915704109158040115110581F4E1
:100EB0008091D01B9091D11BA091D21BB091D31BDC
:100EC0008093F81A9093F91AA093FA1AB093FB1A28
:100ED000E0905304F0905404E114F10409F0CCC004
:100EE00080913B1C811148C081E080933B1C87E0CE
:100EF00090E0A0E0B0E080932C1C90932D1CA09378
:100F00002E1CB0932F1C10923C1B10923D1B109274
:100F10003E1B10923F1B8091F81A9091F91AA091F4
:100F2000FA1AB091FB1A8093401B9093411BA09337
:100F3000421BB093431BA0C083E0B3CE082E000C2D
:100F4000990BF6CE82E090E0F3CE80E090E0DC01F9
:100F50001CCF1FEFC11AD10AE10AF10AC092281C66
:100F6000D092291CE0922A1CF0922B1C34CF81E0F5
:100F700090E060CF00E076CF80912C1C90912D1CEA
:100F8000A0912E1CB0912F1C84309105A105B105B4
:100F900009F45FC010F50197A105B10508F0A7CFCE
:100FA0008091501B9091511B84335AE0950711F4A6
:100FB0000C94D51110F00C9471118133BAE09B0799
:100FC00011F40C94B71182339A4009F055C085E0B2
:100FD00090E0A0E0B0E00C94D9112091501B30912A
:100FE000511B85309105A105B10511F40C94201118
:100FF0000697A105B105A1F68090F81A9090F91A0C
:10100000A090FA1AB090FB1A20333A4011F40C94D5
:101010002B1120E030E040E05FE36091F81B70911D
:10102000F91B8091FA1B9091FB1B0E94C0356093C5
:101030003C1B70933D1B80933E1B90933F1B22E90A
:101040003AE046E05FE3C501B4010E9493330C949B
:1010500067118091501B9091511B82334AE0940795
:1010600009F4B5CF84335AE0950711F40C94D511E7
:1010700080339A4009F43BCF8091550490915604F7
:10108000892B81F58091D41B9091D51BA091D61B03
:10109000B091D71B8093FC1A9093FD1AA093FE1A6F
:1010A000B093FF1A8091D81B9091D91BA091DA1BA5
:1010B000B091DB1B8093001B9093011BA093021B3C
:1010C000B093031B8091DC1B9091DD1BA091DE1B74
:1010D000B091DF1B8093041B9093051BA093061B0C
:1010E000B093071BEF2809F0BEC02091041B30917C
:1010F000051B4091061B5091071B6091401B70918E
:10110000411B8091421B9091431B0E9493336B01C2
:101110007C012091100230911102409112025091F5
:1011200013020E94C0356A877B878C879D87209138
:101130003002309131024091320250913302C701A6
:10114000B6010E94C0352091E01B3091E11B409117
:10115000E21B5091E31B0E9494334B015C01C09051
:101160003C02D0903D02E0903E02F0903F029B0195
:10117000AC01B601C7010E94F83387FD12C0C090D0
:101180002C02D0902D02E0902E02F0902F029401BC
:10119000A501B601C7010E94BC35181614F0640100
:1011A000750180903C1B90903D1BA0903E1BB09021
:1011B0003F1B209180023091810240918202509128
:1011C0008302C501B4010E94C03520E030E0A901CE
:1011D0000E9494332B013C012091880230918902B6
:1011E00040918A0250918B02B601C7010E94C0351E
:1011F0009B01AC01C301B2010E9494336093081BB0
:101200007093091B80930A1B90930B1B20918402FF
:10121000309185024091860250918702C501B40148
:101220000E94C03520E030E0A9010E9494334B01B8
:101230005C0120918C0230918D0240918E02509180
:101240008F02B601C7010E94C0359B01AC01C501E8
:10125000B4010E94943360930C1B70930D1B809318
:101260000E1B90930F1B2091181B3091191B40915E
:101270001A1B50911B1B6091081B7091091B8091D8
:101280000A1B90910B1B0E9493336093441B709335
:10129000451B8093461B9093471B012B09F094C379
:1012A00020911C1B30911D1B40911E1B50911F1B38
:1012B00060910C1B70910D1B80910E1B90910F1B68
:1012C0000E9493336B017C01AC019B01609114027D
:1012D0007091150280911602909117020E94C035FC
:1012E00060934C1B70934D1B80934E1B90934F1B30
:1012F00020913402309135024091360250913702EC
:10130000C701B6010E94C0352091E41B3091E51B56
:101310004091E61B5091E71B0E9494335B016C01E6
:101320006091440270914502072E000C880B990BC6
:101330000E9432347B018C019501A6010E94F83392
:1013400087FD14C06091400270914102072E000C8D
:10135000880B990B0E9432347B018C019501A60108
:101360000E94BC35181614F075018601B701C8013A
:101370000E946D346B017C010E94511681110C9406
:10138000F91120E030E040E857E4C701B6010E94BF
:1013900087346B017C0120E030E0A9010E94F83322
:1013A00087FD02C00C94FC11C701B60190580E9441
:1013B00004347195619571097093551B6093541BAA
:1013C000C090441BD090451BE090461BF090471BFB
:1013D000A7019601609118027091190280911A027A
:1013E00090911B020E94C0356093481B7093491B6B
:1013F00080934A1B90934B1B209138023091390205
:1014000040913A0250913B02C701B6010E94C0359B
:101410002091E81B3091E91B4091EA1B5091EB1B96
:101420000E9494335B016C01609146027091470207
:10143000072E000C880B990B0E9432347B018C0123
:101440009501A6010E94F83387FD14C06091420205
:1014500070914302072E000C880B990B0E943234C6
:101460007B018C019501A6010E94BC35181614F071
:1014700075018601B701C8010E946D346B017C01C2
:101480000E9451168111BEC720E030E040E857E4C9
:10149000C701B6010E9487346B017C0120E030E077
:1014A000A9010E94F83387FFB0C7C701B601905861
:1014B0000E9404347195619571097093571B609374
:1014C000561BF2E0AF2EB12CA8ECCA2EA2E0DA2E09
:1014D000B2E0EB2EF12C00EC12E022E030E048EB21
:1014E00052E06CEE7BE180E19BE10E948C308090C9
:1014F0009C0290909D02A0909E02B0909F02C0908E
:10150000A002D090A102E090A202F090A30220914C
:10151000101B3091111B4091121B5091131BC501E0
:10152000B4010E94C035A70196010E94C0356A83AC
:101530007B838C839D832091141B3091151B4091DC
:10154000161B5091171BC501B4010E94C035A7019D
:1015500096010E94C0356E837F838887998780912A
:10156000FE02882309F456C72091F4023091F50257
:10157000A091301CB091311C0E942A3F0E9432344D
:1015800020E030E040E052E30E94C0356093181B39
:101590007093191B80931A1B90931B1B2091F802C8
:1015A0003091F902A091341CB091351C0E942A3F61
:1015B0000E94323420E030E040E052E30E94C03527
:1015C00060931C1B70931D1B80931E1B90931F1B0D
:1015D00061E02091541B3091551B809148029091FD
:1015E00049022817390709F460E06093661B8AE016
:1015F0000E944F0161E02091561B3091571B809152
:101600004A0290914B022817390709F460E0609371
:10161000671B85E00E944F012091561B3091571B9C
:101620008091D4029091D502821793070CF017C7CE
:101630009093591B8093581B8091D8029091D902A6
:101640008217930744F08091DA029091DB028217AF
:1016500093070CF4C90197FF03C0919581959109F7
:1016600090935B1B80935A1B4091541B5091551BC8
:101670002091DC023091DD022417350744F02091DF
:10168000DE023091DF02241735070CF49A01A09195
:10169000F002B091F1020E942A3FEFE09595879504
:1016A00077956795EA95D1F76093621B8091E00288
:1016B0009091E102841795070CF0DEC690935D1BB4
:1016C00080935C1B6091A41B7091A51B8091A61B4D
:1016D0009091A71B0E9492028C019093A31B809370
:1016E000A21B60915C1B70915D1B072E000C880B88
:1016F000990B0E9432346B017C0120E030E04FE70F
:1017000053E40E94F83387FFC4C6C092441BD092B2
:10171000451BE092461BF092471B20E030E0A901F8
:101720006091441B7091451B8091461B9091471B13
:101730000E94BC35181644F01092441B1092451BB1
:101740001092461B1092471B4091441B5091451B21
:101750006091461B7091471BC8010E945B0260911B
:10176000981B7091991B80919A1B90919B1B0E94D2
:1017700092028C019093971B8093961B6091621B41
:1017800070E090E080E00E943034AB01BC01C80101
:101790000E945B0260918C1B70918D1B80918E1B4F
:1017A00090918F1B0E9492028C0190938B1B8093CF
:1017B0008A1B60915A1B70915B1B072E000C880BD3
:1017C000990B0E9432346B017C0120E030E04FE73E
:1017D00053E40E94F83387FF69C6C092441BD0923D
:1017E000451BE092461BF092471B20E030E0A90128
:1017F0006091441B7091451B8091461B9091471B43
:101800000E94BC35181644F01092441B1092451BE0
:101810001092461B1092471B4091441B5091451B50
:101820006091461B7091471BC8010E945B0260914A
:10183000801B7091811B8091821B9091831B0E9461
:1018400092028C0190937F1B80937E1B6091581BAA
:101850007091591B072E000C880B990B0E94323493
:101860006B017C0120E030E04FE753E40E94F83345
:1018700087FF29C6C092441BD092451BE092461BAD
:10188000F092471B20E030E0A9016091441B709169
:10189000451B8091461B9091471B0E94BC35181632
:1018A00044F01092441B1092451B1092461B10925C
:1018B000471B4091441B5091451B6091461B709102
:1018C000471BC8010E945B024090181B5090191BD7
:1018D00060901A1B70901B1B80901C1B90901D1B0E
:1018E000A0901E1BB0901F1B2091A4023091A50256
:1018F0004091A6025091A702C301B2010E94C035D7
:1019000020E030E0A9010E9494336B017C0120911A
:10191000AC023091AD024091AE025091AF02C501D0
:10192000B4010E94C0359B01AC01C701B6010E9401
:1019300094336B017C01C092201BD092211BE0925A
:10194000221BF092231B2091A8023091A902409102
:10195000AA025091AB02C301B2010E94C03520E03F
:1019600030E0A9010E9494332B013C012091B00288
:101970003091B1024091B2025091B302C501B4015D
:101980000E94C0359B01AC01C301B2010E94943397
:101990006093241B7093251B8093261B9093271B19
:1019A000A70196016091B4027091B5028091B602D0
:1019B0009091B7020E94C03560932C1B70932D1B31
:1019C00080932E1B90932F1BE0905504F0905604AB
:1019D000E114F10401F58090041B9090051BA09088
:1019E000061BB090071BC501B4010E94FC33609335
:1019F000281B7093291B80932A1B90932B1BC501D6
:101A0000B4010E9423366093301B7093311B809386
:101A1000321B9093331B0091530410915404011511
:101A20001105A1F52091301B3091311B4091321BE3
:101A30005091331B60912C1B70912D1B80912E1B9C
:101A400090912F1B0E94C0356093341B7093351BFF
:101A50008093361B9093371B2091281B3091291BB4
:101A600040912A1B50912B1B6091201B7091211BD0
:101A70008091221B9091231B0E94C0356093381BDC
:101A80007093391B80933A1B90933B1B2090570413
:101A9000309058042114310481F48091041B9091FA
:101AA000051BA091061BB091071B8093D01B909340
:101AB000D11BA093D21BB093D31BEF2809F076C0A3
:101AC0004090D41B5090D51B6090D61B7090D71BB4
:101AD0008090D81B9090D91BA090DA1BB090DB1B94
:101AE0008092441B9092451BA092461BB092471BCC
:101AF0008091DC1B9091DD1BA091DE1BB091DF1B60
:101B00008E879F87A88BB98BC0907402D090750286
:101B1000E0907602F09077022091381B3091391BCB
:101B200040913A1B50913B1BC701B6010E94C03542
:101B3000A30192010E9494336093D41B7093D51B30
:101B40008093D61B9093D71B2091341B3091351B6B
:101B50004091361B5091371BC701B6010E94C0351A
:101B6000A50194010E9494336093D81B7093D91BF4
:101B70008093DA1B9093DB1B2091241B3091251B53
:101B80004091261B5091271BC701B6010E94C0350A
:101B90002E853F85488959890E9494336093DC1BC8
:101BA0007093DD1B8093DE1B9093DF1B012B01F5EF
:101BB00020917C0230917D0240917E0250917F0203
:101BC0006A857B858C859D850E94C0352091E01BB0
:101BD0003091E11B4091E21B5091E31B0E94943332
:101BE0006093E01B7093E11B8093E21B9093E31BD7
:101BF000232809F00EC120914C1B30914D1B4091C0
:101C00004E1B50914F1B60919402709195028091F0
:101C10009602909197020E94C0352091E41B30916A
:101C2000E51B4091E61B5091E71B0E9494336093A3
:101C3000E41B7093E51B8093E61B9093E71B2091B8
:101C4000481B3091491B40914A1B50914B1B60919E
:101C500098027091990280919A0290919B020E9441
:101C6000C0352091E81B3091E91B4091EA1B50914F
:101C7000EB1B0E9494336093E81B7093E91B8093E5
:101C8000EA1B9093EB1BE090301CF090311C80908D
:101C9000E4029090E502092C000CAA08BB084090D1
:101CA000561B5090571B052C000C660877088EE0D9
:101CB000440C551C661C771C8A95D1F7A091E6024E
:101CC000B091E70297010E942A3F461A570A680A14
:101CD000790A2091E8023091E902A091321CB0917A
:101CE000331C0E942A3FA3019201261B370B480B8D
:101CF000590BCA01B9010EE010E0A50194010E9440
:101D0000D605F092331CE092321C2EE09595879513
:101D1000779567952A95D1F77093311C6093301CA5
:101D2000E090341CF090351C8090EA029090EB0219
:101D3000092C000CAA08BB084090541B5090551B5E
:101D4000052C000C660877083EE0440C551C661C08
:101D5000771C3A95D1F7A091EC02B091ED02970172
:101D60000E942A3F461A570A680A790A2091EE0211
:101D70003091EF02A091361CB091371C0E942A3F8F
:101D8000A3019201261B370B480B590BCA01B9015D
:101D9000A50194010E94D605F092371CE092361CF2
:101DA0004EE095958795779567954A95D1F770930D
:101DB000351C6093341C52E0A52EB12C68ECC62E65
:101DC00062E0D62E72E0E72EF12C00EC12E022E069
:101DD00030E048EB52E06CEE7BE180E19BE10E9459
:101DE000CF308A819B81AC81BD818093F01B909321
:101DF000F11BA093F21BB093F31B2E813F8148850A
:101E000059852093F41B3093F51B4093F61B509398
:101E1000F71B87E090E00E94230540912D0450912C
:101E20002E0460912F047091300490E080E00E94B5
:101E3000F0048091530490915404892BB1F4609183
:101E4000390470913A0480913B0490913C040E94C3
:101E500030342AE037ED43EA5BE30E94C035AB0142
:101E6000BC0181E090E00E94F004809155049091C3
:101E70005604892BB1F460913D0470913E04809129
:101E80003F04909140040E9430342AE037ED43E251
:101E90005CE30E94C035AB01BC0182E090E00E948F
:101EA000F0048091570490915804892BB1F460910B
:101EB00041047091420480914304909144040E9433
:101EC00030342FE832EC45E75CE30E94C035AB01CB
:101ED000BC0183E090E00E94F0048091590490914D
:101EE0005A04892BB1F460914504709146048091A5
:101EF0004704909148040E94303429E838E848E0CB
:101F00005DE30E94C035AB01BC0184E090E00E941B
:101F1000F00480915B0490915C04892BB1F4609192
:101F2000490470914A0480914B0490914C040E94A2
:101F300030342DEC3CEC4CEC5DE30E94C035AB0141
:101F4000BC0185E090E00E94F00480915D049091D6
:101F50005E04892BB1F460914D0470914E04809120
:101F60004F04909150040E9430342DEC3CEC4CEC2A
:101F70005EE30E94C035AB01BC0186E090E00E94A8
:101F8000F00480905F0490906004A0906104B09091
:101F9000620420E030E040E85FEBC501B4010E943C
:101FA000F833882331F1C0902D04D0902E04E090B6
:101FB0002F04F0903004A7019601C501B4010E94DE
:101FC00093334B015C0120E030E040E054E3C70173
:101FD000B6010E94C0359B01AC01C501B4010E944D
:101FE000BC35181634F08CE993E090931804809374
:101FF000170480916304882331F08CE993E0909377
:102000001804809317046091310470913204809118
:102010003304909134046F5F7F4F8F4F9F4F6093D5
:1020200031047093320480933304909334040E94FB
:1020300030349B01AC01609135047091360480917D
:102040003704909138040E94C03560932D0470933A
:102050002E0480932F0490933004A0915304B091E8
:1020600054041097A1F44091390450913A046091BE
:102070003B0470913C044F5F5F4F6F4F7F4F409325
:10208000390450933A0460933B0470933C04E0910C
:102090005504F09156043097A1F440913D045091BD
:1020A0003E0460913F04709140044F5F5F4F6F4F5B
:1020B0007F4F40933D0450933E0460933F047093E0
:1020C0004004609157047091580461157105A1F4A2
:1020D0000091410410914204209143043091440442
:1020E0000F5F1F4F2F4F3F4F009341041093420447
:1020F00020934304309344044091590450915A046E
:1021000041155105A1F40091450410914604209118
:102110004704309148040F5F1F4F2F4F3F4F0093EC
:1021200045041093460420934704309348042091BB
:102130005B0430915C0421153105A9F4C090490479
:10214000D0904A04E0904B04F0904C048FEFC81AF2
:10215000D80AE80AF80AC0924904D0924A04E092E8
:102160004B04F0924C0480915D0490915E040097C2
:10217000A9F4C0904D04D0904E04E0904F04F0902C
:1021800050041FEFC11AD10AE10AF10AC0924D04AE
:10219000D0924E04E0924F04F09250041196A33076
:1021A000B10508F09DC1B0935404A0935304319637
:1021B000E630F10508F099C1F0935604E093550418
:1021C0006F5F7F4F6930710508F094C170935804B8
:1021D000609357044F5F5F4F4431510508F08FC142
:1021E00050935A04409359042F5F3F4F2C333105CD
:1021F00008F08AC130935C0420935B040196803F11
:10220000910508F086C190935E0480935D04619609
:102210000FB6F894DEBF0FBECDBFDF91CF911F91F7
:102220000F91FF90EF90DF90CF90BF90AF909F9075
:102230008F907F906F905F904F903F902F90089578
:102240008090F81A9090F91AA090FA1AB090FB1AA0
:1022500020333A40F1F487E090E0A0E0B0E08093D2
:102260002C1C90932D1CA0932E1CB0932F1C10920D
:102270003C1B10923D1B10923E1B10923F1B809204
:10228000401B9092411BA092421BB092431B0C94A6
:102290003C0820E030E040E05FE36091F81B709183
:1022A000F91B8091FA1B9091FB1B0E94C035609333
:1022B0003C1B70933D1B80933E1B90933F1B22E978
:1022C0003AE046E05FE3C501B4010E9494336093B5
:1022D000401B7093411B8093421B9093431B0C94B3
:1022E0003C0886333AE0930789F1B0F087339A408F
:1022F00011F00C943C0883E090E0A0E0B0E0809303
:102300002C1C90932D1CA0932E1CB0932F1C8AE99B
:1023100099E9A9E9BEE310C081E090E0A0E0B0E057
:1023200080932C1C90932D1CA0932E1CB0932F1CDB
:102330008DEC9CECACECBDE38093F81B9093F91B07
:10234000A093FA1BB093FB1B0C943C0882E090E036
:10235000A0E0B0E080932C1C90932D1CA0932E1C29
:10236000B0932F1C8DEC9CECACE4BEE3E5CF84E095
:1023700090E0A0E0B0E080932C1C90932D1CA093E3
:102380002E1CB0932F1C8091F81B9091F91BA091EB
:10239000FA1BB091FB1B80933C1B90933D1BA093B9
:1023A0003E1BB0933F1B0C948B0786E090E0A0E0AF
:1023B000B0E080932C1C90932D1CA0932E1CB09306
:1023C0002F1C20E030E040E05FE36091F81B70914B
:1023D000F91B8091FA1B9091FB1B0E94C035609302
:1023E0003C1B70933D1B80933E1B90933F1B0C94B2
:1023F0003C08C12CD12C7601C701B6010E940434DF
:102400000C94DC09C12CD12C7601C701B6010E94C5
:10241000043453C82091F01B3091F11B4091F21B02
:102420005091F31B6A817B818C819D810E94933343
:102430006093181B7093191B80931A1B90931B1B9E
:102440002091F41B3091F51B4091F61B5091F71B26
:102450006E817F81888599850E949333B1C8809170
:10246000D6029091D702281739070CF4E1C83093AF
:10247000591B2093581BE0C88091E2029091E3021F
:10248000481759070CF41AC950935D1B40935C1B05
:1024900019C980E090E0AFE7B3E48093441B9093C8
:1024A000451BA093461BB093471B37C980E090E0C3
:1024B000AFE7B3E48093441B9093451BA093461B66
:1024C000B093471B92C980E090E0AFE7B3E48093FC
:1024D000441B9093451BA093461BB093471BD2C946
:1024E000109254041092530462CE1092560410922B
:1024F000550466CE10925804109257046BCE109279
:102500005A041092590470CE10925C0410925B042D
:1025100075CE10925E0410925D0479CE8F929F92D8
:10252000AF92BF92DF92EF92FF920F931F93CF93E0
:10253000DF9384E090E064D3E7E1F4E08DE4DF0131
:102540001D928A95E9F780E090E0A0E8BFEB8093C8
:102550005F0490936004A0936104B09362048EE0E2
:1025600094E7AAEDBAE3868F978FA0A3B1A385EC79
:1025700097ECA9E0B7E884839583A683B7838BECB7
:1025800095EDADECBAE780879187A287B38783E6A4
:1025900099E2A5E7B0EB84879587A687B7878AE796
:1025A00099E0A9E7B5E1808B918BA28BB38BABE06F
:1025B000B4E0B383A283EDEEF3E01196FC93EE93C7
:1025C00080EB93E0918380839383828395838483DC
:1025D0009783868391878087938782872AE33CE16C
:1025E0003587248797878687918B808B938B828B07
:1025F000958B848B978B868B918F808F938F828F17
:10260000958F848F8BE294E015969C938E9314970C
:102610008BE194E013969C938E9312978DE294E055
:1026200017969C938E931697A4EFBAE184E7FD0169
:1026300011928A95E9F7C8E6DBE184EDFE0111927B
:102640008A95E9F7E0E1F2E08091FC029091FD02C9
:102650009093391C8093381C409170025091710204
:1026600060917202709173024093D01B5093D11B02
:102670006093D21B7093D31B4091780250917902E2
:1026800060917A0270917B024093D41B5093D51BCA
:102690006093D61B7093D71B4093D81B5093D91BC4
:1026A0006093DA1B7093DB1B4093DC1B5093DD1BA4
:1026B0006093DE1B7093DF1B4089518962897389A7
:1026C0004093E01B5093E11B6093E21B7093E31B6C
:1026D00044895589668977894093E41B5093E51BAB
:1026E0006093E61B7093E71B408D518D628D738D57
:1026F0004093E81B5093E91B6093EA1B7093EB1B1C
:1027000040919002509191026091920270919302D7
:1027100094964D935D936D937C9397972091D002FF
:102720003091D1023093311C2093301C8091D20221
:102730009091D3029093351C8093341C98964D93BE
:102740005D936D937C939B973093331C2093321C45
:102750009093371C8093361C84859585A685B78514
:102760008093F01B9093F11BA093F21BB093F31B8B
:102770008093F41B9093F51BA093F61BB093F71B6B
:102780008091FA029091FB029093511B8093501B11
:1027900084AD95ADA6ADB7AD8E839F83A887B9876D
:1027A000812C912C5401839489829A82AB82BC82C1
:1027B00082E090E09D878C879B878A8783E00E94D8
:1027C0003B02DD24D394DD821092C81B8092C91B8A
:1027D0009092CA1BA092CB1BB092CC1B61E081E30C
:1027E0000E944701D092CD1B1092C01B8092C11B4A
:1027F0009092C21BA092C31BB092C41B61E085E300
:102800000E944701D092C51B1092B81B8092B91B41
:102810009092BA1BA092BB1BB092BC1B61E083E3F9
:102820000E944701D092BD1B1092B01B8092B11B39
:102830009092B21BA092B31BB092B41B61E08AE0ED
:102840000E944701D092B51B1092A81B8092A91B31
:102850009092AA1BA092AB1BB092AC1B61E085E0EA
:102860000E944701D092AD1B1CAA8DE090E0A0E031
:10287000B0E08CAF9DAFAEAFBFAF19AE8DAA9EAA30
:10288000AFAAB8AEE12CF12C8701A80197016DE049
:1028900070E080E090E00E94D6029BAF8AAF6CAD02
:1028A0007DAD8EAD9FAD0E9492029BAF8AAF0E941C
:1028B0005A02D9AE18A688E090E0A0E0B0E088AB5C
:1028C00099ABAAABBBAB1DA689A69AA6ABA6BCA624
:1028D000A801970168E070E080E090E00E94D602D5
:1028E0009FA78EA768A979A98AA99BA90E9492028D
:1028F0009FA78EA70E945A02DDA61C8E87E090E05B
:10290000A0E0B0E08CA39DA3AEA3BFA319A28D8EBF
:102910009E8EAF8EB8A2A801970167E070E080E0BC
:1029200090E00E94D6029BA38AA36CA17DA18EA1F8
:102930009FA10E9492029BA38AA30E945A02D9A23D
:10294000188A86E090E0A0E0B0E0888F998FAA8F87
:10295000BB8F1D8A898A9A8AAB8ABC8AA801970193
:1029600066E070E080E090E00E94D6029F8B8E8B44
:10297000688D798D8A8D9B8D0E9492029F8B8E8BA4
:102980000E945A02DD8ADF91CF911F910F91FF9033
:10299000EF90DF90BF90AF909F908F9008958091BF
:1029A000681B811103C081E08093681B8091C81B64
:1029B000811103C081E08093C81B8091C01B8111ED
:1029C00003C081E08093C01B8091B81B811103C0BC
:1029D00081E08093B81B8091B01B811103C081E01E
:1029E0008093B01B8091A81B811103C081E080936C
:1029F000A81B80919C1B811136C081E080939C1B99
:102A000080919D1B90919E1BA0919F1BB091A01B3C
:102A10000197A105B10539F58091A11B882319F112
:102A20006091A41B7091A51B8091A61B9091A71B80
:102A30000E9492029093A31B8093A21B40E050E05F
:102A4000BA010E945B026091A41B7091A51B80914A
:102A5000A61B9091A71B0E9492029093A31B8093A8
:102A6000A21B0E9427038091901B811136C081E038
:102A70008093901B8091911B9091921BA091931B2E
:102A8000B091941B0197A105B10539F58091951B73
:102A9000882319F16091981B7091991B80919A1B62
:102AA00090919B1B0E9492029093971B8093961B80
:102AB00040E050E0BA010E945B026091981B709167
:102AC000991B80919A1B90919B1B0E94920290935C
:102AD000971B8093961B0E9427038091841B811172
:102AE00036C081E08093841B8091851B9091861B6A
:102AF000A091871BB091881B0197A105B10539F5FD
:102B00008091891B882319F160918C1B70918D1B1A
:102B100080918E1B90918F1B0E94920290938B1B31
:102B200080938A1B40E050E0BA010E945B026091F2
:102B30008C1B70918D1B80918E1B90918F1B0E941E
:102B4000920290938B1B80938A1B0E942703809193
:102B5000781B811136C081E08093781B8091791BAE
:102B600090917A1BA0917B1BB0917C1B0197A105D2
:102B7000B10539F580917D1B882319F16091801B87
:102B80007091811B8091821B9091831B0E94920205
:102B900090937F1B80937E1B40E050E0BA010E941F
:102BA0005B026091801B7091811B8091821B9091D0
:102BB000831B0E94920290937F1B80937E1B0C9438
:102BC0002703089560E070E080E89FE7089560E0E3
:102BD00070E080E89FE7089560E070E080E89FEF94
:102BE000089560E070E080E89FEF089560E070E095
:102BF00080EC9FEF089560E070E080EC9FEF089517
:102C0000F5DF6093481C7093491C80934A1C909395
:102C10004B1CF1DF60933C1C70933D1C80933E1C69
:102C200090933F1CCFDF6093441C7093451C8093AE
:102C3000461C9093471CCBDF6093401C7093411C53
:102C40008093421C9093431CC7DF60934C1C70938D
:102C50004D1C80934E1C90934F1CC3DF6093501CFF
:102C60007093511C8093521C9093531C08950F93A2
:102C70001F938B019C010027112720783F770115B6
:102C8000110520483F4749F4AB01BC016F77772716
:102C900081E0452B462B472B09F480E01F910F91D3
:102CA0000895E5CF4F925F926F927F928F929F929D
:102CB000AF92BF92CF92DF92EF92FF92452B09F035
:102CC0007AC06B017C0120E030E04AE754E40E94C6
:102CD000C0354B015C0120E030E040E85FE40E9439
:102CE00087340E9404342B013C0120E030E040E8AE
:102CF0005FE4C501B4010E94BC3518160CF068C031
:102D000020E030E040E85FE2C501B4010E94C03538
:102D10000E940434409264045092650460926604F8
:102D200070926704609368047093690480936A04E6
:102D300090936B046091FF027091000380910103F6
:102D40009091020320E030E040E85FEB0E94F8330E
:102D5000882389F16091FF02709100038091010343
:102D60009091020320E030E040E050EC0E94F83304
:102D7000882309F16091FF027091000380910103A3
:102D800090910203A70196010E9493334B015C01CD
:102D900020E030E040E054E3C701B6010E94C035B6
:102DA0009B01AC01C501B4010E94F833881F88273C
:102DB000881F80936C04FF90EF90DF90CF90BF90BE
:102DC000AF909F908F907F906F905F904F900895FD
:102DD00060E070E0CB019ECFCF92DF92EF92FF9246
:102DE0006B017C015FDF20E034E244E759E4C70176
:102DF000B6010E94C03520E030E040E05FE30E9471
:102E0000943320E030E040E85FE40E9487340E9481
:102E10000434FF90EF90DF90CF900895CF93DF932D
:102E200000D01F92CDB7DEB71C821B821A82198296
:102E3000BE016F5F7F4FCE0103960E94942F698180
:102E40007A818B819C810E945129009761F4BE0197
:102E50006F5F7F4FCE0103960E94A02F69817A8118
:102E60008B819C81CDD40F900F900F900F90DF91AC
:102E7000CF910895FF920F931F93CF93DF93082F65
:102E800060E070E0CB010E94AD38FF24F3940E9413
:102E90003C28EC01892B89F010E0CE3F8FEFD8075A
:102EA00069F0002361F160E070E0CB010E94AD3871
:102EB00081E090E0892B59F322C011E0C4D4EC01E9
:102EC000892B21F0CE3F8FEFD80759F711111EC083
:102ED00011E0229609F410E00E94EE27EC01892B04
:102EE00021F0CE3F8FEFD807E1F6111111C011E0AC
:102EF000CE3F8FEFD80709F410E001110BC0CE01CF
:102F0000DF91CF911F910F91FF90089511E0E4CFD1
:102F100011E0F3CF60E070E0CB010E94AD381F25D7
:102F2000812F90E0C7CFCF93DF9381E090E0909323
:102F3000040380930303BDD5D0E0C0E0892B71F07A
:102F40006AE070E080E090E00E94AD3881E092DFBE
:102F5000B0D52196C03D27E0D20781F7AFD50E94BA
:102F6000A5291092820410928104109204031092F9
:102F7000030310927D0410927E0410927F0410923D
:102F800080041092790410927A0410927B041092BB
:102F90007C041092750410927604109277041092BB
:102FA00078041092710410927204109273041092BB
:102FB000740410926D0410926E0410926F041092BB
:102FC000700440E050E060E070EC4093FF025093EA
:102FD0000003609301037093020310926C04E4E613
:102FE000F4E028E0DF011D922A95E9F7DF91CF9107
:102FF000089510928C0410928D0410928E041092F9
:103000008F0410928B048091940490919504909376
:103010008A04809389041092880410928704109285
:1030200083041092840410928504109286041092F6
:1030300091041092900490E080E00895CF92DF9286
:10304000EF92FF920F931F93CF938C01892B09F07E
:1030500055C02091940430919504809189049091F9
:103060008A04409194045091950450938A044093AB
:1030700089042817390781F0109288041092870478
:103080001092830410928404109285041092860496
:103090001092910410929004809194049091950460
:1030A000019761F58091900490919104892B21F40E
:1030B00080910503811112C0809190049091910438
:1030C0000197E1F48091830490918404A091850498
:1030D000B09186040197A105B10581F41092830493
:1030E00010928404109285041092860410920503B5
:1030F00082E090E0909391048093900480919404F6
:1031000090919504019709F01CC18091AA049091B7
:10311000AB048017910709F014C18091A604909127
:10312000A704A091A804B091A904009709F409C1CB
:103130002091A50421110DC04091A6045091A7042F
:103140006091A8047091A904452B462B472B09F4E4
:10315000F8C020919004309191042230310509F09B
:10316000F0C0209187042111ECC0FC01C080D18007
:10317000E280F38080918B04882309F4D3C080918E
:10318000970490919804892B09F4FDC0209197042D
:103190003091980481E02230310509F080E02091DF
:1031A000970430919804C1E02130310549F0209115
:1031B000970430919804C1E02230310509F0C0E055
:1031C000882309F456C02091A1043091A2044091B3
:1031D000A3045091A404C701B6010E94BC3587FD29
:1031E00014C02091A1043091A2044091A3045091F5
:1031F000A40460918C0470918D0480918E04909150
:103200008F040E94F83387FD22C02091A1043091E1
:10321000A2044091A3045091A404C701B6010E94E6
:10322000BC35181634F52091A1043091A2044091C8
:10323000A3045091A40460918C0470918D0480913A
:103240008E0490918F040E94F833811112C08091F6
:10325000990490919A04A0919B04B0919C04892BAD
:103260008A2B8B2B19F481E08093880481E0809372
:103270008704CC2309F456C02091A1043091A20404
:103280004091A3045091A404C701B6010E94F833F1
:1032900087FF14C02091A1043091A2044091A3049F
:1032A0005091A40460918C0470918D0480918E04DF
:1032B00090918F040E94BC3587FF22C02091A10409
:1032C0003091A2044091A3045091A404C701B60117
:1032D0000E94F833811126C02091A1043091A204EC
:1032E0004091A3045091A40460918C0470918D04CA
:1032F00080918E0490918F040E94BC35181694F42E
:103300008091990490919A04A0919B04B0919C049F
:10331000892B8A2B8B2B19F481E08093880481E020
:103320008093870481E090918704911180E08093DD
:103330008B04C0928C04D0928D04E0928E04F092A3
:103340008F04012B09F09BC080919004909191040F
:10335000892BD9F41092960410928704809105036A
:10336000882379F082E090E0909391048093900418
:1033700010920503209194043091950481E0232B51
:10338000E9F080E01BC081E00ACF10920503809134
:103390009604882349F010928804109291041092A8
:1033A000900410929604EDCF80919404909195042E
:1033B000892BE1F08091870410928704209190047A
:1033C000309191042230310509F463C088F421154D
:1033D000310509F448C02130310509F4F8C01092D4
:1033E0008804109287041092960438C081E0E6CFDA
:1033F0002330310509F4B6C02430310581F74091FE
:103400008304509184046091850470918604411571
:1034100051056105710561F041505109610971095A
:1034200040938304509384046093850470938604CE
:1034300040918304509184046091850470918604C6
:10344000452B462B472BD9F42091920430919304BD
:103450002130310509F04BC010928804109291047C
:10346000109290040CC080910503882341F082E003
:1034700090E09093910480939004109205038091C2
:103480008804CF911F910F91FF90EF90DF90CF9024
:1034900008958823A1F38091990490919A04A091B2
:1034A0009B04B0919C04181619061A061B060CF012
:1034B0007DC08091940490919504019709F076C0A5
:1034C0008091990490919A04A0919B04B0919C04DE
:1034D0008093830490938404A0938504B09386041E
:1034E00083E090E09093910480939004C8CF409142
:1034F0009D0450919E0460919F047091A004452BFF
:10350000462B472BA9F01092880480919D0490913E
:103510009E04A0919F04B091A00480938304909393
:103520008404A0938504B093860481E090E0DACF10
:10353000882399F08091060390910703A0910803D6
:10354000B09109038093830490938404A09385042D
:10355000B093860484E090E0C5CF1092880482E0A6
:1035600090E0C0CF8091830490918404A091850461
:10357000B09186040097A105B10559F00197A10902
:10358000B1098093830490938404A0938504B0933D
:1035900086048091830490918404A0918504B09165
:1035A0008604892B8A2B8B2B09F069CF8091060327
:1035B00090910703A0910803B0910903892B8A2BEE
:1035C0008B2B09F449CF81E080938804B3CF4091DD
:1035D00083045091840460918504709186044115A0
:1035E00051056105710561F0415051096109710989
:1035F00040938304509384046093850470938604FD
:1036000040918304509184046091850470918604F4
:10361000452B462B472B09F032CF8111C7CF9FCFC7
:1036200010928C0410928D0410928E0410928F04CC
:1036300010928B04109291041092900410928A04BC
:10364000109289041092AB041092AA04109288047C
:1036500010928704109283041092840410928504BF
:10366000109286041092A6041092A7041092A80447
:103670001092A9041092A5041092A1041092A20421
:103680001092A3041092A40488EE93E0A0E0B0E0AE
:103690008093060390930703A0930803B093090354
:1036A00010929D0410929E0410929F041092A00408
:1036B0001092990410929A0410929B0410929C0408
:1036C000109298041092970481E080930503109261
:1036D0009604109295041092940410929304109200
:1036E000920490E080E0089582E090E0FA019183F6
:1036F00080838FEF9FEF0895CF93DF93EA010097C8
:1037000011F00E94B02A1982188290E080E0DF91C7
:10371000CF910895DB01009719F48FEF8C930895F2
:103720002EEF2C93FC013C96EB30F105C8F4882772
:10373000E356F44E8F4F0C94223FC11BBF1BBB1BA3
:10374000BD1BB91BB71BB51BB21BAC1BA81BAE1B0B
:1037500080E311968C93089589E2FBCF82E2F9CF42
:1037600080E2F7CF11961C92089583E2F2CF81E2B6
:10377000F0CF81E1EECF87E2ECCF8AE2EACF80E1C1
:10378000E8CF84E2E6CF8091B8049091B90408951F
:103790009093B9048093B80408958091B704089574
:1037A0009091B704892B8093B7040895982F909532
:1037B0008091B70489238093B70408958091B6045B
:1037C00008958091B4049091B50408956115710530
:1037D00059F0FB0130E020E070E060E0241735078D
:1037E00019F06115710511F0CB010895A081B18127
:1037F000A817B90709F4BF012F5F3F4F3696EECFE8
:103800008091BA0481111CC027D22DD29093AD04AF
:103810008093AC040E9491240E94A3249093B1044D
:103820008093B0040E945B270E9462279093AF04AC
:103830008093AE0481E08093BA0490E080E0089524
:1038400084EF9FEF08958F929F92AF92BF92CF9295
:10385000DF92EF92FF920F931F93CF93DF9300D0ED
:1038600000D000D01F92CDB7DEB71A861986188611
:103870001F821E821D821C821B821A8219828091E5
:10388000BA0407EF1FEF882309F489C08E010D5F8A
:103890001F4F9E012B5F3F4FAE01495F5F4FBE013F
:1038A000675F7F4F90E080E00E94D6288C010097F0
:1038B00021F00596029708F0C5C089859A85009782
:1038C00009F4EDC0ED80FE802B813C812E0D3F1D63
:1038D0004F8158854217530708F4E1C0E80EF91EDE
:1038E000D7014C912091B8043091B904232B09F4ED
:1038F00092C0413F08F067C08CE1840F8D3008F41E
:1039000081C08DE2840F803108F47FC088E3840F8A
:103910008B3008F47DC09AE8C92E9BE1D92EE4E7EC
:10392000FBE16D817E81AE014F5F5F4F89859A8596
:1039300019955C01C114D10491F189809A80811498
:10394000910469F18B819C818815990508F482C0E6
:1039500010E000E04B815C8170E060E0C7010E94F4
:103960004E3F01151105D9F449815A8169857A853F
:103970008D819E81680F791FC501F6011995098116
:103980001A812D813E814F81588569857A8581E034
:1039900090E00E9473288C01892B09F053C0C80164
:1039A0002A960FB6F894DEBF0FBECDBFDF91CF9140
:1039B0001F910F91FF90EF90DF90CF90BF90AF904D
:1039C0009F908F90089530E020E0220F331FF9017F
:1039D000E455FB4F0190F081E02D309709F49BCF27
:1039E000842F90E01995009709F495CFDC01129689
:1039F000ED91FC9113971496CD90DC90309709F0DF
:103A000090CF1EC021E030E0E0CF22E030E0DDCFFB
:103A100023E030E0DACFD12CC12CECE7FBE14F3FC3
:103A200009F07FCFE091AC04F091AD04309719F428
:103A300004EF1FEF0CC08FEF90E019950097B1F6DF
:103A400004EF1FEF89859A85009709F4A8CF0E949B
:103A5000B02AA5CF0E94A0298C0189859A850E9451
:103A6000B02A70E060E0C4010E94392998878F83F2
:103A70000E9470289E838D836F8178856115710502
:103A800059F0C8010E94E22B9A87898706EF1FEF41
:103A9000892B09F05DCF5ECF08EF1FEF5BCF08EFFA
:103AA0001FEFD0CF2091BA04211152C787EF9FEFAB
:103AB00008958091B8049091B90408950E946727F1
:103AC0000E94D426D5D0ECEAF4E088E0DF011D9214
:103AD0008A95E9F71092BA0490E080E0089586E0B4
:103AE00090E0FA019183808390E080E0089547E0C0
:103AF00050E06AE073E06ACEFF920F931F93CF937A
:103B0000DF938A01EC01C60FD71FF9800E94882934
:103B1000F816190668F082E090E0F801918380833E
:103B20008EEF9FEFDF91CF911F910F91FF9008953E
:103B300089818093BD0490E00196F8019183808390
:103B400090E080E0EFCFCF93DF93EA010E949529C8
:103B500082E090E0998388838BEF9FEFDF91CF9194
:103B60000895CF93DF93EB0186E0FB0111928A95D4
:103B7000E9F78FEF888311DE898320DE8A8321DED7
:103B80009D838C83DF91CF910895CF93DF93EA01DA
:103B90000E94FB25811109C082E090E0998388830F
:103BA00085EF9FEFDF91CF91089590E080E0F0DD09
:103BB00081E090E09983888390E080E0F3CF0F93D9
:103BC0001F93CF93DF93EA018C01060F171F0E940A
:103BD000FB2581110BC082E090E09983888385EFFB
:103BE0009FEFDF91CF911F910F910895F80181818F
:103BF000823038F082E090E0998388838EEF9FEFE7
:103C0000F0CF81E090E0C4DD88E090E09983888384
:103C100090E080E0E6CFCF93DF930097D1F4EB0103
:103C2000FB01329686E0DF011D928A95E9F78FEF5E
:103C3000888385E089831A820E9488298B830E9469
:103C400087299D838C8381E08E838F83DF91CF9141
:103C50000895DF91CF915ECD87E79DE19093BC04FD
:103C60008093BB0408958091BB049091BC04089597
:103C70001092BC041092BB0408958091BE049091F0
:103C8000BF040895411105C06115710581059105B5
:103C900061F06093BE047093BF048093C00490935E
:103CA000C1044093C20481E0089580E00895FF922A
:103CB0000F931F93CF93DF938A01EC01C60FD71F99
:103CC000F9800E948829F816190668F082E090E0D1
:103CD000F801918380838EEF9FEFDF91CF911F9149
:103CE0000F91FF9008956C817D818E819F814B8122
:103CF000C9DF811108C082E090E0F80191838083E0
:103D000084EF9FEFEACF89818093BD0490E0019614
:103D1000F8019183808390E080E0DFCFCF93DF9341
:103D2000EA01FC01E60FF71F6481758186819781A6
:103D30004381A8DF811109C082E090E099838883E4
:103D400084EF9FEFDF91CF91089581E090E0998318
:103D5000888390E080E0F6CFEEEBF4E04081518183
:103D600062817381480F511D611D711D4083518314
:103D7000628373830895CF932091BE043091BF0472
:103D80004FEFFC0140832115310589F0C091BD043E
:103D90004C2F50E0FA013196E617F70741F4B901CC
:103DA00001960E94453F8C2FD7DF1092BD04CF9122
:103DB00008959B01009719F4BA01C901DCCFAACC80
:103DC0009B01009719F4BA01C901D5CFA3CC2DE00E
:103DD000AC01249FC001259F900D1124E091C704E0
:103DE000F091C804E80FF91F238134812250310972
:103DF00081E02230310508F080E008950F931F9391
:103E0000CF93DF930091C9041091CA04D0E0C0E0C1
:103E100080E00C171D0749F491E0811190E0892F93
:103E2000DF91CF911F910F9108958111F5CFCE01B0
:103E3000CEDF2196EECFA091C704B091C8041097B1
:103E400029F12091C9043091CA0482179307F0F434
:103E50005DE0589F9001599F300D1124A20FB31FB0
:103E6000ED91FC911197309789F012968C9168171B
:103E700068F485E0689FE00DF11D11248081918137
:103E8000892B21F081E09281491708F080E00895A4
:103E9000EF92FF920F931F93CF93DF93EA01FC0100
:103EA000E60FF71F02811381E480F5804F2D6E2D00
:103EB000C801C1DF81110DC082E090E09983888341
:103EC0008EEF9FEFDF91CF911F910F91FF90EF90B9
:103ED0000895C8017CDF882339F082E090E099835F
:103EE000888388EF9FEFEECF1093770300937603DC
:103EF000E0927803F092790381E090E099838883DF
:103F000090E080E0DFCFCF92DF92EF92FF920F93AD
:103F10001F93CF93DF937A01EC01C60FD71FC09098
:103F20007603D09077030091780310917903412FA5
:103F3000602FC60180DF811110C082E090E0F701A0
:103F4000918380838AEF9FEFDF91CF911F910F9133
:103F5000FF90EF90DF90CF900895C60138DF88235F
:103F600041F082E090E0F7019183808388EF9FEF3A
:103F7000EBCF4C815D816E817F819A8189818F3FFA
:103F800041F082E090E0F701918380838EEF9FEF14
:103F9000DBCFEDE0EC9D9001ED9D300D1124E09123
:103FA000C704F091C804E20FF31F0190F081E02DE7
:103FB00025E0029FE00DF11D11240190F081E02D1C
:103FC00027E0129FE00DF11D1124808391838B81E6
:103FD000828343835483658376831F5F10937903C1
:103FE00081E090E0F7019183808390E080E0ACCFA6
:103FF000EF92FF920F931F93CF93DF937A018C017F
:10400000060F171FC091C704D091C804209781F0F4
:1040100021E030E0F801828193814091C904509100
:10402000CA048417950710F030E020E0232B71F4C8
:1040300082E090E0F701918380838EEF9FEFDF9124
:10404000CF911F910F91FF90EF9008954DE0489F01
:104050009001499F300D1124C20FD31FB8DE882371
:1040600041F082E090E0F7019183808388EF9FEF39
:10407000E6CFF8012481358120383105C8F68781E3
:104080008111D6CF4181842F90E08F7E009741F03F
:1040900082E090E0F7019183808386EF9FEFCFCF9E
:1040A0004F833E832D83268128871986223010F482
:1040B00021E0288721E030E0F70131832083BFCF62
:1040C00088E090E0FA019183808390E080E0089599
:1040D000FB018FEF808381E181838FEF9FEF9383DB
:1040E000828380E890E09583848316821782089506
:1040F000FB018FEF808391E091838283938384839C
:1041000084E3858381E090E09783868308954BE084
:1041100050E064E373E05ACB8F929F92BF92CF92AC
:10412000DF92EF92FF920F931F93CF93DF93EA01F9
:10413000FC01E60FF71F828193810481B580E09135
:10414000C704F091C804309791F482E090E099831D
:1041500088838CEF9FEFDF91CF911F910F91FF909C
:10416000EF90DF90CF90BF909F908F900895209117
:10417000C9043091CA048217930738F082E090E0B6
:10418000998388838EEF9FEFE6CF2DE0289F600113
:10419000299FD00C1124EC0DFD1DE080F180E1146D
:1041A000F10499F28281081748F785E0089F8001A1
:1041B0001124E00EF11EF70180819181892B29F6EF
:1041C000F7E0BF9E40011124C4010E94632AF70159
:1041D00091838083E091C704F091C804EC0DFD1D2C
:1041E0000190F081E02DE00FF11F80819181009717
:1041F00039F482E090E0998388838DEF9FEFABCF15
:10420000A40170E060E00E944E3F8091C70490914D
:10421000C804C80ED91EF60180819181080F191FAC
:10422000F801B28281E090E09983888390E080E099
:1042300092CFBF92CF92DF92EF92FF920F931F9394
:10424000CF93DF93EA01FC01E60FF71F8281938190
:10425000B4800091C7041091C8040115110581F4C0
:1042600082E090E0998388838CEF9FEFDF91CF917C
:104270001F910F91FF90EF90DF90CF90BF90089526
:104280002091C9043091CA048217930738F082E064
:1042900090E0998388838EEF9FEFE8CF2DE0289FF1
:1042A0007001299FF00C11240E0D1F1DF801808153
:1042B0009181892BA9F6F5E0BF9E60011124C6010A
:1042C0000E94632AF80191838083E091C704F091F2
:1042D000C804EE0DFF1D80819181009739F482E0C2
:1042E00090E0998388838DEF9FEFC0CFA60170E0A7
:1042F00060E00E944E3FE091C704F091C804EE0DCB
:10430000FF1DB28281E090E09983888390E080E095
:10431000ADCFCF92DF92EF92FF920F931F93CF9387
:10432000DF93860F971FFC01E280F3808091C70422
:104330009091C804892B81F082E090E0FA0191838A
:1043400080838CEF9FEFDF91CF911F910F91FF90B2
:10435000EF90DF90CF9008958A018DE08E9D6001EF
:104360008F9DD00C1124C6010E94632AEC01009796
:1043700041F482E090E0F801918380838DEF9FEF1C
:10438000E2CFA60170E060E00E944E3FD093C804E7
:10439000C093C704F092CA04E092C90490E080E0A0
:1043A0002FEF3FEF8E159F0541F481E090E0F8017B
:1043B0009183808390E080E0C6CF3C872B87019675
:1043C0002D96F0CFCF92DF92EF92FF920F931F9333
:1043D000CF93DF93EC01D12CC12C10E000E0F12C45
:1043E000E12C8A818017110609F0BCF4AE01455F0B
:1043F0005F4F63E070E0C7010E94CE2A009721F072
:104400002FEF3FEF3C872B87DF91CF911F910F91CB
:10441000FF90EF90DF90CF900895E881F981EC0D47
:10442000FD1D838194810115110571F0019661E0F4
:1044300070E01FD7E816F90608F47C010F5F1F4FE4
:1044400085E0C80ED11CCDCF0596F1CF8F929F92FB
:10445000AF92BF92CF92DF92EF92FF920F931F9392
:10446000CF93DF93EA01FC01E60FF71F81818330D0
:1044700098F082E090E09983888386EF9FEFDF9148
:10448000CF911F910F91FF90EF90DF90CF90BF9051
:10449000AF909F908F9008958091C7049091C80429
:1044A000892B61F081E090E02091C9043091CA0429
:1044B000232B11F490E080E0892B39F482E090E026
:1044C000998388838EEF9FEFDACFF8948091C504AB
:1044D0009091C604892B09F4A4C0789482E090E0FE
:1044E0009983888385EF9FEFCACF63817481672B9F
:1044F00011F03483238301963D9648175907A9F795
:1045000081E090E045D980E451D983C08091C7040F
:104510009091C804800F911FFC0143815481423067
:10452000510571F4F7E0CF16D104E104F10444F42D
:10453000FC01438554854F3F5F4F11F443DF9C01DD
:104540004FEFC41AD40AE40AF40A035F1F4F8091A4
:10455000C9049091CA04B0E0A0E0C816D906EA06E2
:10456000FB06B4F42115310589F27894232B09F464
:1045700051C082E090E0998388838DEF9FEF7FCFD9
:1045800010E000E030E020E0C12CD12C7601DFCF3C
:104590002115310551F710E000E0812C912C5401D8
:1045A00083E0E82EF12C18C0E091C704F091C80414
:1045B000E00FF11F83819481029739F4F482E38242
:1045C00082E090E0E5D880E4EBD86FEF861A960A97
:1045D000A60AB60A035F1F4F8091C9049091CA04CE
:1045E000B0E0A0E088169906AA06BB06ECF230E01F
:1045F00020E0BBCF638174816230710511F4348394
:10460000238301963D9648175907A1F7F7DB8111DF
:1046100077CF789481E090E09983888390E080E080
:104620002ECF8181813009F4ABCF78F0823089F7C9
:104630004091C9045091CA04E091C704F091C804A4
:1046400090E080E021E030E0DECF4091C90450915D
:10465000CA04E091C704F091C80490E080E021E032
:1046600030E04BCF4F925F926F927F928F929F92EA
:10467000AF92BF92CF92DF92EF92FF920F931F9370
:10468000CF93DF933C01660E771EF301C280D38087
:10469000C091C704D091C804209741F091E02091C7
:1046A000C9043091CA04C216D30608F090E09111F3
:1046B00018C082E090E0FA01918380838EEF9FEF33
:1046C000DF91CF911F910F91FF90EF90DF90CF90EE
:1046D000BF90AF909F908F907F906F905F904F9022
:1046E00008958DE08C9D90018D9D300D1124C20F99
:1046F000D31FF3018181833040F082E090E0FA0122
:104700009183808386EF9FEFDBCF2A012B813C8151
:10471000232BF1F4288139814F8141FF34C0232BB1
:1047200009F48AC03091CC042A81432F420F5527C7
:10473000551FBA0141E050E06038710514F050E0B7
:1047400040E0452B09F478C03A87230F2093CC042E
:104750008150823008F47FC0F8948091C504909114
:10476000C604892B09F07CC0F3018181813009F4F2
:1047700091C008F47EC0823009F089C082E090E0E8
:104780009C838B8384C0232B09F456C03091CB04C7
:104790002A81E32FE20FFF27FF1F41E050E0E038BE
:1047A000F10514F050E040E0452B09F445C03A878C
:1047B000230F2093CB04CCCFA881B981A00FB11FC8
:1047C000ED91FC9111973097B9F121E030E012960C
:1047D0008C91811102C030E020E0232B69F190E040
:1047E000F12CE12C30E020E0281739076CF147016B
:1047F000F5E08F0E911C8BD59C0191E028153905B1
:1048000008F490E0A8014B5F5F4F28153905A0F030
:1048100028813981020F131FF801F482E382FFEF30
:10482000AF1ABF0A8A018A818A151B0409F00CF4A9
:1048300093CF9111C1CF90CF82E090E0F2019183AC
:10484000808387EF9FEF3CCF4181E40EF11C2F5F07
:104850003F4F3796C9CF10E000E0B12CA12CE3CF39
:10486000789482E090E0F2019183808385EF9FEF5E
:1048700027CF81E090E09C838B83C0DA882339F0D6
:1048800081E090E00E94C81B80E40E94D61B90E06B
:1048900080E018C0F7E0CF16D10460F083E090E02C
:1048A0009C838B8382E090E00E94C81B80E40E947E
:1048B000D01BEDCF8B859C85019681F7CE0182DDE3
:1048C000009761F3789422E030E0F2013183208395
:1048D000892B19F08DEF9FEFF3CE90E080E0F0CEC2
:1048E0000097A9F4FB01228133818FEF80834DE093
:1048F000429FC001439F900D1124E091C704F091A5
:10490000C804E80FF91F8285FB01818308950C9488
:104910008A1B88E090E0FA019183808390E080E038
:1049200008951092C6041092C504E7ECF4E086E006
:10493000DF011D928A95E9F787E890E29093C4041D
:104940008093C30408958091C3049091C404089592
:104950002F923F924F925F926F927F928F929F928F
:10496000AF92BF92CF92DF92EF92FF920F931F937D
:10497000CF93DF93CDB7DEB72F970FB6F894DEBF96
:104980000FBECDBFF8942091C5043091C6042F5FAF
:104990003F4F3093C6042093C50478942091C704F8
:1049A0003091C8043B832A83232B09F421C1209131
:1049B000C9043091CA04232B09F41AC14A875B87C2
:1049C0006C877D87998788878A819B819F878E875F
:1049D000512C412C198210E000E08091C904909183
:1049E000CA044816590618F43981332329F1F8947A
:1049F0008091C5049091C60401979093C60480935A
:104A0000C5047894C8012F960FB6F894DEBF0FBE88
:104A1000CDBFDF91CF911F910F91FF90EF90DF906D
:104A2000CF90BF90AF909F908F907F906F905F904E
:104A30004F903F902F900895AE85BF8517968C912B
:104A4000179781FD83C013968D919C9114970397BE
:104A500009F07CC015968D919C91E885F9858E179B
:104A60009F0709F073C0312C212CF12CE12C62C07E
:104A700037D39F838E8310E0E114F10431F4AE85C7
:104A8000BF8517961C9112951170AE85BF85ED916B
:104A9000FC91E20DF31D63807480111161C0BFEFC2
:104AA0006B1A7B0A61E070E0C301E3D35C01AE8561
:104AB000BF851B968D919C918F3F980709F454C038
:104AC000B50180D66C01009709F48DC0EE81FF819D
:104AD000E80FF91FAE85BF851A968C918E0D8083E5
:104AE000111145C08F010F5F1F4F1D821C821B8259
:104AF0001A82AE85BF85ED91FC91E20DF31D828196
:104B00002A813B818217130611F00CF03CC083010F
:104B10002E813F81A501B60190E080E0E4D28C01B6
:104B2000892B11F0C6011CD58FEFE81AF80A95E021
:104B3000290E311CAE85BF8512968C918E151F04EF
:104B400029F024F0B981BB2309F492CFEFEF4E1A7C
:104B50005E0A2E853F85235F3F4F3F872E873DCFDF
:104B6000E5E06E0E711C9ECFC501ADD4ABCF8A853A
:104B70009B85AC85BD8581839283A383B4838F019C
:104B80000B5F1F4FB2CF80809180AC81BD818A0EB8
:104B90009B1EF4016381748180818F3FF1F021E0DD
:104BA00030E001C0220F8A95EAF7DB018C91822365
:104BB00091E009F490E0F8019083F4018181080FFD
:104BC000111D2A813B812F5F3F4F3B832A838C81BC
:104BD0009D8107969D838C838CCF418150E0C801D5
:104BE0000E94453FEACF31E0398306EF1FEF9CCFAB
:104BF00010E000E0FCCE2F923F924F925F926F92B6
:104C00007F929F92AF92BF92CF92DF92EF92FF92EC
:104C10000F931F93CF93DF9300D000D0CDB7DEB7B3
:104C20000091C7041091C8049924939401151105AB
:104C3000A9F0A090C904B090CA04F8948091C5046A
:104C40009091C60499249394009709F0912C892B94
:104C500009F472C0789480E40E94D61B892D2696B0
:104C60000FB6F894DEBF0FBECDBFDF91CF911F917D
:104C70000F91FF90EF90DF90CF90BF90AF909F90FB
:104C80007F906F905F904F903F902F90089527E016
:104C9000C216D104E104F1046CF4AD81BE811B960F
:104CA0008D919C918F3F980709F010D5ED81FE8181
:104CB00034862386AD81BE818D919C91B12CA12C2F
:104CC000412C512C3201892B31F5BFEFCB1ADB0A75
:104CD000EB0AFB0AED81FE813D96FE83ED8389811F
:104CE0009A81AB81BC81C816D906EA06FB067CF224
:104CF000C80136D4B0CF8A0D9B1DFC018081918103
:104D0000009709F02DD4FFEF4F1A5F0A6F0A7F0A50
:104D100025E0A20EB11CAD81BE818D919C911197B1
:104D200012964C9150E070E060E04416550666061D
:104D300077060CF315D4C9CF1092C8041092C7049B
:104D40001092CA041092C9041092CB041092CC04A1
:104D50007894DFD21E830D83C12CD12C7601C5013E
:104D6000B0E0A0E089839A83AB83BC8322242A9499
:104D7000322CB5CFCF93DF93EA013DDF811109C01B
:104D800082E090E09983888385EF9FEFDF91CF9158
:104D9000089581E090E00E94C81B81E090E0998333
:104DA000888390E080E0F2CF26DF1092C404109256
:104DB000C304089542E050E06AE773E00C94E61BF8
:104DC000FF920F931F93CF93DF938A01EC01C60FDD
:104DD000D71FF9809DD20897F816190671F068F070
:104DE00082E090E0F801918380838EEF9FEFDF9166
:104DF000CF911F910F91FF9008956C817D818E81DD
:104E00009F814B810E94421E811108C082E090E088
:104E1000F8019183808384EF9FEFE9CF0E943D1ECC
:104E2000498150E0BE01685F7F4F0E94453F898104
:104E30000E94AC1E81E090E0F8019183808390E0B5
:104E400080E0D5CFFF920F931F93CF93DF938A011A
:104E5000EC01C60FD71FF9805BD2FF2059F00297F3
:104E600021E030E0F816190619F010F030E020E0EB
:104E7000232B69F482E090E0F801918380838EEF28
:104E80009FEFDF91CF911F910F91FF9008950E94A6
:104E90003D1E498150E0BE016E5F7F4F0E94453F3D
:104EA00089810E94AC1E81E090E0F80191838083AB
:104EB00090E080E0E6CF8AED96E29093CE04809376
:104EC000CD0408958091CD049091CE040895089565
:104ED000FC0111821082938382830895DB011D926D
:104EE0001C92DC011296ED91FC9113977183608303
:104EF00013967C936E9312970895FC0180819181A3
:104F0000DB018D939C93A081B181109741F08D912D
:104F10009C9191838083892B11F4F383E28308951C
:104F2000FC0180819181DB018D939C93892B11F48D
:104F300073836283718360830895FC011182108200
:104F4000938382830895CF93DF931F921F92CDB7EF
:104F5000DEB71A821982F894BE016F5F7F4F84ED2D
:104F600094E0CBDF89819A81009709F0F9D2898199
:104F70009A81892B89F7BE016F5F7F4F88ED94E09E
:104F8000BCDF89819A81009709F0EAD289819A81F0
:104F9000892B89F778940F900F90DF91CF91089526
:104FA000CF93DF931F921F92CDB7DEB71A8219827B
:104FB000F894BE016F5F7F4F80ED94E09EDF8981A2
:104FC0009A81009709F0CCD289819A81892B89F73F
:104FD00078940F900F90DF91CF910895EF92FF9208
:104FE0000F931F93CF93DF931F921F92CDB7DEB71E
:104FF0001A8219828091CF0407EF1FEF882391F165
:10500000F894BE016F5F7F4F88ED94E076DF898171
:105010009A81EE24E394F12C892B41F4BE016F5F59
:105020007F4F84ED94E069DFF12CE12C7894898145
:105030009A810EEF1FEF0097A9F0FC014281538186
:1050400064E070E0A5D58C01892B61F0F89469814A
:105050007A81C701880F991F880F991F8C529B4F27
:105060005FDF7894C8010F900F90DF91CF911F916F
:105070000F91FF90EF9008950F931F93CF93DF93BD
:1050800000D01F92CDB7DEB71C821B821A82198214
:105090008091CF0407EF1FEF8823C1F0AE014D5F71
:1050A0005F4F64E070E0CE010196E5D58C01892B5D
:1050B00069F4E981FA818B819C8193838283F894DE
:1050C00069817A8180ED94E009DF7894C8010F90BE
:1050D0000F900F900F90DF91CF911F910F91089536
:1050E000EAD6049608958F929F92AF92BF92CF9284
:1050F000DF92EF92FF920F931F93CF93DF931F9254
:105100001F92CDB7DEB71A8219828230910598F0CE
:10511000CC24CA94DC2CC6010F900F90DF91CF9164
:105120001F910F91FF90EF90DF90CF90BF90AF90C5
:105130009F908F9008956115710551F358014901B1
:105140006A018B017C01CCDF8815990509F7A11450
:10515000B104F1F28A0D9B1DC816D906C8F28091E0
:10516000CF048823F1F0F894B601645071099501D9
:10517000AE014F5F5F4FC801049612D66C01892BB8
:1051800071F489819A81F80193838283C701880F22
:10519000991F880F991FB8018C529B4F9FDE7894FE
:1051A000BACF87EFC82EDD24DA94B5CFAF92BF9285
:1051B000CF92DF92EF92FF920F931F93CF93DF93E3
:1051C0001F921F92CDB7DEB71A821982892B09F080
:1051D00047C06115710509F443C04115510509F433
:1051E0003FC02115310509F43BC001151105C1F17E
:1051F0008091CF048823B9F179016A015B01F894A9
:10520000BE016F5F7F4F80ED94E077DE78948981F7
:105210009A81009759F1DC0112966D917C91A80159
:105220000496D7D58C01E981FA81D501ED93FC93E1
:10523000828193810496F6019183808351DFD701A7
:105240008D939C93C8010F900F90DF91CF911F9188
:105250000F91FF90EF90DF90CF90BF90AF900895A7
:105260000FEF1FEFEFCF07EF1FEFECCF0EEF1FEFAA
:10527000E9CFCF93DF93EC01672B71F425D68C1720
:105280009D0760F018D62496C80FD91F17D68C0F2B
:105290009D1FDF91CF91089514D6F1CF90E080E06B
:1052A000F8CF0F931F93CF93DF932091CF04211159
:1052B0002BC08B01EC0184ED94E00ADE88ED94E0D4
:1052C00007DE80ED94E004DE86D00097C1F4FCD5C3
:1052D00070E060E0CEDF46E853E062E070E05ED16F
:1052E000009769F48091860390918703FFD5B801F8
:1052F000CE0134D4009719F421E02093CF04DF913C
:10530000CF911F910F91089584EF9FEFF8CFD9C5EA
:10531000DBC5CF93DF93DBD5EC01892B11F413DED2
:105320003FDECE01DF91CF910895CF93DF93CFD5AC
:10533000EC01892B09F407DECE01DF91CF910895AE
:1053400080918603909187030895CF93DF93809196
:10535000CF04D0E0C0E08823D1F0CDD5EC01892B7B
:10536000B1F4F1DD1DDE8091860390918703AED10B
:1053700063D2EC01892B59F484ED94E0DEDD88EDF5
:1053800094E0DBDD80ED94E0D8DD1092CF04CE0117
:10539000DF91CF910895CF93DF930097A1F4DF9130
:1053A000CF910895EC011A821982A883309711F0E9
:1053B000928381832F5F3F4FFC01860F971F421717
:1053C000530781F7ECCF30E020E0F0E0E0E0AFEF12
:1053D0006F5F7F4FF4CFAF92BF92CF92DF92EF9289
:1053E000FF920F931F93CF93DF9386E59DE07C019F
:1053F0002CEFE22283EBC82E83E0D82E99EBA92E66
:1054000093E0B92EC5EED7E18E01D6014D915D91A5
:105410006D01F501619171915F01D8011196FC92C6
:10542000EE9215965C934E93149713965C934E935D
:10543000129717967C936E9316979B012F5F3F4FA1
:10544000249FC001259F900D349F900D1124199623
:105450009C938E931897C7019EDFF80180859185F4
:10546000E80EF91E065F1F4FF9EBCF16F3E0DF06DB
:1054700061F6EEEDF4E085E798E0DF019C011D9216
:1054800021503040E1F71092DD041092DC041F8EB1
:105490001E8E1BA21AA219A218A21DA21CA21FA234
:1054A0001EA22A9638E1C533D30789F790E080E041
:1054B000DF91CF911F910F91FF90EF90DF90CF90F0
:1054C000BF90AF900895F8948132910550F4809187
:1054D000E7179091E817892B39F020E090E080E001
:1054E00019C0813E910550F48091F1179091F21707
:1054F000892B39F021E081E090E00CC081349140AB
:10550000A8F48091FB179091FC17892B79F022E089
:1055100082E090E0EAE0E89FD001E99FB00D11241D
:10552000AB51B84E8D919C91009721F4789490E006
:1055300080E00895E29FF0011124EB51F84EDC0168
:1055400011964D915C91518340834281538141502A
:10555000510953834283FC012193CF01789408952C
:105560000097D9F0DC01EE91EB30B8F4F8948FEFAE
:105570008C938AE0E89FF0011124EB51F84E808172
:10558000918112969C938E931197B183A08382810F
:10559000938101969383828378940895CF92DF92CA
:1055A000EF92FF920F931F93CF93DF939C0181EEB5
:1055B00094E08C7F4115510509F485C02115310512
:1055C00009F481C06115710509F47DC08A01AB0140
:1055D000B9016D5F7F4F6C7F9B012F5F3F4F249F11
:1055E0007001259FF00C349FF00C1124F894E5EE27
:1055F000F7E123E030E0E901A6A1B7A1C68CD78C82
:10560000CD2809F054C0109709F03CC0C090DC04CC
:10561000D090DD0422E738E02C193D092E153F0516
:1056200030F47894CFEFDFEF86EF9FEF1FC02AE0D2
:105630002C9FF0012D9FF00D1124EB51F84E91831A
:105640008083558344835383428377836683F186C3
:10565000E086A1DEEC0CFD1CF092DD04E092DC049F
:105660007894CF3FDC0701F390E080E0F801D1832C
:10567000C083DF91CF911F910F91FF90EF90DF904A
:10568000CF900895AE15BF0590F02AE02C9FF00151
:105690002D9FF00D1124EB51F84E9183808355839B
:1056A0004483538342837783668375DED9CF8A0F21
:1056B0009B1F2F5F3F4F3A962B30310509F09BCF50
:1056C000CFEFDFEFCDCF8FEF9FEFD3CFFF920F93D1
:1056D0001F93CF93DF939C0123503109283031056C
:1056E00008F056C0F8942AE0289FF001299FF00D99
:1056F0001124EB51F84E408551853AE0022F10E01D
:1057000080179107ACF12AE0F22EF89EE001F99E95
:10571000D00D1124CB51D84E70E060E08881998182
:105720000E944E3FF09EF001F19EF00D1124EB51CE
:10573000F84E8091DC049091DD0420853185821B38
:10574000930B9093DD048093DC04198218821D82F0
:105750001C821B821A821F821E82198618867894E8
:1057600090E080E0DF91CF911F910F91FF9008951D
:10577000309FF001319FF00D1124EB51F84E608104
:105780007181672B41F44115510529F42150B6CFA1
:105790008FEF9FEFE7CF2AE0289FE001299FD00DF0
:1057A0001124CB51D84E70E060E0888199810E942D
:1057B0004E3F198218821D821C821B821A821F8210
:1057C0001E82CDCF9C01235031092830310510F5C0
:1057D0002AE0289FD001299FB00D1124AB51B84E6B
:1057E0002D913C911197232BA9F016962D913C9168
:1057F00017972617370770F0F89412962D913C9161
:1058000013972115310529F0ED91FC9111973097EF
:1058100021F47894F0E0E0E00DC0418152811196CE
:105820005C934E932150310913963C932E9312971B
:1058300081937894CF010895E3E5FDE082E99AE051
:10584000DF019C011D9221503040E1F7EEEDF4E0C4
:1058500085E798E0DF019C011D9221503040E1F77F
:105860001092DD041092DC04E5EEF7E18EE6DF0134
:105870001D928A95E9F790E080E00895CF93DF9339
:10588000C0918803D0918903CF3FDC0759F410D62B
:10589000909389038093880397FF09C0D09389036D
:1058A000C093880384EF9FEFDF91CF91089590E03C
:1058B00080E0FACF8230910528F48093531890E06D
:1058C00080E008958FEF9FEF08954F925F926F925F
:1058D0007F92AF92BF92CF92DF92EF92FF920F939F
:1058E0001F93CF93DF931F921F92CDB7DEB71A821B
:1058F0001982009709F479C06115710509F475C022
:10590000209188033091890307EF1FEF2F3F3F4F0E
:1059100009F445C06B015C01412C512C3201F12C82
:10592000E12C10E000E09E012F5F3F4FA6014E19D1
:105930005F09B5016E0D7F1D8091880390918903E9
:105940001BD6892B09F04BC089819A81009741F4BD
:10595000E114F10429F420915318222309F442C0E0
:10596000E80EF91EEC14FD04D0F480E8481684E833
:1059700058068EE16806710420F560E070E0CB0106
:105980000E94AD382AE0420E511C611C711C0A3F76
:105990004FEF140721F0043F8FEF1807A1F4C8015F
:1059A0000F900F90DF91CF911F910F91FF90EF908B
:1059B000DF90CF90BF90AF907F906F905F904F90AF
:1059C000089501EF1FEF81E090E0013F2FEF1207F4
:1059D00011F090E080E0892B09F4A5CFE0CF04EF2F
:1059E0001FEFDDCF0AEF1FEFDACF0FEF1FEFD7CF9B
:1059F0004F925F926F927F92AF92BF92CF92DF925F
:105A0000EF92FF920F931F93CF93DF931F921F92FA
:105A1000CDB7DEB71A821982009709F479C06115F3
:105A2000710509F475C0209188033091890307EF4F
:105A30001FEF2F3F3F4F09F445C06B015C01412C24
:105A4000512C3201F12CE12C10E000E09E012F5F7F
:105A50003F4FA6014E195F09B5016E0D7F1D809164
:105A60008803909189033BD5892B09F04BC089812C
:105A70009A81009741F4E114F10429F4209153181C
:105A8000222309F442C0E80EF91EEC14FD04D0F400
:105A900080E8481686E9580688E96806710420F50A
:105AA00060E070E0CB010E94AD382AE0420E511C4C
:105AB000611C711C0E3F4FEF140721F0043F8FEF64
:105AC0001807A1F4C8010F900F90DF91CF911F919B
:105AD0000F91FF90EF90DF90CF90BF90AF907F90AD
